{
  "contractName": "DecentralizedAuction",
  "abi": [
    {
      "inputs": [],
      "stateMutability": "nonpayable",
      "type": "constructor"
    },
    {
      "anonymous": false,
      "inputs": [
        {
          "indexed": false,
          "internalType": "uint256",
          "name": "itemId",
          "type": "uint256"
        },
        {
          "indexed": false,
          "internalType": "string",
          "name": "name",
          "type": "string"
        },
        {
          "indexed": false,
          "internalType": "uint256",
          "name": "minBid",
          "type": "uint256"
        },
        {
          "indexed": false,
          "internalType": "uint256",
          "name": "buyoutPrice",
          "type": "uint256"
        }
      ],
      "name": "AuctionCreated",
      "type": "event"
    },
    {
      "anonymous": false,
      "inputs": [
        {
          "indexed": false,
          "internalType": "uint256",
          "name": "itemId",
          "type": "uint256"
        },
        {
          "indexed": false,
          "internalType": "address",
          "name": "winner",
          "type": "address"
        },
        {
          "indexed": false,
          "internalType": "uint256",
          "name": "amount",
          "type": "uint256"
        }
      ],
      "name": "AuctionEnded",
      "type": "event"
    },
    {
      "anonymous": false,
      "inputs": [
        {
          "indexed": false,
          "internalType": "uint256",
          "name": "itemId",
          "type": "uint256"
        },
        {
          "indexed": false,
          "internalType": "address",
          "name": "bidder",
          "type": "address"
        },
        {
          "indexed": false,
          "internalType": "uint256",
          "name": "amount",
          "type": "uint256"
        }
      ],
      "name": "HighestBidIncreased",
      "type": "event"
    },
    {
      "anonymous": false,
      "inputs": [
        {
          "indexed": false,
          "internalType": "uint256",
          "name": "itemId",
          "type": "uint256"
        },
        {
          "indexed": false,
          "internalType": "address",
          "name": "buyer",
          "type": "address"
        },
        {
          "indexed": false,
          "internalType": "uint256",
          "name": "amount",
          "type": "uint256"
        }
      ],
      "name": "ItemBoughtOut",
      "type": "event"
    },
    {
      "anonymous": false,
      "inputs": [
        {
          "indexed": false,
          "internalType": "address",
          "name": "userAddress",
          "type": "address"
        },
        {
          "indexed": false,
          "internalType": "string",
          "name": "username",
          "type": "string"
        }
      ],
      "name": "UserRegistered",
      "type": "event"
    },
    {
      "inputs": [
        {
          "internalType": "uint256",
          "name": "",
          "type": "uint256"
        }
      ],
      "name": "items",
      "outputs": [
        {
          "internalType": "uint256",
          "name": "id",
          "type": "uint256"
        },
        {
          "internalType": "address payable",
          "name": "seller",
          "type": "address"
        },
        {
          "internalType": "string",
          "name": "name",
          "type": "string"
        },
        {
          "internalType": "string",
          "name": "imageUrl",
          "type": "string"
        },
        {
          "internalType": "uint256",
          "name": "minBid",
          "type": "uint256"
        },
        {
          "internalType": "uint256",
          "name": "buyoutPrice",
          "type": "uint256"
        },
        {
          "internalType": "address",
          "name": "highestBidder",
          "type": "address"
        },
        {
          "internalType": "uint256",
          "name": "highestBid",
          "type": "uint256"
        },
        {
          "internalType": "bool",
          "name": "ended",
          "type": "bool"
        }
      ],
      "stateMutability": "view",
      "type": "function",
      "constant": true
    },
    {
      "inputs": [
        {
          "internalType": "address",
          "name": "",
          "type": "address"
        }
      ],
      "name": "registered",
      "outputs": [
        {
          "internalType": "bool",
          "name": "",
          "type": "bool"
        }
      ],
      "stateMutability": "view",
      "type": "function",
      "constant": true
    },
    {
      "inputs": [
        {
          "internalType": "address",
          "name": "",
          "type": "address"
        }
      ],
      "name": "users",
      "outputs": [
        {
          "internalType": "string",
          "name": "username",
          "type": "string"
        },
        {
          "internalType": "address",
          "name": "walletAddress",
          "type": "address"
        }
      ],
      "stateMutability": "view",
      "type": "function",
      "constant": true
    },
    {
      "inputs": [
        {
          "internalType": "string",
          "name": "_username",
          "type": "string"
        }
      ],
      "name": "registerUser",
      "outputs": [],
      "stateMutability": "nonpayable",
      "type": "function"
    },
    {
      "inputs": [
        {
          "internalType": "address",
          "name": "_userAddress",
          "type": "address"
        }
      ],
      "name": "getUser",
      "outputs": [
        {
          "components": [
            {
              "internalType": "string",
              "name": "username",
              "type": "string"
            },
            {
              "internalType": "address",
              "name": "walletAddress",
              "type": "address"
            }
          ],
          "internalType": "struct DecentralizedAuction.User",
          "name": "",
          "type": "tuple"
        }
      ],
      "stateMutability": "view",
      "type": "function",
      "constant": true
    },
    {
      "inputs": [
        {
          "internalType": "string",
          "name": "name",
          "type": "string"
        },
        {
          "internalType": "string",
          "name": "imageUrl",
          "type": "string"
        },
        {
          "internalType": "uint256",
          "name": "minBid",
          "type": "uint256"
        },
        {
          "internalType": "uint256",
          "name": "buyoutPrice",
          "type": "uint256"
        },
        {
          "internalType": "uint256",
          "name": "biddingTime",
          "type": "uint256"
        }
      ],
      "name": "addItem",
      "outputs": [],
      "stateMutability": "nonpayable",
      "type": "function"
    },
    {
      "inputs": [
        {
          "internalType": "uint256",
          "name": "itemId",
          "type": "uint256"
        }
      ],
      "name": "bid",
      "outputs": [],
      "stateMutability": "payable",
      "type": "function",
      "payable": true
    },
    {
      "inputs": [
        {
          "internalType": "uint256",
          "name": "itemId",
          "type": "uint256"
        }
      ],
      "name": "buyout",
      "outputs": [],
      "stateMutability": "payable",
      "type": "function",
      "payable": true
    },
    {
      "inputs": [
        {
          "internalType": "uint256",
          "name": "itemId",
          "type": "uint256"
        }
      ],
      "name": "manualEndAuction",
      "outputs": [],
      "stateMutability": "nonpayable",
      "type": "function"
    },
    {
      "inputs": [],
      "name": "itemsCount",
      "outputs": [
        {
          "internalType": "uint256",
          "name": "",
          "type": "uint256"
        }
      ],
      "stateMutability": "view",
      "type": "function",
      "constant": true
    },
    {
      "inputs": [],
      "name": "getAllUserItems",
      "outputs": [
        {
          "components": [
            {
              "internalType": "uint256",
              "name": "id",
              "type": "uint256"
            },
            {
              "internalType": "address payable",
              "name": "seller",
              "type": "address"
            },
            {
              "internalType": "string",
              "name": "name",
              "type": "string"
            },
            {
              "internalType": "string",
              "name": "imageUrl",
              "type": "string"
            },
            {
              "internalType": "uint256",
              "name": "minBid",
              "type": "uint256"
            },
            {
              "internalType": "uint256",
              "name": "buyoutPrice",
              "type": "uint256"
            },
            {
              "internalType": "address",
              "name": "highestBidder",
              "type": "address"
            },
            {
              "internalType": "uint256",
              "name": "highestBid",
              "type": "uint256"
            },
            {
              "internalType": "bool",
              "name": "ended",
              "type": "bool"
            }
          ],
          "internalType": "struct DecentralizedAuction.Item[]",
          "name": "",
          "type": "tuple[]"
        }
      ],
      "stateMutability": "view",
      "type": "function",
      "constant": true
    }
  ],
  "bytecode": "0x608060405234801561001057600080fd5b50612cee806100206000396000f3fe60806040526004361061009c5760003560e01c8063704f1b9411610064578063704f1b941461016a578063a87430ba14610193578063ab18d07a146101d1578063b2dd5c07146101fa578063bfb231d214610237578063e2c03ace1461027c5761009c565b806307bec66f146100a15780630abe0866146100bd5780632920e022146100e6578063454a2ab3146101115780636f77926b1461012d575b600080fd5b6100bb60048036038101906100b69190611a64565b6102a7565b005b3480156100c957600080fd5b506100e460048036038101906100df9190611bd7565b6105c1565b005b3480156100f257600080fd5b506100fb6107bc565b6040516101089190611f23565b60405180910390f35b61012b60048036038101906101269190611a64565b610c62565b005b34801561013957600080fd5b50610154600480360381019061014f9190611f71565b61103e565b6040516101619190611fdb565b60405180910390f35b34801561017657600080fd5b50610191600480360381019061018c9190611ffd565b61120b565b005b34801561019f57600080fd5b506101ba60048036038101906101b59190611f71565b6113f6565b6040516101c892919061209f565b60405180910390f35b3480156101dd57600080fd5b506101f860048036038101906101f39190611a64565b6114c2565b005b34801561020657600080fd5b50610221600480360381019061021c9190611f71565b61161f565b60405161022e91906120de565b60405180910390f35b34801561024357600080fd5b5061025e60048036038101906102599190611a64565b61163f565b60405161027399989796959493929190612117565b60405180910390f35b34801561028857600080fd5b506102916117fa565b60405161029e91906121b2565b60405180910390f35b60008054905081106102ee576040517f08c379a00000000000000000000000000000000000000000000000000000000081526004016102e590612219565b60405180910390fd5b600080828154811061030357610302612239565b5b906000526020600020906009020190506000828154811061032757610326612239565b5b906000526020600020906009020160080160009054906101000a900460ff1615610386576040517f08c379a000000000000000000000000000000000000000000000000000000000815260040161037d906122b4565b60405180910390fd5b806005015434146103cc576040517f08c379a00000000000000000000000000000000000000000000000000000000081526004016103c390612320565b60405180910390fd5b60018160080160006101000a81548160ff021916908315150217905550600073ffffffffffffffffffffffffffffffffffffffff168160060160009054906101000a900473ffffffffffffffffffffffffffffffffffffffff1673ffffffffffffffffffffffffffffffffffffffff16146105175760008160060160009054906101000a900473ffffffffffffffffffffffffffffffffffffffff1673ffffffffffffffffffffffffffffffffffffffff16826007015460405161048f90612371565b60006040518083038185875af1925050503d80600081146104cc576040519150601f19603f3d011682016040523d82523d6000602084013e6104d1565b606091505b5050905080610515576040517f08c379a000000000000000000000000000000000000000000000000000000000815260040161050c906123f8565b60405180910390fd5b505b8060010160009054906101000a900473ffffffffffffffffffffffffffffffffffffffff1673ffffffffffffffffffffffffffffffffffffffff166108fc349081150290604051600060405180830381858888f19350505050158015610581573d6000803e3d6000fd5b507f713f19a7f9a1e0c7daa8679ac03a7574d05a0fa17776c383c91aafff17c7f3568233346040516105b593929190612418565b60405180910390a15050565b600060405180610120016040528060008054905081526020013373ffffffffffffffffffffffffffffffffffffffff168152602001878152602001868152602001858152602001848152602001600073ffffffffffffffffffffffffffffffffffffffff168152602001600081526020016000151581525090806001815401808255809150506001900390600052602060002090600902016000909190919091506000820151816000015560208201518160010160006101000a81548173ffffffffffffffffffffffffffffffffffffffff021916908373ffffffffffffffffffffffffffffffffffffffff16021790555060408201518160020190816106c8919061265b565b5060608201518160030190816106de919061265b565b506080820151816004015560a0820151816005015560c08201518160060160006101000a81548173ffffffffffffffffffffffffffffffffffffffff021916908373ffffffffffffffffffffffffffffffffffffffff16021790555060e082015181600701556101008201518160080160006101000a81548160ff02191690831515021790555050507f5bf34ed94988e5dcdc7d1faaa54eb1d3b55f45d5f11457e235afb21a8ebbe73c600160008054905061079a919061275c565b8685856040516107ad9493929190612790565b60405180910390a15050505050565b6060600260003373ffffffffffffffffffffffffffffffffffffffff1673ffffffffffffffffffffffffffffffffffffffff16815260200190815260200160002060009054906101000a900460ff1661084a576040517f08c379a000000000000000000000000000000000000000000000000000000000815260040161084190612828565b60405180910390fd5b6000805b6000805490508110156108f5573373ffffffffffffffffffffffffffffffffffffffff166000828154811061088657610885612239565b5b906000526020600020906009020160010160009054906101000a900473ffffffffffffffffffffffffffffffffffffffff1673ffffffffffffffffffffffffffffffffffffffff16036108e25781806108de90612848565b9250505b80806108ed90612848565b91505061084e565b5060008167ffffffffffffffff81111561091257610911611aac565b5b60405190808252806020026020018201604052801561094b57816020015b610938611970565b8152602001906001900390816109305790505b5090506000805b600080549050811015610c58573373ffffffffffffffffffffffffffffffffffffffff166000828154811061098a57610989612239565b5b906000526020600020906009020160010160009054906101000a900473ffffffffffffffffffffffffffffffffffffffff1673ffffffffffffffffffffffffffffffffffffffff1603610c4557600081815481106109eb576109ea612239565b5b906000526020600020906009020160405180610120016040529081600082015481526020016001820160009054906101000a900473ffffffffffffffffffffffffffffffffffffffff1673ffffffffffffffffffffffffffffffffffffffff1673ffffffffffffffffffffffffffffffffffffffff168152602001600282018054610a759061247e565b80601f0160208091040260200160405190810160405280929190818152602001828054610aa19061247e565b8015610aee5780601f10610ac357610100808354040283529160200191610aee565b820191906000526020600020905b815481529060010190602001808311610ad157829003601f168201915b50505050508152602001600382018054610b079061247e565b80601f0160208091040260200160405190810160405280929190818152602001828054610b339061247e565b8015610b805780601f10610b5557610100808354040283529160200191610b80565b820191906000526020600020905b815481529060010190602001808311610b6357829003601f168201915b5050505050815260200160048201548152602001600582015481526020016006820160009054906101000a900473ffffffffffffffffffffffffffffffffffffffff1673ffffffffffffffffffffffffffffffffffffffff1673ffffffffffffffffffffffffffffffffffffffff168152602001600782015481526020016008820160009054906101000a900460ff161515151581525050838381518110610c2b57610c2a612239565b5b60200260200101819052508180610c4190612848565b9250505b8080610c5090612848565b915050610952565b5081935050505090565b6000805490508110610ca9576040517f08c379a0000000000000000000000000000000000000000000000000000000008152600401610ca090612219565b60405180910390fd5b6000808281548110610cbe57610cbd612239565b5b906000526020600020906009020190508060080160009054906101000a900460ff1615610d20576040517f08c379a0000000000000000000000000000000000000000000000000000000008152600401610d17906128dc565b60405180910390fd5b3373ffffffffffffffffffffffffffffffffffffffff168160010160009054906101000a900473ffffffffffffffffffffffffffffffffffffffff1673ffffffffffffffffffffffffffffffffffffffff1603610db2576040517f08c379a0000000000000000000000000000000000000000000000000000000008152600401610da99061296e565b60405180910390fd5b8060040154341015610df9576040517f08c379a0000000000000000000000000000000000000000000000000000000008152600401610df090612a00565b60405180910390fd5b80600701543411610e3f576040517f08c379a0000000000000000000000000000000000000000000000000000000008152600401610e3690612a6c565b60405180910390fd5b80600501543410610e85576040517f08c379a0000000000000000000000000000000000000000000000000000000008152600401610e7c90612ad8565b60405180910390fd5b600073ffffffffffffffffffffffffffffffffffffffff168160060160009054906101000a900473ffffffffffffffffffffffffffffffffffffffff1673ffffffffffffffffffffffffffffffffffffffff1614610fb35760008160060160009054906101000a900473ffffffffffffffffffffffffffffffffffffffff1673ffffffffffffffffffffffffffffffffffffffff168260070154604051610f2b90612371565b60006040518083038185875af1925050503d8060008114610f68576040519150601f19603f3d011682016040523d82523d6000602084013e610f6d565b606091505b5050905080610fb1576040517f08c379a0000000000000000000000000000000000000000000000000000000008152600401610fa8906123f8565b60405180910390fd5b505b338160060160006101000a81548173ffffffffffffffffffffffffffffffffffffffff021916908373ffffffffffffffffffffffffffffffffffffffff1602179055503481600701819055507fda0a18da71d8ebd145966339a728fc0d8ccc07c22870d561890d823c515dda6b82333460405161103293929190612418565b60405180910390a15050565b6110466119ea565b600260008373ffffffffffffffffffffffffffffffffffffffff1673ffffffffffffffffffffffffffffffffffffffff16815260200190815260200160002060009054906101000a900460ff166110d2576040517f08c379a00000000000000000000000000000000000000000000000000000000081526004016110c990612828565b60405180910390fd5b600160008373ffffffffffffffffffffffffffffffffffffffff1673ffffffffffffffffffffffffffffffffffffffff16815260200190815260200160002060405180604001604052908160008201805461112c9061247e565b80601f01602080910402602001604051908101604052809291908181526020018280546111589061247e565b80156111a55780601f1061117a576101008083540402835291602001916111a5565b820191906000526020600020905b81548152906001019060200180831161118857829003601f168201915b505050505081526020016001820160009054906101000a900473ffffffffffffffffffffffffffffffffffffffff1673ffffffffffffffffffffffffffffffffffffffff1673ffffffffffffffffffffffffffffffffffffffff16815250509050919050565b600260003373ffffffffffffffffffffffffffffffffffffffff1673ffffffffffffffffffffffffffffffffffffffff16815260200190815260200160002060009054906101000a900460ff1615611298576040517f08c379a000000000000000000000000000000000000000000000000000000000815260040161128f90612b44565b60405180910390fd5b60405180604001604052808281526020013373ffffffffffffffffffffffffffffffffffffffff16815250600160003373ffffffffffffffffffffffffffffffffffffffff1673ffffffffffffffffffffffffffffffffffffffff1681526020019081526020016000206000820151816000019081611317919061265b565b5060208201518160010160006101000a81548173ffffffffffffffffffffffffffffffffffffffff021916908373ffffffffffffffffffffffffffffffffffffffff1602179055509050506001600260003373ffffffffffffffffffffffffffffffffffffffff1673ffffffffffffffffffffffffffffffffffffffff16815260200190815260200160002060006101000a81548160ff0219169083151502179055507f48cac28ad4dc618e15f4c2dd5e97751182f166de97b25618318b2112aa951a2f33826040516113eb929190612b64565b60405180910390a150565b60016020528060005260406000206000915090508060000180546114199061247e565b80601f01602080910402602001604051908101604052809291908181526020018280546114459061247e565b80156114925780601f1061146757610100808354040283529160200191611492565b820191906000526020600020905b81548152906001019060200180831161147557829003601f168201915b5050505050908060010160009054906101000a900473ffffffffffffffffffffffffffffffffffffffff16905082565b6000805490508110611509576040517f08c379a000000000000000000000000000000000000000000000000000000000815260040161150090612219565b60405180910390fd5b600080828154811061151e5761151d612239565b5b906000526020600020906009020190508060010160009054906101000a900473ffffffffffffffffffffffffffffffffffffffff1673ffffffffffffffffffffffffffffffffffffffff163373ffffffffffffffffffffffffffffffffffffffff16146115c0576040517f08c379a00000000000000000000000000000000000000000000000000000000081526004016115b790612c06565b60405180910390fd5b8060080160009054906101000a900460ff1615611612576040517f08c379a0000000000000000000000000000000000000000000000000000000008152600401611609906128dc565b60405180910390fd5b61161b82611806565b5050565b60026020528060005260406000206000915054906101000a900460ff1681565b6000818154811061164f57600080fd5b90600052602060002090600902016000915090508060000154908060010160009054906101000a900473ffffffffffffffffffffffffffffffffffffffff169080600201805461169e9061247e565b80601f01602080910402602001604051908101604052809291908181526020018280546116ca9061247e565b80156117175780601f106116ec57610100808354040283529160200191611717565b820191906000526020600020905b8154815290600101906020018083116116fa57829003601f168201915b50505050509080600301805461172c9061247e565b80601f01602080910402602001604051908101604052809291908181526020018280546117589061247e565b80156117a55780601f1061177a576101008083540402835291602001916117a5565b820191906000526020600020905b81548152906001019060200180831161178857829003601f168201915b5050505050908060040154908060050154908060060160009054906101000a900473ffffffffffffffffffffffffffffffffffffffff16908060070154908060080160009054906101000a900460ff16905089565b60008080549050905090565b600080828154811061181b5761181a612239565b5b906000526020600020906009020190508060080160009054906101000a900460ff161561187d576040517f08c379a000000000000000000000000000000000000000000000000000000000815260040161187490612c98565b60405180910390fd5b60018160080160006101000a81548160ff0219169083151502179055508060010160009054906101000a900473ffffffffffffffffffffffffffffffffffffffff1673ffffffffffffffffffffffffffffffffffffffff166108fc82600701549081150290604051600060405180830381858888f19350505050158015611908573d6000803e3d6000fd5b507fd2aa34a4fdbbc6dff6a3e56f46e0f3ae2a31d7785ff3487aa5c95c642acea501828260060160009054906101000a900473ffffffffffffffffffffffffffffffffffffffff16836007015460405161196493929190612418565b60405180910390a15050565b60405180610120016040528060008152602001600073ffffffffffffffffffffffffffffffffffffffff16815260200160608152602001606081526020016000815260200160008152602001600073ffffffffffffffffffffffffffffffffffffffff168152602001600081526020016000151581525090565b604051806040016040528060608152602001600073ffffffffffffffffffffffffffffffffffffffff1681525090565b6000604051905090565b600080fd5b600080fd5b6000819050919050565b611a4181611a2e565b8114611a4c57600080fd5b50565b600081359050611a5e81611a38565b92915050565b600060208284031215611a7a57611a79611a24565b5b6000611a8884828501611a4f565b91505092915050565b600080fd5b600080fd5b6000601f19601f8301169050919050565b7f4e487b7100000000000000000000000000000000000000000000000000000000600052604160045260246000fd5b611ae482611a9b565b810181811067ffffffffffffffff82111715611b0357611b02611aac565b5b80604052505050565b6000611b16611a1a565b9050611b228282611adb565b919050565b600067ffffffffffffffff821115611b4257611b41611aac565b5b611b4b82611a9b565b9050602081019050919050565b82818337600083830152505050565b6000611b7a611b7584611b27565b611b0c565b905082815260208101848484011115611b9657611b95611a96565b5b611ba1848285611b58565b509392505050565b600082601f830112611bbe57611bbd611a91565b5b8135611bce848260208601611b67565b91505092915050565b600080600080600060a08688031215611bf357611bf2611a24565b5b600086013567ffffffffffffffff811115611c1157611c10611a29565b5b611c1d88828901611ba9565b955050602086013567ffffffffffffffff811115611c3e57611c3d611a29565b5b611c4a88828901611ba9565b9450506040611c5b88828901611a4f565b9350506060611c6c88828901611a4f565b9250506080611c7d88828901611a4f565b9150509295509295909350565b600081519050919050565b600082825260208201905092915050565b6000819050602082019050919050565b611cbf81611a2e565b82525050565b600073ffffffffffffffffffffffffffffffffffffffff82169050919050565b6000611cf082611cc5565b9050919050565b611d0081611ce5565b82525050565b600081519050919050565b600082825260208201905092915050565b60005b83811015611d40578082015181840152602081019050611d25565b60008484015250505050565b6000611d5782611d06565b611d618185611d11565b9350611d71818560208601611d22565b611d7a81611a9b565b840191505092915050565b6000611d9082611cc5565b9050919050565b611da081611d85565b82525050565b60008115159050919050565b611dbb81611da6565b82525050565b600061012083016000830151611dda6000860182611cb6565b506020830151611ded6020860182611cf7565b5060408301518482036040860152611e058282611d4c565b91505060608301518482036060860152611e1f8282611d4c565b9150506080830151611e346080860182611cb6565b5060a0830151611e4760a0860182611cb6565b5060c0830151611e5a60c0860182611d97565b5060e0830151611e6d60e0860182611cb6565b50610100830151611e82610100860182611db2565b508091505092915050565b6000611e998383611dc1565b905092915050565b6000602082019050919050565b6000611eb982611c8a565b611ec38185611c95565b935083602082028501611ed585611ca6565b8060005b85811015611f115784840389528151611ef28582611e8d565b9450611efd83611ea1565b925060208a01995050600181019050611ed9565b50829750879550505050505092915050565b60006020820190508181036000830152611f3d8184611eae565b905092915050565b611f4e81611d85565b8114611f5957600080fd5b50565b600081359050611f6b81611f45565b92915050565b600060208284031215611f8757611f86611a24565b5b6000611f9584828501611f5c565b91505092915050565b60006040830160008301518482036000860152611fbb8282611d4c565b9150506020830151611fd06020860182611d97565b508091505092915050565b60006020820190508181036000830152611ff58184611f9e565b905092915050565b60006020828403121561201357612012611a24565b5b600082013567ffffffffffffffff81111561203157612030611a29565b5b61203d84828501611ba9565b91505092915050565b600082825260208201905092915050565b600061206282611d06565b61206c8185612046565b935061207c818560208601611d22565b61208581611a9b565b840191505092915050565b61209981611d85565b82525050565b600060408201905081810360008301526120b98185612057565b90506120c86020830184612090565b9392505050565b6120d881611da6565b82525050565b60006020820190506120f360008301846120cf565b92915050565b61210281611a2e565b82525050565b61211181611ce5565b82525050565b60006101208201905061212d600083018c6120f9565b61213a602083018b612108565b818103604083015261214c818a612057565b905081810360608301526121608189612057565b905061216f60808301886120f9565b61217c60a08301876120f9565b61218960c0830186612090565b61219660e08301856120f9565b6121a46101008301846120cf565b9a9950505050505050505050565b60006020820190506121c760008301846120f9565b92915050565b7f496e76616c6964204974656d2049440000000000000000000000000000000000600082015250565b6000612203600f83612046565b915061220e826121cd565b602082019050919050565b60006020820190508181036000830152612232816121f6565b9050919050565b7f4e487b7100000000000000000000000000000000000000000000000000000000600052603260045260246000fd5b7f41756374696f6e20616c726561647920656e6465642e00000000000000000000600082015250565b600061229e601683612046565b91506122a982612268565b602082019050919050565b600060208201905081810360008301526122cd81612291565b9050919050565b7f4275796f7574207072696365206e6f74206d65742e0000000000000000000000600082015250565b600061230a601583612046565b9150612315826122d4565b602082019050919050565b60006020820190508181036000830152612339816122fd565b9050919050565b600081905092915050565b50565b600061235b600083612340565b91506123668261234b565b600082019050919050565b600061237c8261234e565b9150819050919050565b7f526566756e6420746f2070726576696f7573206869676865737420626964646560008201527f72206661696c6564000000000000000000000000000000000000000000000000602082015250565b60006123e2602883612046565b91506123ed82612386565b604082019050919050565b60006020820190508181036000830152612411816123d5565b9050919050565b600060608201905061242d60008301866120f9565b61243a6020830185612090565b61244760408301846120f9565b949350505050565b7f4e487b7100000000000000000000000000000000000000000000000000000000600052602260045260246000fd5b6000600282049050600182168061249657607f821691505b6020821081036124a9576124a861244f565b5b50919050565b60008190508160005260206000209050919050565b60006020601f8301049050919050565b600082821b905092915050565b6000600883026125117fffffffffffffffffffffffffffffffffffffffffffffffffffffffffffffffff826124d4565b61251b86836124d4565b95508019841693508086168417925050509392505050565b6000819050919050565b600061255861255361254e84611a2e565b612533565b611a2e565b9050919050565b6000819050919050565b6125728361253d565b61258661257e8261255f565b8484546124e1565b825550505050565b600090565b61259b61258e565b6125a6818484612569565b505050565b5b818110156125ca576125bf600082612593565b6001810190506125ac565b5050565b601f82111561260f576125e0816124af565b6125e9846124c4565b810160208510156125f8578190505b61260c612604856124c4565b8301826125ab565b50505b505050565b600082821c905092915050565b600061263260001984600802612614565b1980831691505092915050565b600061264b8383612621565b9150826002028217905092915050565b61266482611d06565b67ffffffffffffffff81111561267d5761267c611aac565b5b612687825461247e565b6126928282856125ce565b600060209050601f8311600181146126c557600084156126b3578287015190505b6126bd858261263f565b865550612725565b601f1984166126d3866124af565b60005b828110156126fb578489015182556001820191506020850194506020810190506126d6565b868310156127185784890151612714601f891682612621565b8355505b6001600288020188555050505b505050505050565b7f4e487b7100000000000000000000000000000000000000000000000000000000600052601160045260246000fd5b600061276782611a2e565b915061277283611a2e565b925082820390508181111561278a5761278961272d565b5b92915050565b60006080820190506127a560008301876120f9565b81810360208301526127b78186612057565b90506127c660408301856120f9565b6127d360608301846120f9565b95945050505050565b7f55736572206e6f7420726567697374657265642e000000000000000000000000600082015250565b6000612812601483612046565b915061281d826127dc565b602082019050919050565b6000602082019050818103600083015261284181612805565b9050919050565b600061285382611a2e565b91507fffffffffffffffffffffffffffffffffffffffffffffffffffffffffffffffff82036128855761288461272d565b5b600182019050919050565b7f41756374696f6e20616c726561647920656e6465640000000000000000000000600082015250565b60006128c6601583612046565b91506128d182612890565b602082019050919050565b600060208201905081810360008301526128f5816128b9565b9050919050565b7f596f752063616e6e6f7420626964206f6e20796f7572206f776e20617563746960008201527f6f6e000000000000000000000000000000000000000000000000000000000000602082015250565b6000612958602283612046565b9150612963826128fc565b604082019050919050565b600060208201905081810360008301526129878161294b565b9050919050565b7f426964206d7573742062652067726561746572207468616e206f72206571756160008201527f6c20746f206d696e696d756d2062696400000000000000000000000000000000602082015250565b60006129ea603083612046565b91506129f58261298e565b604082019050919050565b60006020820190508181036000830152612a19816129dd565b9050919050565b7f546865726520616c726561647920697320612068696768657220626964000000600082015250565b6000612a56601d83612046565b9150612a6182612a20565b602082019050919050565b60006020820190508181036000830152612a8581612a49565b9050919050565b7f4269642063616e6e6f7420626520686967686572207468616e206275796f7574600082015250565b6000612ac2602083612046565b9150612acd82612a8c565b602082019050919050565b60006020820190508181036000830152612af181612ab5565b9050919050565b7f5573657220616c726561647920726567697374657265642e0000000000000000600082015250565b6000612b2e601883612046565b9150612b3982612af8565b602082019050919050565b60006020820190508181036000830152612b5d81612b21565b9050919050565b6000604082019050612b796000830185612090565b8181036020830152612b8b8184612057565b90509392505050565b7f4f6e6c79207468652073656c6c65722063616e20656e6420746869732061756360008201527f74696f6e00000000000000000000000000000000000000000000000000000000602082015250565b6000612bf0602483612046565b9150612bfb82612b94565b604082019050919050565b60006020820190508181036000830152612c1f81612be3565b9050919050565b7f41756374696f6e20656e642068617320616c7265616479206265656e2063616c60008201527f6c65640000000000000000000000000000000000000000000000000000000000602082015250565b6000612c82602383612046565b9150612c8d82612c26565b604082019050919050565b60006020820190508181036000830152612cb181612c75565b905091905056fea2646970667358221220310e2f9e25defedd2b3ac8fedbf3aaffe38fbd3fc80eeee9ab7eff032dd3431364736f6c63430008130033",
  "immutableReferences": {},
  "source": "// SPDX-License-Identifier: MIT\npragma solidity ^0.8.0;\n\ncontract DecentralizedAuction {\n    struct Item {\n        uint id;\n        address payable seller;\n        string name;\n        string imageUrl;\n        uint minBid;\n        uint buyoutPrice;\n        //uint auctionEndTime;\n        address highestBidder;\n        uint highestBid;\n        bool ended;\n    }\n\n    struct User {\n        string username;\n        address walletAddress;\n    }\n\n    Item[] public items;\n    mapping(address => User) public users;\n    mapping(address => bool) public registered;\n\n    event UserRegistered(address userAddress, string username);\n    //event AuctionCreated(uint itemId, string name, uint minBid, uint buyoutPrice, uint auctionEndTime);\n    event AuctionCreated(uint itemId, string name, uint minBid, uint buyoutPrice);\n    event HighestBidIncreased(uint itemId, address bidder, uint amount);\n    event AuctionEnded(uint itemId, address winner, uint amount);\n    event ItemBoughtOut(uint itemId, address buyer, uint amount);\n    \n    constructor() {\n        // addItem(\"Vintage Phone\", \"https://m.media-amazon.com/images/I/71tQC-279uL.jpg\", 1 ether, 5 ether, 180 minutes);\n        // addItem(\"Record Player\", \"https://ii1.pepperfry.com/media/catalog/product/g/o/494x544/gold-brass-and-wood-embossed-horn-and-gramophone-by-exim-decor-gold-brass-and-wood-embossed-horn-and-fjizt5.jpg\", 2 ether, 7 ether, 180 minutes);\n        // addItem(\"Aladdin Movie Prop\", \"https://multiwood.com.pk/cdn/shop/products/Picsart_22-10-23_03-53-33-812_1000x1000.jpg?v=1666479726\", 3 ether, 10 ether, 180 minutes);\n        // addItem(\"Sword\", \"https://www.swordsantiqueweapons.com/images/s2331b.jpg\", 3 ether, 10 ether, 1 minutes);\n        // addItem(\"Flintlock\", \"https://www.hemswell-antiques.com/uploads/media/news/0001/95/thumb_94739_news_wide.jpeg\", 3 ether, 10 ether, 3 minutes);\n        // addItem(\"James Bond's DB5\", \"https://www.007.com/wp-content/uploads/2022/08/LCC-LS.jpg\", 3 ether, 10 ether, 5 minutes);\n        // addItem(\"Commodore PET\", \"https://i.redd.it/om995fq8j8ua1.jpg\", 3 ether, 10 ether, 5 minutes);\n        // addItem(\"HP Palmtop\", \"https://i.pcmag.com/imagery/lineupitems/06sRck1AimbfOxWwRYvEBqX.fit_lim.size_1050x578.v1569508748.jpg\", 3 ether, 10 ether, 5 minutes);\n    }\n\n    function registerUser(string memory _username) public {\n        require(!registered[msg.sender], \"User already registered.\");\n        users[msg.sender] = User(_username, msg.sender);\n        registered[msg.sender] = true;\n        emit UserRegistered(msg.sender, _username);\n    }\n\n    function getUser(address _userAddress) public view returns (User memory) {\n        require(registered[_userAddress], \"User not registered.\");\n        return users[_userAddress];\n    }\n\n    function addItem(string memory name, string memory imageUrl, uint minBid, uint buyoutPrice, uint biddingTime) public {\n        //uint auctionEndTime = block.timestamp + biddingTime;\n        items.push(Item({\n            id: items.length,\n            seller: payable(msg.sender),\n            name: name,\n            imageUrl: imageUrl,\n            minBid: minBid,\n            buyoutPrice: buyoutPrice,\n            //auctionEndTime: auctionEndTime,\n            highestBidder: address(0),\n            highestBid: 0,\n            ended: false\n        }));\n        //emit AuctionCreated(items.length - 1, name, minBid, buyoutPrice, auctionEndTime);\n        emit AuctionCreated(items.length - 1, name, minBid, buyoutPrice);\n    }\n\n    function bid(uint itemId) public payable {\n        require(itemId < items.length, \"Invalid Item ID\");\n        Item storage item = items[itemId];\n        require(!item.ended, \"Auction already ended\");\n        require(item.seller != msg.sender, \"You cannot bid on your own auction\");\n        require(msg.value >= item.minBid, \"Bid must be greater than or equal to minimum bid\");\n        require(msg.value > item.highestBid, \"There already is a higher bid\");\n        require(msg.value < item.buyoutPrice, \"Bid cannot be higher than buyout\");\n\n        // Refund the previous highest bidder automatically\n        if (item.highestBidder != address(0)) {\n            (bool success, ) = item.highestBidder.call{value: item.highestBid}(\"\");\n            require(success, \"Refund to previous highest bidder failed\");\n        }\n\n        // Update the highest bidder and highest bid\n        item.highestBidder = payable(msg.sender);\n        item.highestBid = msg.value;\n\n        emit HighestBidIncreased(itemId, msg.sender, msg.value);\n    }\n\n\n    function buyout(uint itemId) public payable {\n        require(itemId < items.length, \"Invalid Item ID\");\n        Item storage item = items[itemId];\n        require(!items[itemId].ended, \"Auction already ended.\");\n        require(msg.value == item.buyoutPrice, \"Buyout price not met.\");\n        \n        item.ended = true;\n\n        if (item.highestBidder != address(0)) {\n            (bool success, ) = item.highestBidder.call{value: item.highestBid}(\"\");\n            require(success, \"Refund to previous highest bidder failed\");\n        }\n\n        item.seller.transfer(msg.value);\n        \n        emit ItemBoughtOut(itemId, msg.sender, msg.value);\n    }\n\n\n    function endAuction(uint itemId) internal {\n        Item storage item = items[itemId];\n        require(!item.ended, \"Auction end has already been called\");\n\n        item.ended = true;\n\n        // Transfer the highest bid amount to the seller\n        item.seller.transfer(item.highestBid);\n\n        emit AuctionEnded(itemId, item.highestBidder, item.highestBid);\n    }\n\n\n    // Function to manually end the auction\n    function manualEndAuction(uint itemId) public {\n        require(itemId < items.length, \"Invalid Item ID\");\n        Item storage item = items[itemId];\n        require(msg.sender == item.seller, \"Only the seller can end this auction\");\n        require(!item.ended, \"Auction already ended\");\n\n        endAuction(itemId);\n    }\n\n\n    function itemsCount() public view returns (uint) {\n        return items.length;\n    }\n\n    // Retrieve all user items\n    function getAllUserItems() public view returns (Item[] memory) {\n        require(registered[msg.sender], \"User not registered.\");\n\n        // Count the user's items\n        uint count = 0;\n        for (uint index = 0; index < items.length; index++) {\n            if (items[index].seller == msg.sender) {\n                count++;\n            }\n        }\n\n        // Allocate a memory array for the user's items\n        Item[] memory list = new Item[](count);\n\n        uint counter = 0;\n        for (uint index = 0; index < items.length; index++) {\n            if (items[index].seller == msg.sender) {\n                list[counter] = items[index];\n                counter++;\n            }\n        }\n\n        return list;\n    }\n}\n",
  "sourcePath": "/home/farazmajid/Documents/Decentralized-Auction/backend/contracts/DecentralizedAuction.sol",
  "compiler": {
    "name": "solc",
    "version": "0.8.19+commit.7dd6d404.Emscripten.clang"
  },
  "schemaVersion": "3.4.16",
  "updatedAt": "2024-05-09T10:33:47.501Z",
  "networkType": "ethereum",
  "devdoc": {
    "kind": "dev",
    "methods": {},
    "version": 1
  },
  "userdoc": {
    "kind": "user",
    "methods": {},
    "version": 1
  }
}