{
  "contractName": "DecentralizedAuction",
  "abi": [
    {
      "inputs": [],
      "stateMutability": "nonpayable",
      "type": "constructor"
    },
    {
      "anonymous": false,
      "inputs": [
        {
          "indexed": false,
          "internalType": "uint256",
          "name": "itemId",
          "type": "uint256"
        },
        {
          "indexed": false,
          "internalType": "string",
          "name": "name",
          "type": "string"
        },
        {
          "indexed": false,
          "internalType": "uint256",
          "name": "minBid",
          "type": "uint256"
        },
        {
          "indexed": false,
          "internalType": "uint256",
          "name": "buyoutPrice",
          "type": "uint256"
        }
      ],
      "name": "AuctionCreated",
      "type": "event"
    },
    {
      "anonymous": false,
      "inputs": [
        {
          "indexed": false,
          "internalType": "uint256",
          "name": "itemId",
          "type": "uint256"
        },
        {
          "indexed": false,
          "internalType": "address",
          "name": "winner",
          "type": "address"
        },
        {
          "indexed": false,
          "internalType": "uint256",
          "name": "amount",
          "type": "uint256"
        }
      ],
      "name": "AuctionEnded",
      "type": "event"
    },
    {
      "anonymous": false,
      "inputs": [
        {
          "indexed": false,
          "internalType": "uint256",
          "name": "itemId",
          "type": "uint256"
        },
        {
          "indexed": false,
          "internalType": "address",
          "name": "bidder",
          "type": "address"
        },
        {
          "indexed": false,
          "internalType": "uint256",
          "name": "amount",
          "type": "uint256"
        }
      ],
      "name": "HighestBidIncreased",
      "type": "event"
    },
    {
      "anonymous": false,
      "inputs": [
        {
          "indexed": false,
          "internalType": "uint256",
          "name": "itemId",
          "type": "uint256"
        },
        {
          "indexed": false,
          "internalType": "address",
          "name": "buyer",
          "type": "address"
        },
        {
          "indexed": false,
          "internalType": "uint256",
          "name": "amount",
          "type": "uint256"
        }
      ],
      "name": "ItemBoughtOut",
      "type": "event"
    },
    {
      "anonymous": false,
      "inputs": [
        {
          "indexed": false,
          "internalType": "address",
          "name": "userAddress",
          "type": "address"
        },
        {
          "indexed": false,
          "internalType": "string",
          "name": "username",
          "type": "string"
        }
      ],
      "name": "UserRegistered",
      "type": "event"
    },
    {
      "inputs": [
        {
          "internalType": "uint256",
          "name": "",
          "type": "uint256"
        }
      ],
      "name": "items",
      "outputs": [
        {
          "internalType": "uint256",
          "name": "id",
          "type": "uint256"
        },
        {
          "internalType": "address payable",
          "name": "seller",
          "type": "address"
        },
        {
          "internalType": "string",
          "name": "name",
          "type": "string"
        },
        {
          "internalType": "string",
          "name": "imageUrl",
          "type": "string"
        },
        {
          "internalType": "uint256",
          "name": "minBid",
          "type": "uint256"
        },
        {
          "internalType": "uint256",
          "name": "buyoutPrice",
          "type": "uint256"
        },
        {
          "internalType": "address",
          "name": "highestBidder",
          "type": "address"
        },
        {
          "internalType": "uint256",
          "name": "highestBid",
          "type": "uint256"
        },
        {
          "internalType": "bool",
          "name": "ended",
          "type": "bool"
        }
      ],
      "stateMutability": "view",
      "type": "function",
      "constant": true
    },
    {
      "inputs": [
        {
          "internalType": "address",
          "name": "",
          "type": "address"
        }
      ],
      "name": "registered",
      "outputs": [
        {
          "internalType": "bool",
          "name": "",
          "type": "bool"
        }
      ],
      "stateMutability": "view",
      "type": "function",
      "constant": true
    },
    {
      "inputs": [
        {
          "internalType": "address",
          "name": "",
          "type": "address"
        }
      ],
      "name": "users",
      "outputs": [
        {
          "internalType": "string",
          "name": "username",
          "type": "string"
        },
        {
          "internalType": "address",
          "name": "walletAddress",
          "type": "address"
        }
      ],
      "stateMutability": "view",
      "type": "function",
      "constant": true
    },
    {
      "inputs": [
        {
          "internalType": "string",
          "name": "_username",
          "type": "string"
        }
      ],
      "name": "registerUser",
      "outputs": [],
      "stateMutability": "nonpayable",
      "type": "function"
    },
    {
      "inputs": [
        {
          "internalType": "address",
          "name": "_userAddress",
          "type": "address"
        }
      ],
      "name": "getUser",
      "outputs": [
        {
          "components": [
            {
              "internalType": "string",
              "name": "username",
              "type": "string"
            },
            {
              "internalType": "address",
              "name": "walletAddress",
              "type": "address"
            }
          ],
          "internalType": "struct DecentralizedAuction.User",
          "name": "",
          "type": "tuple"
        }
      ],
      "stateMutability": "view",
      "type": "function",
      "constant": true
    },
    {
      "inputs": [
        {
          "internalType": "string",
          "name": "name",
          "type": "string"
        },
        {
          "internalType": "string",
          "name": "imageUrl",
          "type": "string"
        },
        {
          "internalType": "uint256",
          "name": "minBid",
          "type": "uint256"
        },
        {
          "internalType": "uint256",
          "name": "buyoutPrice",
          "type": "uint256"
        },
        {
          "internalType": "uint256",
          "name": "biddingTime",
          "type": "uint256"
        }
      ],
      "name": "addItem",
      "outputs": [],
      "stateMutability": "nonpayable",
      "type": "function"
    },
    {
      "inputs": [
        {
          "internalType": "uint256",
          "name": "itemId",
          "type": "uint256"
        }
      ],
      "name": "bid",
      "outputs": [],
      "stateMutability": "payable",
      "type": "function",
      "payable": true
    },
    {
      "inputs": [
        {
          "internalType": "uint256",
          "name": "itemId",
          "type": "uint256"
        }
      ],
      "name": "buyout",
      "outputs": [],
      "stateMutability": "payable",
      "type": "function",
      "payable": true
    },
    {
      "inputs": [
        {
          "internalType": "uint256",
          "name": "itemId",
          "type": "uint256"
        }
      ],
      "name": "manualEndAuction",
      "outputs": [],
      "stateMutability": "nonpayable",
      "type": "function"
    },
    {
      "inputs": [],
      "name": "itemsCount",
      "outputs": [
        {
          "internalType": "uint256",
          "name": "",
          "type": "uint256"
        }
      ],
      "stateMutability": "view",
      "type": "function",
      "constant": true
    },
    {
      "inputs": [],
      "name": "getAllUserItems",
      "outputs": [
        {
          "components": [
            {
              "internalType": "uint256",
              "name": "id",
              "type": "uint256"
            },
            {
              "internalType": "address payable",
              "name": "seller",
              "type": "address"
            },
            {
              "internalType": "string",
              "name": "name",
              "type": "string"
            },
            {
              "internalType": "string",
              "name": "imageUrl",
              "type": "string"
            },
            {
              "internalType": "uint256",
              "name": "minBid",
              "type": "uint256"
            },
            {
              "internalType": "uint256",
              "name": "buyoutPrice",
              "type": "uint256"
            },
            {
              "internalType": "address",
              "name": "highestBidder",
              "type": "address"
            },
            {
              "internalType": "uint256",
              "name": "highestBid",
              "type": "uint256"
            },
            {
              "internalType": "bool",
              "name": "ended",
              "type": "bool"
            }
          ],
          "internalType": "struct DecentralizedAuction.Item[]",
          "name": "",
          "type": "tuple[]"
        }
      ],
      "stateMutability": "view",
      "type": "function",
      "constant": true
    }
  ],
  "bytecode": "0x608060405234801561001057600080fd5b50612d04806100206000396000f3fe60806040526004361061009c5760003560e01c8063704f1b9411610064578063704f1b941461016a578063a87430ba14610193578063ab18d07a146101d1578063b2dd5c07146101fa578063bfb231d214610237578063e2c03ace1461027c5761009c565b806307bec66f146100a15780630abe0866146100bd5780632920e022146100e6578063454a2ab3146101115780636f77926b1461012d575b600080fd5b6100bb60048036038101906100b69190611a7a565b6102a7565b005b3480156100c957600080fd5b506100e460048036038101906100df9190611bed565b6105c2565b005b3480156100f257600080fd5b506100fb6107bd565b6040516101089190611f39565b60405180910390f35b61012b60048036038101906101269190611a7a565b610c63565b005b34801561013957600080fd5b50610154600480360381019061014f9190611f87565b611054565b6040516101619190611ff1565b60405180910390f35b34801561017657600080fd5b50610191600480360381019061018c9190612013565b611221565b005b34801561019f57600080fd5b506101ba60048036038101906101b59190611f87565b61140c565b6040516101c89291906120b5565b60405180910390f35b3480156101dd57600080fd5b506101f860048036038101906101f39190611a7a565b6114d8565b005b34801561020657600080fd5b50610221600480360381019061021c9190611f87565b611635565b60405161022e91906120f4565b60405180910390f35b34801561024357600080fd5b5061025e60048036038101906102599190611a7a565b611655565b6040516102739998979695949392919061212d565b60405180910390f35b34801561028857600080fd5b50610291611810565b60405161029e91906121c8565b60405180910390f35b60008054905081106102ee576040517f08c379a00000000000000000000000000000000000000000000000000000000081526004016102e59061222f565b60405180910390fd5b60008082815481106103035761030261224f565b5b90600052602060002090600902019050600082815481106103275761032661224f565b5b906000526020600020906009020160080160009054906101000a900460ff1615610386576040517f08c379a000000000000000000000000000000000000000000000000000000000815260040161037d906122ca565b60405180910390fd5b80600501543410156103cd576040517f08c379a00000000000000000000000000000000000000000000000000000000081526004016103c490612336565b60405180910390fd5b60018160080160006101000a81548160ff021916908315150217905550600073ffffffffffffffffffffffffffffffffffffffff168160060160009054906101000a900473ffffffffffffffffffffffffffffffffffffffff1673ffffffffffffffffffffffffffffffffffffffff16146105185760008160060160009054906101000a900473ffffffffffffffffffffffffffffffffffffffff1673ffffffffffffffffffffffffffffffffffffffff16826007015460405161049090612387565b60006040518083038185875af1925050503d80600081146104cd576040519150601f19603f3d011682016040523d82523d6000602084013e6104d2565b606091505b5050905080610516576040517f08c379a000000000000000000000000000000000000000000000000000000000815260040161050d9061240e565b60405180910390fd5b505b8060010160009054906101000a900473ffffffffffffffffffffffffffffffffffffffff1673ffffffffffffffffffffffffffffffffffffffff166108fc349081150290604051600060405180830381858888f19350505050158015610582573d6000803e3d6000fd5b507f713f19a7f9a1e0c7daa8679ac03a7574d05a0fa17776c383c91aafff17c7f3568233346040516105b69392919061242e565b60405180910390a15050565b600060405180610120016040528060008054905081526020013373ffffffffffffffffffffffffffffffffffffffff168152602001878152602001868152602001858152602001848152602001600073ffffffffffffffffffffffffffffffffffffffff168152602001600081526020016000151581525090806001815401808255809150506001900390600052602060002090600902016000909190919091506000820151816000015560208201518160010160006101000a81548173ffffffffffffffffffffffffffffffffffffffff021916908373ffffffffffffffffffffffffffffffffffffffff16021790555060408201518160020190816106c99190612671565b5060608201518160030190816106df9190612671565b506080820151816004015560a0820151816005015560c08201518160060160006101000a81548173ffffffffffffffffffffffffffffffffffffffff021916908373ffffffffffffffffffffffffffffffffffffffff16021790555060e082015181600701556101008201518160080160006101000a81548160ff02191690831515021790555050507f5bf34ed94988e5dcdc7d1faaa54eb1d3b55f45d5f11457e235afb21a8ebbe73c600160008054905061079b9190612772565b8685856040516107ae94939291906127a6565b60405180910390a15050505050565b6060600260003373ffffffffffffffffffffffffffffffffffffffff1673ffffffffffffffffffffffffffffffffffffffff16815260200190815260200160002060009054906101000a900460ff1661084b576040517f08c379a00000000000000000000000000000000000000000000000000000000081526004016108429061283e565b60405180910390fd5b6000805b6000805490508110156108f6573373ffffffffffffffffffffffffffffffffffffffff16600082815481106108875761088661224f565b5b906000526020600020906009020160010160009054906101000a900473ffffffffffffffffffffffffffffffffffffffff1673ffffffffffffffffffffffffffffffffffffffff16036108e35781806108df9061285e565b9250505b80806108ee9061285e565b91505061084f565b5060008167ffffffffffffffff81111561091357610912611ac2565b5b60405190808252806020026020018201604052801561094c57816020015b610939611986565b8152602001906001900390816109315790505b5090506000805b600080549050811015610c59573373ffffffffffffffffffffffffffffffffffffffff166000828154811061098b5761098a61224f565b5b906000526020600020906009020160010160009054906101000a900473ffffffffffffffffffffffffffffffffffffffff1673ffffffffffffffffffffffffffffffffffffffff1603610c4657600081815481106109ec576109eb61224f565b5b906000526020600020906009020160405180610120016040529081600082015481526020016001820160009054906101000a900473ffffffffffffffffffffffffffffffffffffffff1673ffffffffffffffffffffffffffffffffffffffff1673ffffffffffffffffffffffffffffffffffffffff168152602001600282018054610a7690612494565b80601f0160208091040260200160405190810160405280929190818152602001828054610aa290612494565b8015610aef5780601f10610ac457610100808354040283529160200191610aef565b820191906000526020600020905b815481529060010190602001808311610ad257829003601f168201915b50505050508152602001600382018054610b0890612494565b80601f0160208091040260200160405190810160405280929190818152602001828054610b3490612494565b8015610b815780601f10610b5657610100808354040283529160200191610b81565b820191906000526020600020905b815481529060010190602001808311610b6457829003601f168201915b5050505050815260200160048201548152602001600582015481526020016006820160009054906101000a900473ffffffffffffffffffffffffffffffffffffffff1673ffffffffffffffffffffffffffffffffffffffff1673ffffffffffffffffffffffffffffffffffffffff168152602001600782015481526020016008820160009054906101000a900460ff161515151581525050838381518110610c2c57610c2b61224f565b5b60200260200101819052508180610c429061285e565b9250505b8080610c519061285e565b915050610953565b5081935050505090565b6000805490508110610caa576040517f08c379a0000000000000000000000000000000000000000000000000000000008152600401610ca19061222f565b60405180910390fd5b6000808281548110610cbf57610cbe61224f565b5b906000526020600020906009020190508060080160009054906101000a900460ff1615610d21576040517f08c379a0000000000000000000000000000000000000000000000000000000008152600401610d18906128f2565b60405180910390fd5b3373ffffffffffffffffffffffffffffffffffffffff168160010160009054906101000a900473ffffffffffffffffffffffffffffffffffffffff1673ffffffffffffffffffffffffffffffffffffffff1603610db3576040517f08c379a0000000000000000000000000000000000000000000000000000000008152600401610daa90612984565b60405180910390fd5b8060040154341015610dfa576040517f08c379a0000000000000000000000000000000000000000000000000000000008152600401610df190612a16565b60405180910390fd5b80600701543411610e40576040517f08c379a0000000000000000000000000000000000000000000000000000000008152600401610e3790612a82565b60405180910390fd5b80600501543410610e86576040517f08c379a0000000000000000000000000000000000000000000000000000000008152600401610e7d90612aee565b60405180910390fd5b600073ffffffffffffffffffffffffffffffffffffffff168160060160009054906101000a900473ffffffffffffffffffffffffffffffffffffffff1673ffffffffffffffffffffffffffffffffffffffff1614610fb45760008160060160009054906101000a900473ffffffffffffffffffffffffffffffffffffffff1673ffffffffffffffffffffffffffffffffffffffff168260070154604051610f2c90612387565b60006040518083038185875af1925050503d8060008114610f69576040519150601f19603f3d011682016040523d82523d6000602084013e610f6e565b606091505b5050905080610fb2576040517f08c379a0000000000000000000000000000000000000000000000000000000008152600401610fa99061240e565b60405180910390fd5b505b338160060160006101000a81548173ffffffffffffffffffffffffffffffffffffffff021916908373ffffffffffffffffffffffffffffffffffffffff1602179055503481600701819055507fda0a18da71d8ebd145966339a728fc0d8ccc07c22870d561890d823c515dda6b8233346040516110339392919061242e565b60405180910390a1806005015434106110505761104f8261181c565b5b5050565b61105c611a00565b600260008373ffffffffffffffffffffffffffffffffffffffff1673ffffffffffffffffffffffffffffffffffffffff16815260200190815260200160002060009054906101000a900460ff166110e8576040517f08c379a00000000000000000000000000000000000000000000000000000000081526004016110df9061283e565b60405180910390fd5b600160008373ffffffffffffffffffffffffffffffffffffffff1673ffffffffffffffffffffffffffffffffffffffff16815260200190815260200160002060405180604001604052908160008201805461114290612494565b80601f016020809104026020016040519081016040528092919081815260200182805461116e90612494565b80156111bb5780601f10611190576101008083540402835291602001916111bb565b820191906000526020600020905b81548152906001019060200180831161119e57829003601f168201915b505050505081526020016001820160009054906101000a900473ffffffffffffffffffffffffffffffffffffffff1673ffffffffffffffffffffffffffffffffffffffff1673ffffffffffffffffffffffffffffffffffffffff16815250509050919050565b600260003373ffffffffffffffffffffffffffffffffffffffff1673ffffffffffffffffffffffffffffffffffffffff16815260200190815260200160002060009054906101000a900460ff16156112ae576040517f08c379a00000000000000000000000000000000000000000000000000000000081526004016112a590612b5a565b60405180910390fd5b60405180604001604052808281526020013373ffffffffffffffffffffffffffffffffffffffff16815250600160003373ffffffffffffffffffffffffffffffffffffffff1673ffffffffffffffffffffffffffffffffffffffff168152602001908152602001600020600082015181600001908161132d9190612671565b5060208201518160010160006101000a81548173ffffffffffffffffffffffffffffffffffffffff021916908373ffffffffffffffffffffffffffffffffffffffff1602179055509050506001600260003373ffffffffffffffffffffffffffffffffffffffff1673ffffffffffffffffffffffffffffffffffffffff16815260200190815260200160002060006101000a81548160ff0219169083151502179055507f48cac28ad4dc618e15f4c2dd5e97751182f166de97b25618318b2112aa951a2f3382604051611401929190612b7a565b60405180910390a150565b600160205280600052604060002060009150905080600001805461142f90612494565b80601f016020809104026020016040519081016040528092919081815260200182805461145b90612494565b80156114a85780601f1061147d576101008083540402835291602001916114a8565b820191906000526020600020905b81548152906001019060200180831161148b57829003601f168201915b5050505050908060010160009054906101000a900473ffffffffffffffffffffffffffffffffffffffff16905082565b600080549050811061151f576040517f08c379a00000000000000000000000000000000000000000000000000000000081526004016115169061222f565b60405180910390fd5b60008082815481106115345761153361224f565b5b906000526020600020906009020190508060010160009054906101000a900473ffffffffffffffffffffffffffffffffffffffff1673ffffffffffffffffffffffffffffffffffffffff163373ffffffffffffffffffffffffffffffffffffffff16146115d6576040517f08c379a00000000000000000000000000000000000000000000000000000000081526004016115cd90612c1c565b60405180910390fd5b8060080160009054906101000a900460ff1615611628576040517f08c379a000000000000000000000000000000000000000000000000000000000815260040161161f906128f2565b60405180910390fd5b6116318261181c565b5050565b60026020528060005260406000206000915054906101000a900460ff1681565b6000818154811061166557600080fd5b90600052602060002090600902016000915090508060000154908060010160009054906101000a900473ffffffffffffffffffffffffffffffffffffffff16908060020180546116b490612494565b80601f01602080910402602001604051908101604052809291908181526020018280546116e090612494565b801561172d5780601f106117025761010080835404028352916020019161172d565b820191906000526020600020905b81548152906001019060200180831161171057829003601f168201915b50505050509080600301805461174290612494565b80601f016020809104026020016040519081016040528092919081815260200182805461176e90612494565b80156117bb5780601f10611790576101008083540402835291602001916117bb565b820191906000526020600020905b81548152906001019060200180831161179e57829003601f168201915b5050505050908060040154908060050154908060060160009054906101000a900473ffffffffffffffffffffffffffffffffffffffff16908060070154908060080160009054906101000a900460ff16905089565b60008080549050905090565b60008082815481106118315761183061224f565b5b906000526020600020906009020190508060080160009054906101000a900460ff1615611893576040517f08c379a000000000000000000000000000000000000000000000000000000000815260040161188a90612cae565b60405180910390fd5b60018160080160006101000a81548160ff0219169083151502179055508060010160009054906101000a900473ffffffffffffffffffffffffffffffffffffffff1673ffffffffffffffffffffffffffffffffffffffff166108fc82600701549081150290604051600060405180830381858888f1935050505015801561191e573d6000803e3d6000fd5b507fd2aa34a4fdbbc6dff6a3e56f46e0f3ae2a31d7785ff3487aa5c95c642acea501828260060160009054906101000a900473ffffffffffffffffffffffffffffffffffffffff16836007015460405161197a9392919061242e565b60405180910390a15050565b60405180610120016040528060008152602001600073ffffffffffffffffffffffffffffffffffffffff16815260200160608152602001606081526020016000815260200160008152602001600073ffffffffffffffffffffffffffffffffffffffff168152602001600081526020016000151581525090565b604051806040016040528060608152602001600073ffffffffffffffffffffffffffffffffffffffff1681525090565b6000604051905090565b600080fd5b600080fd5b6000819050919050565b611a5781611a44565b8114611a6257600080fd5b50565b600081359050611a7481611a4e565b92915050565b600060208284031215611a9057611a8f611a3a565b5b6000611a9e84828501611a65565b91505092915050565b600080fd5b600080fd5b6000601f19601f8301169050919050565b7f4e487b7100000000000000000000000000000000000000000000000000000000600052604160045260246000fd5b611afa82611ab1565b810181811067ffffffffffffffff82111715611b1957611b18611ac2565b5b80604052505050565b6000611b2c611a30565b9050611b388282611af1565b919050565b600067ffffffffffffffff821115611b5857611b57611ac2565b5b611b6182611ab1565b9050602081019050919050565b82818337600083830152505050565b6000611b90611b8b84611b3d565b611b22565b905082815260208101848484011115611bac57611bab611aac565b5b611bb7848285611b6e565b509392505050565b600082601f830112611bd457611bd3611aa7565b5b8135611be4848260208601611b7d565b91505092915050565b600080600080600060a08688031215611c0957611c08611a3a565b5b600086013567ffffffffffffffff811115611c2757611c26611a3f565b5b611c3388828901611bbf565b955050602086013567ffffffffffffffff811115611c5457611c53611a3f565b5b611c6088828901611bbf565b9450506040611c7188828901611a65565b9350506060611c8288828901611a65565b9250506080611c9388828901611a65565b9150509295509295909350565b600081519050919050565b600082825260208201905092915050565b6000819050602082019050919050565b611cd581611a44565b82525050565b600073ffffffffffffffffffffffffffffffffffffffff82169050919050565b6000611d0682611cdb565b9050919050565b611d1681611cfb565b82525050565b600081519050919050565b600082825260208201905092915050565b60005b83811015611d56578082015181840152602081019050611d3b565b60008484015250505050565b6000611d6d82611d1c565b611d778185611d27565b9350611d87818560208601611d38565b611d9081611ab1565b840191505092915050565b6000611da682611cdb565b9050919050565b611db681611d9b565b82525050565b60008115159050919050565b611dd181611dbc565b82525050565b600061012083016000830151611df06000860182611ccc565b506020830151611e036020860182611d0d565b5060408301518482036040860152611e1b8282611d62565b91505060608301518482036060860152611e358282611d62565b9150506080830151611e4a6080860182611ccc565b5060a0830151611e5d60a0860182611ccc565b5060c0830151611e7060c0860182611dad565b5060e0830151611e8360e0860182611ccc565b50610100830151611e98610100860182611dc8565b508091505092915050565b6000611eaf8383611dd7565b905092915050565b6000602082019050919050565b6000611ecf82611ca0565b611ed98185611cab565b935083602082028501611eeb85611cbc565b8060005b85811015611f275784840389528151611f088582611ea3565b9450611f1383611eb7565b925060208a01995050600181019050611eef565b50829750879550505050505092915050565b60006020820190508181036000830152611f538184611ec4565b905092915050565b611f6481611d9b565b8114611f6f57600080fd5b50565b600081359050611f8181611f5b565b92915050565b600060208284031215611f9d57611f9c611a3a565b5b6000611fab84828501611f72565b91505092915050565b60006040830160008301518482036000860152611fd18282611d62565b9150506020830151611fe66020860182611dad565b508091505092915050565b6000602082019050818103600083015261200b8184611fb4565b905092915050565b60006020828403121561202957612028611a3a565b5b600082013567ffffffffffffffff81111561204757612046611a3f565b5b61205384828501611bbf565b91505092915050565b600082825260208201905092915050565b600061207882611d1c565b612082818561205c565b9350612092818560208601611d38565b61209b81611ab1565b840191505092915050565b6120af81611d9b565b82525050565b600060408201905081810360008301526120cf818561206d565b90506120de60208301846120a6565b9392505050565b6120ee81611dbc565b82525050565b600060208201905061210960008301846120e5565b92915050565b61211881611a44565b82525050565b61212781611cfb565b82525050565b600061012082019050612143600083018c61210f565b612150602083018b61211e565b8181036040830152612162818a61206d565b90508181036060830152612176818961206d565b9050612185608083018861210f565b61219260a083018761210f565b61219f60c08301866120a6565b6121ac60e083018561210f565b6121ba6101008301846120e5565b9a9950505050505050505050565b60006020820190506121dd600083018461210f565b92915050565b7f496e76616c6964204974656d2049440000000000000000000000000000000000600082015250565b6000612219600f8361205c565b9150612224826121e3565b602082019050919050565b600060208201905081810360008301526122488161220c565b9050919050565b7f4e487b7100000000000000000000000000000000000000000000000000000000600052603260045260246000fd5b7f41756374696f6e20616c726561647920656e6465642e00000000000000000000600082015250565b60006122b460168361205c565b91506122bf8261227e565b602082019050919050565b600060208201905081810360008301526122e3816122a7565b9050919050565b7f4275796f7574207072696365206e6f74206d65742e0000000000000000000000600082015250565b600061232060158361205c565b915061232b826122ea565b602082019050919050565b6000602082019050818103600083015261234f81612313565b9050919050565b600081905092915050565b50565b6000612371600083612356565b915061237c82612361565b600082019050919050565b600061239282612364565b9150819050919050565b7f526566756e6420746f2070726576696f7573206869676865737420626964646560008201527f72206661696c6564000000000000000000000000000000000000000000000000602082015250565b60006123f860288361205c565b91506124038261239c565b604082019050919050565b60006020820190508181036000830152612427816123eb565b9050919050565b6000606082019050612443600083018661210f565b61245060208301856120a6565b61245d604083018461210f565b949350505050565b7f4e487b7100000000000000000000000000000000000000000000000000000000600052602260045260246000fd5b600060028204905060018216806124ac57607f821691505b6020821081036124bf576124be612465565b5b50919050565b60008190508160005260206000209050919050565b60006020601f8301049050919050565b600082821b905092915050565b6000600883026125277fffffffffffffffffffffffffffffffffffffffffffffffffffffffffffffffff826124ea565b61253186836124ea565b95508019841693508086168417925050509392505050565b6000819050919050565b600061256e61256961256484611a44565b612549565b611a44565b9050919050565b6000819050919050565b61258883612553565b61259c61259482612575565b8484546124f7565b825550505050565b600090565b6125b16125a4565b6125bc81848461257f565b505050565b5b818110156125e0576125d56000826125a9565b6001810190506125c2565b5050565b601f821115612625576125f6816124c5565b6125ff846124da565b8101602085101561260e578190505b61262261261a856124da565b8301826125c1565b50505b505050565b600082821c905092915050565b60006126486000198460080261262a565b1980831691505092915050565b60006126618383612637565b9150826002028217905092915050565b61267a82611d1c565b67ffffffffffffffff81111561269357612692611ac2565b5b61269d8254612494565b6126a88282856125e4565b600060209050601f8311600181146126db57600084156126c9578287015190505b6126d38582612655565b86555061273b565b601f1984166126e9866124c5565b60005b82811015612711578489015182556001820191506020850194506020810190506126ec565b8683101561272e578489015161272a601f891682612637565b8355505b6001600288020188555050505b505050505050565b7f4e487b7100000000000000000000000000000000000000000000000000000000600052601160045260246000fd5b600061277d82611a44565b915061278883611a44565b92508282039050818111156127a05761279f612743565b5b92915050565b60006080820190506127bb600083018761210f565b81810360208301526127cd818661206d565b90506127dc604083018561210f565b6127e9606083018461210f565b95945050505050565b7f55736572206e6f7420726567697374657265642e000000000000000000000000600082015250565b600061282860148361205c565b9150612833826127f2565b602082019050919050565b600060208201905081810360008301526128578161281b565b9050919050565b600061286982611a44565b91507fffffffffffffffffffffffffffffffffffffffffffffffffffffffffffffffff820361289b5761289a612743565b5b600182019050919050565b7f41756374696f6e20616c726561647920656e6465640000000000000000000000600082015250565b60006128dc60158361205c565b91506128e7826128a6565b602082019050919050565b6000602082019050818103600083015261290b816128cf565b9050919050565b7f596f752063616e6e6f7420626964206f6e20796f7572206f776e20617563746960008201527f6f6e000000000000000000000000000000000000000000000000000000000000602082015250565b600061296e60228361205c565b915061297982612912565b604082019050919050565b6000602082019050818103600083015261299d81612961565b9050919050565b7f426964206d7573742062652067726561746572207468616e206f72206571756160008201527f6c20746f206d696e696d756d2062696400000000000000000000000000000000602082015250565b6000612a0060308361205c565b9150612a0b826129a4565b604082019050919050565b60006020820190508181036000830152612a2f816129f3565b9050919050565b7f546865726520616c726561647920697320612068696768657220626964000000600082015250565b6000612a6c601d8361205c565b9150612a7782612a36565b602082019050919050565b60006020820190508181036000830152612a9b81612a5f565b9050919050565b7f4269642063616e6e6f7420626520686967686572207468616e206275796f7574600082015250565b6000612ad860208361205c565b9150612ae382612aa2565b602082019050919050565b60006020820190508181036000830152612b0781612acb565b9050919050565b7f5573657220616c726561647920726567697374657265642e0000000000000000600082015250565b6000612b4460188361205c565b9150612b4f82612b0e565b602082019050919050565b60006020820190508181036000830152612b7381612b37565b9050919050565b6000604082019050612b8f60008301856120a6565b8181036020830152612ba1818461206d565b90509392505050565b7f4f6e6c79207468652073656c6c65722063616e20656e6420746869732061756360008201527f74696f6e00000000000000000000000000000000000000000000000000000000602082015250565b6000612c0660248361205c565b9150612c1182612baa565b604082019050919050565b60006020820190508181036000830152612c3581612bf9565b9050919050565b7f41756374696f6e20656e642068617320616c7265616479206265656e2063616c60008201527f6c65640000000000000000000000000000000000000000000000000000000000602082015250565b6000612c9860238361205c565b9150612ca382612c3c565b604082019050919050565b60006020820190508181036000830152612cc781612c8b565b905091905056fea26469706673582212207897a0e715b14d7aa674315920e92db6539eb5c073665e7d160ebc37846a6d0164736f6c63430008130033",
  "immutableReferences": {},
  "source": "// SPDX-License-Identifier: MIT\npragma solidity ^0.8.0;\n\ncontract DecentralizedAuction {\n    struct Item {\n        uint id;\n        address payable seller;\n        string name;\n        string imageUrl;\n        uint minBid;\n        uint buyoutPrice;\n        //uint auctionEndTime;\n        address highestBidder;\n        uint highestBid;\n        bool ended;\n    }\n\n    struct User {\n        string username;\n        address walletAddress;\n    }\n\n    struct Refund{\n        address toWallet;\n        uint amount;\n    }\n\n    Item[] public items;\n    mapping(address => User) public users;\n    mapping(address => bool) public registered;\n    // mapping(address => Refund[]) public pendingReturns;\n\n    event UserRegistered(address userAddress, string username);\n    //event AuctionCreated(uint itemId, string name, uint minBid, uint buyoutPrice, uint auctionEndTime);\n    event AuctionCreated(uint itemId, string name, uint minBid, uint buyoutPrice);\n    event HighestBidIncreased(uint itemId, address bidder, uint amount);\n    event AuctionEnded(uint itemId, address winner, uint amount);\n    event ItemBoughtOut(uint itemId, address buyer, uint amount);\n    \n    constructor() {\n        // addItem(\"Vintage Phone\", \"https://m.media-amazon.com/images/I/71tQC-279uL.jpg\", 1 ether, 5 ether, 180 minutes);\n        // addItem(\"Record Player\", \"https://ii1.pepperfry.com/media/catalog/product/g/o/494x544/gold-brass-and-wood-embossed-horn-and-gramophone-by-exim-decor-gold-brass-and-wood-embossed-horn-and-fjizt5.jpg\", 2 ether, 7 ether, 180 minutes);\n        // addItem(\"Aladdin Movie Prop\", \"https://multiwood.com.pk/cdn/shop/products/Picsart_22-10-23_03-53-33-812_1000x1000.jpg?v=1666479726\", 3 ether, 10 ether, 180 minutes);\n        // addItem(\"Sword\", \"https://www.swordsantiqueweapons.com/images/s2331b.jpg\", 3 ether, 10 ether, 1 minutes);\n        // addItem(\"Flintlock\", \"https://www.hemswell-antiques.com/uploads/media/news/0001/95/thumb_94739_news_wide.jpeg\", 3 ether, 10 ether, 3 minutes);\n        // addItem(\"James Bond's DB5\", \"https://www.007.com/wp-content/uploads/2022/08/LCC-LS.jpg\", 3 ether, 10 ether, 5 minutes);\n        // addItem(\"Commodore PET\", \"https://i.redd.it/om995fq8j8ua1.jpg\", 3 ether, 10 ether, 5 minutes);\n        // addItem(\"HP Palmtop\", \"https://i.pcmag.com/imagery/lineupitems/06sRck1AimbfOxWwRYvEBqX.fit_lim.size_1050x578.v1569508748.jpg\", 3 ether, 10 ether, 5 minutes);\n    }\n\n    function registerUser(string memory _username) public {\n        require(!registered[msg.sender], \"User already registered.\");\n        users[msg.sender] = User(_username, msg.sender);\n        registered[msg.sender] = true;\n        emit UserRegistered(msg.sender, _username);\n    }\n\n    function getUser(address _userAddress) public view returns (User memory) {\n        require(registered[_userAddress], \"User not registered.\");\n        return users[_userAddress];\n    }\n\n    function addItem(string memory name, string memory imageUrl, uint minBid, uint buyoutPrice, uint biddingTime) public {\n        //uint auctionEndTime = block.timestamp + biddingTime;\n        items.push(Item({\n            id: items.length,\n            seller: payable(msg.sender),\n            name: name,\n            imageUrl: imageUrl,\n            minBid: minBid,\n            buyoutPrice: buyoutPrice,\n            //auctionEndTime: auctionEndTime,\n            highestBidder: address(0),\n            highestBid: 0,\n            ended: false\n        }));\n        //emit AuctionCreated(items.length - 1, name, minBid, buyoutPrice, auctionEndTime);\n        emit AuctionCreated(items.length - 1, name, minBid, buyoutPrice);\n    }\n\n    function bid(uint itemId) public payable {\n        require(itemId < items.length, \"Invalid Item ID\");\n        Item storage item = items[itemId];\n        require(!item.ended, \"Auction already ended\");\n        require(item.seller != msg.sender, \"You cannot bid on your own auction\");\n        require(msg.value >= item.minBid, \"Bid must be greater than or equal to minimum bid\");\n        require(msg.value > item.highestBid, \"There already is a higher bid\");\n        require(msg.value < item.buyoutPrice, \"Bid cannot be higher than buyout\");\n\n        // Refund the previous highest bidder automatically\n        if (item.highestBidder != address(0)) {\n            (bool success, ) = item.highestBidder.call{value: item.highestBid}(\"\");\n            require(success, \"Refund to previous highest bidder failed\");\n        }\n\n        // Update the highest bidder and highest bid\n        item.highestBidder = payable(msg.sender);\n        item.highestBid = msg.value;\n\n        emit HighestBidIncreased(itemId, msg.sender, msg.value);\n\n        // Check if the bid meets the buyout price\n        if (msg.value >= item.buyoutPrice) {\n            endAuction(itemId);\n        }\n    }\n\n\n    function buyout(uint itemId) public payable {\n        require(itemId < items.length, \"Invalid Item ID\");\n        Item storage item = items[itemId];\n        //require(block.timestamp < item.auctionEndTime, \"Auction already ended.\");\n        require(!items[itemId].ended, \"Auction already ended.\");\n        require(msg.value >= item.buyoutPrice, \"Buyout price not met.\");\n        \n        item.ended = true;\n        //item.auctionEndTime = block.timestamp;\n        \n        // pendingReturns[item.highestBidder] += item.highestBid;\n\n        if (item.highestBidder != address(0)) {\n            (bool success, ) = item.highestBidder.call{value: item.highestBid}(\"\");\n            require(success, \"Refund to previous highest bidder failed\");\n        }\n\n        item.seller.transfer(msg.value);\n        \n        emit ItemBoughtOut(itemId, msg.sender, msg.value);\n    }\n\n    // function withdraw() public returns (uint) {\n    //     uint amount = pendingReturns[msg.sender];\n    //     if (amount > 0) {\n    //         pendingReturns[msg.sender] = 0;\n    //         if (!payable(msg.sender).send(amount)) {\n    //             pendingReturns[msg.sender] = amount;\n    //             return 0;\n    //         }\n    //     }\n    //     return amount;\n    // }\n\n\n    function endAuction(uint itemId) internal {\n        Item storage item = items[itemId];\n        require(!item.ended, \"Auction end has already been called\");\n\n        item.ended = true;\n\n        // Transfer the highest bid amount to the seller\n        item.seller.transfer(item.highestBid);\n\n        emit AuctionEnded(itemId, item.highestBidder, item.highestBid);\n    }\n\n\n    // Function to manually end the auction\n    function manualEndAuction(uint itemId) public {\n        require(itemId < items.length, \"Invalid Item ID\");\n        Item storage item = items[itemId];\n        require(msg.sender == item.seller, \"Only the seller can end this auction\");\n        require(!item.ended, \"Auction already ended\");\n\n        endAuction(itemId);\n    }\n\n\n    function itemsCount() public view returns (uint) {\n        return items.length;\n    }\n\n    // Retrieve all user items\n    function getAllUserItems() public view returns (Item[] memory) {\n        require(registered[msg.sender], \"User not registered.\");\n\n        // Count the user's items\n        uint count = 0;\n        for (uint index = 0; index < items.length; index++) {\n            if (items[index].seller == msg.sender) {\n                count++;\n            }\n        }\n\n        // Allocate a memory array for the user's items\n        Item[] memory list = new Item[](count);\n\n        uint counter = 0;\n        for (uint index = 0; index < items.length; index++) {\n            if (items[index].seller == msg.sender) {\n                list[counter] = items[index];\n                counter++;\n            }\n        }\n\n        return list;\n    }\n}\n",
  "sourcePath": "/home/farazmajid/Documents/Decentralized-Auction/backend/contracts/DecentralizedAuction.sol",
  "compiler": {
    "name": "solc",
    "version": "0.8.19+commit.7dd6d404.Emscripten.clang"
  },
  "schemaVersion": "3.4.16",
  "updatedAt": "2024-05-09T09:25:53.930Z",
  "networkType": "ethereum",
  "devdoc": {
    "kind": "dev",
    "methods": {},
    "version": 1
  },
  "userdoc": {
    "kind": "user",
    "methods": {},
    "version": 1
  }
}