{
  "contractName": "DecentralizedAuction",
  "abi": [
    {
      "inputs": [],
      "stateMutability": "nonpayable",
      "type": "constructor"
    },
    {
      "anonymous": false,
      "inputs": [
        {
          "indexed": false,
          "internalType": "uint256",
          "name": "itemId",
          "type": "uint256"
        },
        {
          "indexed": false,
          "internalType": "string",
          "name": "name",
          "type": "string"
        },
        {
          "indexed": false,
          "internalType": "uint256",
          "name": "minBid",
          "type": "uint256"
        },
        {
          "indexed": false,
          "internalType": "uint256",
          "name": "buyoutPrice",
          "type": "uint256"
        }
      ],
      "name": "AuctionCreated",
      "type": "event"
    },
    {
      "anonymous": false,
      "inputs": [
        {
          "indexed": false,
          "internalType": "uint256",
          "name": "itemId",
          "type": "uint256"
        },
        {
          "indexed": false,
          "internalType": "address",
          "name": "winner",
          "type": "address"
        },
        {
          "indexed": false,
          "internalType": "uint256",
          "name": "amount",
          "type": "uint256"
        }
      ],
      "name": "AuctionEnded",
      "type": "event"
    },
    {
      "anonymous": false,
      "inputs": [
        {
          "indexed": false,
          "internalType": "uint256",
          "name": "itemId",
          "type": "uint256"
        },
        {
          "indexed": false,
          "internalType": "address",
          "name": "bidder",
          "type": "address"
        },
        {
          "indexed": false,
          "internalType": "uint256",
          "name": "amount",
          "type": "uint256"
        }
      ],
      "name": "HighestBidIncreased",
      "type": "event"
    },
    {
      "anonymous": false,
      "inputs": [
        {
          "indexed": false,
          "internalType": "uint256",
          "name": "itemId",
          "type": "uint256"
        },
        {
          "indexed": false,
          "internalType": "address",
          "name": "buyer",
          "type": "address"
        },
        {
          "indexed": false,
          "internalType": "uint256",
          "name": "amount",
          "type": "uint256"
        }
      ],
      "name": "ItemBoughtOut",
      "type": "event"
    },
    {
      "anonymous": false,
      "inputs": [
        {
          "indexed": false,
          "internalType": "address",
          "name": "userAddress",
          "type": "address"
        },
        {
          "indexed": false,
          "internalType": "string",
          "name": "username",
          "type": "string"
        }
      ],
      "name": "UserRegistered",
      "type": "event"
    },
    {
      "inputs": [
        {
          "internalType": "uint256",
          "name": "",
          "type": "uint256"
        }
      ],
      "name": "items",
      "outputs": [
        {
          "internalType": "uint256",
          "name": "id",
          "type": "uint256"
        },
        {
          "internalType": "address payable",
          "name": "seller",
          "type": "address"
        },
        {
          "internalType": "string",
          "name": "name",
          "type": "string"
        },
        {
          "internalType": "string",
          "name": "imageUrl",
          "type": "string"
        },
        {
          "internalType": "uint256",
          "name": "minBid",
          "type": "uint256"
        },
        {
          "internalType": "uint256",
          "name": "buyoutPrice",
          "type": "uint256"
        },
        {
          "internalType": "address",
          "name": "highestBidder",
          "type": "address"
        },
        {
          "internalType": "uint256",
          "name": "highestBid",
          "type": "uint256"
        },
        {
          "internalType": "bool",
          "name": "ended",
          "type": "bool"
        }
      ],
      "stateMutability": "view",
      "type": "function",
      "constant": true
    },
    {
      "inputs": [
        {
          "internalType": "address",
          "name": "",
          "type": "address"
        }
      ],
      "name": "pendingReturns",
      "outputs": [
        {
          "internalType": "uint256",
          "name": "",
          "type": "uint256"
        }
      ],
      "stateMutability": "view",
      "type": "function",
      "constant": true
    },
    {
      "inputs": [
        {
          "internalType": "address",
          "name": "",
          "type": "address"
        }
      ],
      "name": "registered",
      "outputs": [
        {
          "internalType": "bool",
          "name": "",
          "type": "bool"
        }
      ],
      "stateMutability": "view",
      "type": "function",
      "constant": true
    },
    {
      "inputs": [
        {
          "internalType": "address",
          "name": "",
          "type": "address"
        }
      ],
      "name": "users",
      "outputs": [
        {
          "internalType": "string",
          "name": "username",
          "type": "string"
        },
        {
          "internalType": "address",
          "name": "walletAddress",
          "type": "address"
        }
      ],
      "stateMutability": "view",
      "type": "function",
      "constant": true
    },
    {
      "inputs": [
        {
          "internalType": "string",
          "name": "_username",
          "type": "string"
        }
      ],
      "name": "registerUser",
      "outputs": [],
      "stateMutability": "nonpayable",
      "type": "function"
    },
    {
      "inputs": [
        {
          "internalType": "address",
          "name": "_userAddress",
          "type": "address"
        }
      ],
      "name": "getUser",
      "outputs": [
        {
          "components": [
            {
              "internalType": "string",
              "name": "username",
              "type": "string"
            },
            {
              "internalType": "address",
              "name": "walletAddress",
              "type": "address"
            }
          ],
          "internalType": "struct DecentralizedAuction.User",
          "name": "",
          "type": "tuple"
        }
      ],
      "stateMutability": "view",
      "type": "function",
      "constant": true
    },
    {
      "inputs": [
        {
          "internalType": "string",
          "name": "name",
          "type": "string"
        },
        {
          "internalType": "string",
          "name": "imageUrl",
          "type": "string"
        },
        {
          "internalType": "uint256",
          "name": "minBid",
          "type": "uint256"
        },
        {
          "internalType": "uint256",
          "name": "buyoutPrice",
          "type": "uint256"
        },
        {
          "internalType": "uint256",
          "name": "biddingTime",
          "type": "uint256"
        }
      ],
      "name": "addItem",
      "outputs": [],
      "stateMutability": "nonpayable",
      "type": "function"
    },
    {
      "inputs": [
        {
          "internalType": "uint256",
          "name": "itemId",
          "type": "uint256"
        }
      ],
      "name": "bid",
      "outputs": [],
      "stateMutability": "payable",
      "type": "function",
      "payable": true
    },
    {
      "inputs": [],
      "name": "withdraw",
      "outputs": [
        {
          "internalType": "bool",
          "name": "",
          "type": "bool"
        }
      ],
      "stateMutability": "nonpayable",
      "type": "function"
    },
    {
      "inputs": [
        {
          "internalType": "uint256",
          "name": "itemId",
          "type": "uint256"
        }
      ],
      "name": "buyout",
      "outputs": [],
      "stateMutability": "payable",
      "type": "function",
      "payable": true
    },
    {
      "inputs": [
        {
          "internalType": "uint256",
          "name": "itemId",
          "type": "uint256"
        }
      ],
      "name": "endAuction",
      "outputs": [],
      "stateMutability": "nonpayable",
      "type": "function"
    },
    {
      "inputs": [],
      "name": "itemsCount",
      "outputs": [
        {
          "internalType": "uint256",
          "name": "",
          "type": "uint256"
        }
      ],
      "stateMutability": "view",
      "type": "function",
      "constant": true
    },
    {
      "inputs": [],
      "name": "getAllUserItems",
      "outputs": [
        {
          "components": [
            {
              "internalType": "uint256",
              "name": "id",
              "type": "uint256"
            },
            {
              "internalType": "address payable",
              "name": "seller",
              "type": "address"
            },
            {
              "internalType": "string",
              "name": "name",
              "type": "string"
            },
            {
              "internalType": "string",
              "name": "imageUrl",
              "type": "string"
            },
            {
              "internalType": "uint256",
              "name": "minBid",
              "type": "uint256"
            },
            {
              "internalType": "uint256",
              "name": "buyoutPrice",
              "type": "uint256"
            },
            {
              "internalType": "address",
              "name": "highestBidder",
              "type": "address"
            },
            {
              "internalType": "uint256",
              "name": "highestBid",
              "type": "uint256"
            },
            {
              "internalType": "bool",
              "name": "ended",
              "type": "bool"
            }
          ],
          "internalType": "struct DecentralizedAuction.Item[]",
          "name": "",
          "type": "tuple[]"
        }
      ],
      "stateMutability": "view",
      "type": "function",
      "constant": true
    }
  ],
  "bytecode": "0x60806040523480156200001157600080fd5b50620000876040518060400160405280600d81526020017f56696e746167652050686f6e65000000000000000000000000000000000000008152506040518060600160405280603381526020016200338060339139670de0b6b3a7640000674563918244f40000612a30620003be60201b60201c565b620000fc6040518060400160405280600d81526020017f5265636f726420506c61796572000000000000000000000000000000000000008152506040518060e0016040528060ab81526020016200324d60ab9139671bc16d674ec80000676124fee993bc0000612a30620003be60201b60201c565b620001716040518060400160405280601281526020017f416c616464696e204d6f7669652050726f7000000000000000000000000000008152506040518060a00160405280606381526020016200315a606391396729a2241af62c0000678ac7230489e80000612a30620003be60201b60201c565b620001e56040518060400160405280600581526020017f53776f726400000000000000000000000000000000000000000000000000000081525060405180606001604052806036815260200162003124603691396729a2241af62c0000678ac7230489e80000603c620003be60201b60201c565b620002596040518060400160405280600981526020017f466c696e746c6f636b0000000000000000000000000000000000000000000000815250604051806080016040528060578152602001620031f6605791396729a2241af62c0000678ac7230489e8000060b4620003be60201b60201c565b620002ce6040518060400160405280601081526020017f4a616d657320426f6e6427732044423500000000000000000000000000000000815250604051806060016040528060398152602001620031bd603991396729a2241af62c0000678ac7230489e8000061012c620003be60201b60201c565b620003436040518060400160405280600d81526020017f436f6d6d6f646f726520504554000000000000000000000000000000000000008152506040518060600160405280602381526020016200335d602391396729a2241af62c0000678ac7230489e8000061012c620003be60201b60201c565b620003b86040518060400160405280600a81526020017f48502050616c6d746f70000000000000000000000000000000000000000000008152506040518060a0016040528060658152602001620032f8606591396729a2241af62c0000678ac7230489e8000061012c620003be60201b60201c565b62000a80565b600060405180610120016040528060008054905081526020013373ffffffffffffffffffffffffffffffffffffffff168152602001878152602001868152602001858152602001848152602001600073ffffffffffffffffffffffffffffffffffffffff168152602001600081526020016000151581525090806001815401808255809150506001900390600052602060002090600902016000909190919091506000820151816000015560208201518160010160006101000a81548173ffffffffffffffffffffffffffffffffffffffff021916908373ffffffffffffffffffffffffffffffffffffffff1602179055506040820151816002019081620004c791906200083b565b506060820151816003019081620004df91906200083b565b506080820151816004015560a0820151816005015560c08201518160060160006101000a81548173ffffffffffffffffffffffffffffffffffffffff021916908373ffffffffffffffffffffffffffffffffffffffff16021790555060e082015181600701556101008201518160080160006101000a81548160ff02191690831515021790555050507f5bf34ed94988e5dcdc7d1faaa54eb1d3b55f45d5f11457e235afb21a8ebbe73c60016000805490506200059d919062000951565b868585604051620005b2949392919062000a2c565b60405180910390a15050505050565b600081519050919050565b7f4e487b7100000000000000000000000000000000000000000000000000000000600052604160045260246000fd5b7f4e487b7100000000000000000000000000000000000000000000000000000000600052602260045260246000fd5b600060028204905060018216806200064357607f821691505b602082108103620006595762000658620005fb565b5b50919050565b60008190508160005260206000209050919050565b60006020601f8301049050919050565b600082821b905092915050565b600060088302620006c37fffffffffffffffffffffffffffffffffffffffffffffffffffffffffffffffff8262000684565b620006cf868362000684565b95508019841693508086168417925050509392505050565b6000819050919050565b6000819050919050565b60006200071c620007166200071084620006e7565b620006f1565b620006e7565b9050919050565b6000819050919050565b6200073883620006fb565b62000750620007478262000723565b84845462000691565b825550505050565b600090565b6200076762000758565b620007748184846200072d565b505050565b5b818110156200079c57620007906000826200075d565b6001810190506200077a565b5050565b601f821115620007eb57620007b5816200065f565b620007c08462000674565b81016020851015620007d0578190505b620007e8620007df8562000674565b83018262000779565b50505b505050565b600082821c905092915050565b60006200081060001984600802620007f0565b1980831691505092915050565b60006200082b8383620007fd565b9150826002028217905092915050565b6200084682620005c1565b67ffffffffffffffff811115620008625762000861620005cc565b5b6200086e82546200062a565b6200087b828285620007a0565b600060209050601f831160018114620008b357600084156200089e578287015190505b620008aa85826200081d565b8655506200091a565b601f198416620008c3866200065f565b60005b82811015620008ed57848901518255600182019150602085019450602081019050620008c6565b868310156200090d578489015162000909601f891682620007fd565b8355505b6001600288020188555050505b505050505050565b7f4e487b7100000000000000000000000000000000000000000000000000000000600052601160045260246000fd5b60006200095e82620006e7565b91506200096b83620006e7565b925082820390508181111562000986576200098562000922565b5b92915050565b6200099781620006e7565b82525050565b600082825260208201905092915050565b60005b83811015620009ce578082015181840152602081019050620009b1565b60008484015250505050565b6000601f19601f8301169050919050565b6000620009f882620005c1565b62000a0481856200099d565b935062000a16818560208601620009ae565b62000a2181620009da565b840191505092915050565b600060808201905062000a4360008301876200098c565b818103602083015262000a578186620009eb565b905062000a6860408301856200098c565b62000a7760608301846200098c565b95945050505050565b6126948062000a906000396000f3fe6080604052600436106100c25760003560e01c80636f77926b1161007f578063b2dd5c0711610059578063b2dd5c071461025f578063b9a2de3a1461029c578063bfb231d2146102c5578063e2c03ace1461030a576100c2565b80636f77926b146101bb578063704f1b94146101f8578063a87430ba14610221576100c2565b806307bec66f146100c75780630abe0866146100e357806326b387bb1461010c5780632920e022146101495780633ccfd60b14610174578063454a2ab31461019f575b600080fd5b6100e160048036038101906100dc91906117a8565b610335565b005b3480156100ef57600080fd5b5061010a6004803603810190610105919061191b565b6104db565b005b34801561011857600080fd5b50610133600480360381019061012e9190611a2c565b6106d6565b6040516101409190611a68565b60405180910390f35b34801561015557600080fd5b5061015e6106ee565b60405161016b9190611cea565b60405180910390f35b34801561018057600080fd5b50610189610b95565b6040516101969190611d1b565b60405180910390f35b6101b960048036038101906101b491906117a8565b610cb9565b005b3480156101c757600080fd5b506101e260048036038101906101dd9190611a2c565b610e86565b6040516101ef9190611d73565b60405180910390f35b34801561020457600080fd5b5061021f600480360381019061021a9190611d95565b611053565b005b34801561022d57600080fd5b5061024860048036038101906102439190611a2c565b61123e565b604051610256929190611e37565b60405180910390f35b34801561026b57600080fd5b5061028660048036038101906102819190611a2c565b61130a565b6040516102939190611d1b565b60405180910390f35b3480156102a857600080fd5b506102c360048036038101906102be91906117a8565b61132a565b005b3480156102d157600080fd5b506102ec60048036038101906102e791906117a8565b6114ed565b60405161030199989796959493929190611e76565b60405180910390f35b34801561031657600080fd5b5061031f6116a8565b60405161032c9190611a68565b60405180910390f35b600080828154811061034a57610349611f11565b5b906000526020600020906009020190506000828154811061036e5761036d611f11565b5b906000526020600020906009020160080160009054906101000a900460ff16156103cd576040517f08c379a00000000000000000000000000000000000000000000000000000000081526004016103c490611f8c565b60405180910390fd5b8060050154341015610414576040517f08c379a000000000000000000000000000000000000000000000000000000000815260040161040b90611ff8565b60405180910390fd5b60018160080160006101000a81548160ff0219169083151502179055508060010160009054906101000a900473ffffffffffffffffffffffffffffffffffffffff1673ffffffffffffffffffffffffffffffffffffffff166108fc349081150290604051600060405180830381858888f1935050505015801561049b573d6000803e3d6000fd5b507f713f19a7f9a1e0c7daa8679ac03a7574d05a0fa17776c383c91aafff17c7f3568233346040516104cf93929190612018565b60405180910390a15050565b600060405180610120016040528060008054905081526020013373ffffffffffffffffffffffffffffffffffffffff168152602001878152602001868152602001858152602001848152602001600073ffffffffffffffffffffffffffffffffffffffff168152602001600081526020016000151581525090806001815401808255809150506001900390600052602060002090600902016000909190919091506000820151816000015560208201518160010160006101000a81548173ffffffffffffffffffffffffffffffffffffffff021916908373ffffffffffffffffffffffffffffffffffffffff16021790555060408201518160020190816105e2919061225b565b5060608201518160030190816105f8919061225b565b506080820151816004015560a0820151816005015560c08201518160060160006101000a81548173ffffffffffffffffffffffffffffffffffffffff021916908373ffffffffffffffffffffffffffffffffffffffff16021790555060e082015181600701556101008201518160080160006101000a81548160ff02191690831515021790555050507f5bf34ed94988e5dcdc7d1faaa54eb1d3b55f45d5f11457e235afb21a8ebbe73c60016000805490506106b4919061235c565b8685856040516106c79493929190612390565b60405180910390a15050505050565b60036020528060005260406000206000915090505481565b6060600260003373ffffffffffffffffffffffffffffffffffffffff1673ffffffffffffffffffffffffffffffffffffffff16815260200190815260200160002060009054906101000a900460ff161561077d576040517f08c379a000000000000000000000000000000000000000000000000000000000815260040161077490612428565b60405180910390fd5b6000805b600080549050811015610828573373ffffffffffffffffffffffffffffffffffffffff16600082815481106107b9576107b8611f11565b5b906000526020600020906009020160010160009054906101000a900473ffffffffffffffffffffffffffffffffffffffff1673ffffffffffffffffffffffffffffffffffffffff160361081557818061081190612448565b9250505b808061082090612448565b915050610781565b5060008167ffffffffffffffff811115610845576108446117f0565b5b60405190808252806020026020018201604052801561087e57816020015b61086b6116b4565b8152602001906001900390816108635790505b5090506000805b600080549050811015610b8b573373ffffffffffffffffffffffffffffffffffffffff16600082815481106108bd576108bc611f11565b5b906000526020600020906009020160010160009054906101000a900473ffffffffffffffffffffffffffffffffffffffff1673ffffffffffffffffffffffffffffffffffffffff1603610b78576000818154811061091e5761091d611f11565b5b906000526020600020906009020160405180610120016040529081600082015481526020016001820160009054906101000a900473ffffffffffffffffffffffffffffffffffffffff1673ffffffffffffffffffffffffffffffffffffffff1673ffffffffffffffffffffffffffffffffffffffff1681526020016002820180546109a89061207e565b80601f01602080910402602001604051908101604052809291908181526020018280546109d49061207e565b8015610a215780601f106109f657610100808354040283529160200191610a21565b820191906000526020600020905b815481529060010190602001808311610a0457829003601f168201915b50505050508152602001600382018054610a3a9061207e565b80601f0160208091040260200160405190810160405280929190818152602001828054610a669061207e565b8015610ab35780601f10610a8857610100808354040283529160200191610ab3565b820191906000526020600020905b815481529060010190602001808311610a9657829003601f168201915b5050505050815260200160048201548152602001600582015481526020016006820160009054906101000a900473ffffffffffffffffffffffffffffffffffffffff1673ffffffffffffffffffffffffffffffffffffffff1673ffffffffffffffffffffffffffffffffffffffff168152602001600782015481526020016008820160009054906101000a900460ff161515151581525050838381518110610b5e57610b5d611f11565b5b60200260200101819052508180610b7490612448565b9250505b8080610b8390612448565b915050610885565b5081935050505090565b600080600360003373ffffffffffffffffffffffffffffffffffffffff1673ffffffffffffffffffffffffffffffffffffffff1681526020019081526020016000205490506000811115610cb0576000600360003373ffffffffffffffffffffffffffffffffffffffff1673ffffffffffffffffffffffffffffffffffffffff168152602001908152602001600020819055503373ffffffffffffffffffffffffffffffffffffffff166108fc829081150290604051600060405180830381858888f19350505050610caf5780600360003373ffffffffffffffffffffffffffffffffffffffff1673ffffffffffffffffffffffffffffffffffffffff168152602001908152602001600020819055506000915050610cb6565b5b60019150505b90565b6000808281548110610cce57610ccd611f11565b5b9060005260206000209060090201905080600701543411610d24576040517f08c379a0000000000000000000000000000000000000000000000000000000008152600401610d1b906124dc565b60405180910390fd5b600073ffffffffffffffffffffffffffffffffffffffff168160060160009054906101000a900473ffffffffffffffffffffffffffffffffffffffff1673ffffffffffffffffffffffffffffffffffffffff1614610dfb578060070154600360008360060160009054906101000a900473ffffffffffffffffffffffffffffffffffffffff1673ffffffffffffffffffffffffffffffffffffffff1673ffffffffffffffffffffffffffffffffffffffff1681526020019081526020016000206000828254610df391906124fc565b925050819055505b338160060160006101000a81548173ffffffffffffffffffffffffffffffffffffffff021916908373ffffffffffffffffffffffffffffffffffffffff1602179055503481600701819055507fda0a18da71d8ebd145966339a728fc0d8ccc07c22870d561890d823c515dda6b823334604051610e7a93929190612018565b60405180910390a15050565b610e8e61172e565b600260008373ffffffffffffffffffffffffffffffffffffffff1673ffffffffffffffffffffffffffffffffffffffff16815260200190815260200160002060009054906101000a900460ff16610f1a576040517f08c379a0000000000000000000000000000000000000000000000000000000008152600401610f1190612428565b60405180910390fd5b600160008373ffffffffffffffffffffffffffffffffffffffff1673ffffffffffffffffffffffffffffffffffffffff168152602001908152602001600020604051806040016040529081600082018054610f749061207e565b80601f0160208091040260200160405190810160405280929190818152602001828054610fa09061207e565b8015610fed5780601f10610fc257610100808354040283529160200191610fed565b820191906000526020600020905b815481529060010190602001808311610fd057829003601f168201915b505050505081526020016001820160009054906101000a900473ffffffffffffffffffffffffffffffffffffffff1673ffffffffffffffffffffffffffffffffffffffff1673ffffffffffffffffffffffffffffffffffffffff16815250509050919050565b600260003373ffffffffffffffffffffffffffffffffffffffff1673ffffffffffffffffffffffffffffffffffffffff16815260200190815260200160002060009054906101000a900460ff16156110e0576040517f08c379a00000000000000000000000000000000000000000000000000000000081526004016110d79061257c565b60405180910390fd5b60405180604001604052808281526020013373ffffffffffffffffffffffffffffffffffffffff16815250600160003373ffffffffffffffffffffffffffffffffffffffff1673ffffffffffffffffffffffffffffffffffffffff168152602001908152602001600020600082015181600001908161115f919061225b565b5060208201518160010160006101000a81548173ffffffffffffffffffffffffffffffffffffffff021916908373ffffffffffffffffffffffffffffffffffffffff1602179055509050506001600260003373ffffffffffffffffffffffffffffffffffffffff1673ffffffffffffffffffffffffffffffffffffffff16815260200190815260200160002060006101000a81548160ff0219169083151502179055507f48cac28ad4dc618e15f4c2dd5e97751182f166de97b25618318b2112aa951a2f338260405161123392919061259c565b60405180910390a150565b60016020528060005260406000206000915090508060000180546112619061207e565b80601f016020809104026020016040519081016040528092919081815260200182805461128d9061207e565b80156112da5780601f106112af576101008083540402835291602001916112da565b820191906000526020600020905b8154815290600101906020018083116112bd57829003601f168201915b5050505050908060010160009054906101000a900473ffffffffffffffffffffffffffffffffffffffff16905082565b60026020528060005260406000206000915054906101000a900460ff1681565b600080828154811061133f5761133e611f11565b5b906000526020600020906009020190508060080160009054906101000a900460ff16156113a1576040517f08c379a00000000000000000000000000000000000000000000000000000000081526004016113989061263e565b60405180910390fd5b60018160080160006101000a81548160ff021916908315150217905550600073ffffffffffffffffffffffffffffffffffffffff168160060160009054906101000a900473ffffffffffffffffffffffffffffffffffffffff1673ffffffffffffffffffffffffffffffffffffffff16146114e9578060010160009054906101000a900473ffffffffffffffffffffffffffffffffffffffff1673ffffffffffffffffffffffffffffffffffffffff166108fc82600701549081150290604051600060405180830381858888f19350505050158015611484573d6000803e3d6000fd5b507fd2aa34a4fdbbc6dff6a3e56f46e0f3ae2a31d7785ff3487aa5c95c642acea501828260060160009054906101000a900473ffffffffffffffffffffffffffffffffffffffff1683600701546040516114e093929190612018565b60405180910390a15b5050565b600081815481106114fd57600080fd5b90600052602060002090600902016000915090508060000154908060010160009054906101000a900473ffffffffffffffffffffffffffffffffffffffff169080600201805461154c9061207e565b80601f01602080910402602001604051908101604052809291908181526020018280546115789061207e565b80156115c55780601f1061159a576101008083540402835291602001916115c5565b820191906000526020600020905b8154815290600101906020018083116115a857829003601f168201915b5050505050908060030180546115da9061207e565b80601f01602080910402602001604051908101604052809291908181526020018280546116069061207e565b80156116535780601f1061162857610100808354040283529160200191611653565b820191906000526020600020905b81548152906001019060200180831161163657829003601f168201915b5050505050908060040154908060050154908060060160009054906101000a900473ffffffffffffffffffffffffffffffffffffffff16908060070154908060080160009054906101000a900460ff16905089565b60008080549050905090565b60405180610120016040528060008152602001600073ffffffffffffffffffffffffffffffffffffffff16815260200160608152602001606081526020016000815260200160008152602001600073ffffffffffffffffffffffffffffffffffffffff168152602001600081526020016000151581525090565b604051806040016040528060608152602001600073ffffffffffffffffffffffffffffffffffffffff1681525090565b6000604051905090565b600080fd5b600080fd5b6000819050919050565b61178581611772565b811461179057600080fd5b50565b6000813590506117a28161177c565b92915050565b6000602082840312156117be576117bd611768565b5b60006117cc84828501611793565b91505092915050565b600080fd5b600080fd5b6000601f19601f8301169050919050565b7f4e487b7100000000000000000000000000000000000000000000000000000000600052604160045260246000fd5b611828826117df565b810181811067ffffffffffffffff82111715611847576118466117f0565b5b80604052505050565b600061185a61175e565b9050611866828261181f565b919050565b600067ffffffffffffffff821115611886576118856117f0565b5b61188f826117df565b9050602081019050919050565b82818337600083830152505050565b60006118be6118b98461186b565b611850565b9050828152602081018484840111156118da576118d96117da565b5b6118e584828561189c565b509392505050565b600082601f830112611902576119016117d5565b5b81356119128482602086016118ab565b91505092915050565b600080600080600060a0868803121561193757611936611768565b5b600086013567ffffffffffffffff8111156119555761195461176d565b5b611961888289016118ed565b955050602086013567ffffffffffffffff8111156119825761198161176d565b5b61198e888289016118ed565b945050604061199f88828901611793565b93505060606119b088828901611793565b92505060806119c188828901611793565b9150509295509295909350565b600073ffffffffffffffffffffffffffffffffffffffff82169050919050565b60006119f9826119ce565b9050919050565b611a09816119ee565b8114611a1457600080fd5b50565b600081359050611a2681611a00565b92915050565b600060208284031215611a4257611a41611768565b5b6000611a5084828501611a17565b91505092915050565b611a6281611772565b82525050565b6000602082019050611a7d6000830184611a59565b92915050565b600081519050919050565b600082825260208201905092915050565b6000819050602082019050919050565b611ab881611772565b82525050565b6000611ac9826119ce565b9050919050565b611ad981611abe565b82525050565b600081519050919050565b600082825260208201905092915050565b60005b83811015611b19578082015181840152602081019050611afe565b60008484015250505050565b6000611b3082611adf565b611b3a8185611aea565b9350611b4a818560208601611afb565b611b53816117df565b840191505092915050565b611b67816119ee565b82525050565b60008115159050919050565b611b8281611b6d565b82525050565b600061012083016000830151611ba16000860182611aaf565b506020830151611bb46020860182611ad0565b5060408301518482036040860152611bcc8282611b25565b91505060608301518482036060860152611be68282611b25565b9150506080830151611bfb6080860182611aaf565b5060a0830151611c0e60a0860182611aaf565b5060c0830151611c2160c0860182611b5e565b5060e0830151611c3460e0860182611aaf565b50610100830151611c49610100860182611b79565b508091505092915050565b6000611c608383611b88565b905092915050565b6000602082019050919050565b6000611c8082611a83565b611c8a8185611a8e565b935083602082028501611c9c85611a9f565b8060005b85811015611cd85784840389528151611cb98582611c54565b9450611cc483611c68565b925060208a01995050600181019050611ca0565b50829750879550505050505092915050565b60006020820190508181036000830152611d048184611c75565b905092915050565b611d1581611b6d565b82525050565b6000602082019050611d306000830184611d0c565b92915050565b60006040830160008301518482036000860152611d538282611b25565b9150506020830151611d686020860182611b5e565b508091505092915050565b60006020820190508181036000830152611d8d8184611d36565b905092915050565b600060208284031215611dab57611daa611768565b5b600082013567ffffffffffffffff811115611dc957611dc861176d565b5b611dd5848285016118ed565b91505092915050565b600082825260208201905092915050565b6000611dfa82611adf565b611e048185611dde565b9350611e14818560208601611afb565b611e1d816117df565b840191505092915050565b611e31816119ee565b82525050565b60006040820190508181036000830152611e518185611def565b9050611e606020830184611e28565b9392505050565b611e7081611abe565b82525050565b600061012082019050611e8c600083018c611a59565b611e99602083018b611e67565b8181036040830152611eab818a611def565b90508181036060830152611ebf8189611def565b9050611ece6080830188611a59565b611edb60a0830187611a59565b611ee860c0830186611e28565b611ef560e0830185611a59565b611f03610100830184611d0c565b9a9950505050505050505050565b7f4e487b7100000000000000000000000000000000000000000000000000000000600052603260045260246000fd5b7f41756374696f6e20616c726561647920656e6465642e00000000000000000000600082015250565b6000611f76601683611dde565b9150611f8182611f40565b602082019050919050565b60006020820190508181036000830152611fa581611f69565b9050919050565b7f4275796f7574207072696365206e6f74206d65742e0000000000000000000000600082015250565b6000611fe2601583611dde565b9150611fed82611fac565b602082019050919050565b6000602082019050818103600083015261201181611fd5565b9050919050565b600060608201905061202d6000830186611a59565b61203a6020830185611e28565b6120476040830184611a59565b949350505050565b7f4e487b7100000000000000000000000000000000000000000000000000000000600052602260045260246000fd5b6000600282049050600182168061209657607f821691505b6020821081036120a9576120a861204f565b5b50919050565b60008190508160005260206000209050919050565b60006020601f8301049050919050565b600082821b905092915050565b6000600883026121117fffffffffffffffffffffffffffffffffffffffffffffffffffffffffffffffff826120d4565b61211b86836120d4565b95508019841693508086168417925050509392505050565b6000819050919050565b600061215861215361214e84611772565b612133565b611772565b9050919050565b6000819050919050565b6121728361213d565b61218661217e8261215f565b8484546120e1565b825550505050565b600090565b61219b61218e565b6121a6818484612169565b505050565b5b818110156121ca576121bf600082612193565b6001810190506121ac565b5050565b601f82111561220f576121e0816120af565b6121e9846120c4565b810160208510156121f8578190505b61220c612204856120c4565b8301826121ab565b50505b505050565b600082821c905092915050565b600061223260001984600802612214565b1980831691505092915050565b600061224b8383612221565b9150826002028217905092915050565b61226482611adf565b67ffffffffffffffff81111561227d5761227c6117f0565b5b612287825461207e565b6122928282856121ce565b600060209050601f8311600181146122c557600084156122b3578287015190505b6122bd858261223f565b865550612325565b601f1984166122d3866120af565b60005b828110156122fb578489015182556001820191506020850194506020810190506122d6565b868310156123185784890151612314601f891682612221565b8355505b6001600288020188555050505b505050505050565b7f4e487b7100000000000000000000000000000000000000000000000000000000600052601160045260246000fd5b600061236782611772565b915061237283611772565b925082820390508181111561238a5761238961232d565b5b92915050565b60006080820190506123a56000830187611a59565b81810360208301526123b78186611def565b90506123c66040830185611a59565b6123d36060830184611a59565b95945050505050565b7f55736572206e6f7420726567697374657265642e000000000000000000000000600082015250565b6000612412601483611dde565b915061241d826123dc565b602082019050919050565b6000602082019050818103600083015261244181612405565b9050919050565b600061245382611772565b91507fffffffffffffffffffffffffffffffffffffffffffffffffffffffffffffffff82036124855761248461232d565b5b600182019050919050565b7f546865726520616c7265616479206973206120686967686572206269642e0000600082015250565b60006124c6601e83611dde565b91506124d182612490565b602082019050919050565b600060208201905081810360008301526124f5816124b9565b9050919050565b600061250782611772565b915061251283611772565b925082820190508082111561252a5761252961232d565b5b92915050565b7f5573657220616c726561647920726567697374657265642e0000000000000000600082015250565b6000612566601883611dde565b915061257182612530565b602082019050919050565b6000602082019050818103600083015261259581612559565b9050919050565b60006040820190506125b16000830185611e28565b81810360208301526125c38184611def565b90509392505050565b7f41756374696f6e20656e642068617320616c7265616479206265656e2063616c60008201527f6c65642e00000000000000000000000000000000000000000000000000000000602082015250565b6000612628602483611dde565b9150612633826125cc565b604082019050919050565b600060208201905081810360008301526126578161261b565b905091905056fea264697066735822122092dd70928f817412a416c5297a2e00b8490b5760be4173b1faeb237c253c673464736f6c6343000813003368747470733a2f2f7777772e73776f726473616e7469717565776561706f6e732e636f6d2f696d616765732f7332333331622e6a706768747470733a2f2f6d756c7469776f6f642e636f6d2e706b2f63646e2f73686f702f70726f64756374732f506963736172745f32322d31302d32335f30332d35332d33332d3831325f3130303078313030302e6a70673f763d3136363634373937323668747470733a2f2f7777772e3030372e636f6d2f77702d636f6e74656e742f75706c6f6164732f323032322f30382f4c43432d4c532e6a706768747470733a2f2f7777772e68656d7377656c6c2d616e7469717565732e636f6d2f75706c6f6164732f6d656469612f6e6577732f303030312f39352f7468756d625f39343733395f6e6577735f776964652e6a70656768747470733a2f2f6969312e7065707065726672792e636f6d2f6d656469612f636174616c6f672f70726f647563742f672f6f2f343934783534342f676f6c642d62726173732d616e642d776f6f642d656d626f737365642d686f726e2d616e642d6772616d6f70686f6e652d62792d6578696d2d6465636f722d676f6c642d62726173732d616e642d776f6f642d656d626f737365642d686f726e2d616e642d666a697a74352e6a706768747470733a2f2f692e70636d61672e636f6d2f696d61676572792f6c696e6575706974656d732f30367352636b3141696d62664f785777525976454271582e6669745f6c696d2e73697a655f31303530783537382e76313536393530383734382e6a706768747470733a2f2f692e726564642e69742f6f6d3939356671386a387561312e6a706768747470733a2f2f6d2e6d656469612d616d617a6f6e2e636f6d2f696d616765732f492f37317451432d323739754c2e6a7067",
  "immutableReferences": {},
  "source": "// SPDX-License-Identifier: MIT\npragma solidity ^0.8.0;\n\ncontract DecentralizedAuction {\n    struct Item {\n        uint id;\n        address payable seller;\n        string name;\n        string imageUrl;\n        uint minBid;\n        uint buyoutPrice;\n        //uint auctionEndTime;\n        address highestBidder;\n        uint highestBid;\n        bool ended;\n    }\n\n    struct User {\n        string username;\n        address walletAddress;\n    }\n\n    Item[] public items;\n    mapping(address => User) public users;\n    mapping(address => bool) public registered;\n    mapping(address => uint) public pendingReturns;\n\n    event UserRegistered(address userAddress, string username);\n    //event AuctionCreated(uint itemId, string name, uint minBid, uint buyoutPrice, uint auctionEndTime);\n    event AuctionCreated(uint itemId, string name, uint minBid, uint buyoutPrice);\n    event HighestBidIncreased(uint itemId, address bidder, uint amount);\n    event AuctionEnded(uint itemId, address winner, uint amount);\n    event ItemBoughtOut(uint itemId, address buyer, uint amount);\n\n    constructor() {\n        addItem(\"Vintage Phone\", \"https://m.media-amazon.com/images/I/71tQC-279uL.jpg\", 1 ether, 5 ether, 180 minutes);\n        addItem(\"Record Player\", \"https://ii1.pepperfry.com/media/catalog/product/g/o/494x544/gold-brass-and-wood-embossed-horn-and-gramophone-by-exim-decor-gold-brass-and-wood-embossed-horn-and-fjizt5.jpg\", 2 ether, 7 ether, 180 minutes);\n        addItem(\"Aladdin Movie Prop\", \"https://multiwood.com.pk/cdn/shop/products/Picsart_22-10-23_03-53-33-812_1000x1000.jpg?v=1666479726\", 3 ether, 10 ether, 180 minutes);\n        addItem(\"Sword\", \"https://www.swordsantiqueweapons.com/images/s2331b.jpg\", 3 ether, 10 ether, 1 minutes);\n        addItem(\"Flintlock\", \"https://www.hemswell-antiques.com/uploads/media/news/0001/95/thumb_94739_news_wide.jpeg\", 3 ether, 10 ether, 3 minutes);\n        addItem(\"James Bond's DB5\", \"https://www.007.com/wp-content/uploads/2022/08/LCC-LS.jpg\", 3 ether, 10 ether, 5 minutes);\n        addItem(\"Commodore PET\", \"https://i.redd.it/om995fq8j8ua1.jpg\", 3 ether, 10 ether, 5 minutes);\n        addItem(\"HP Palmtop\", \"https://i.pcmag.com/imagery/lineupitems/06sRck1AimbfOxWwRYvEBqX.fit_lim.size_1050x578.v1569508748.jpg\", 3 ether, 10 ether, 5 minutes);\n    }\n\n    function registerUser(string memory _username) public {\n        require(!registered[msg.sender], \"User already registered.\");\n        users[msg.sender] = User(_username, msg.sender);\n        registered[msg.sender] = true;\n        emit UserRegistered(msg.sender, _username);\n    }\n\n    function getUser(address _userAddress) public view returns (User memory) {\n        require(registered[_userAddress], \"User not registered.\");\n        return users[_userAddress];\n    }\n\n    function addItem(string memory name, string memory imageUrl, uint minBid, uint buyoutPrice, uint biddingTime) public {\n        //uint auctionEndTime = block.timestamp + biddingTime;\n        items.push(Item({\n            id: items.length,\n            seller: payable(msg.sender),\n            name: name,\n            imageUrl: imageUrl,\n            minBid: minBid,\n            buyoutPrice: buyoutPrice,\n            //auctionEndTime: auctionEndTime,\n            highestBidder: address(0),\n            highestBid: 0,\n            ended: false\n        }));\n        //emit AuctionCreated(items.length - 1, name, minBid, buyoutPrice, auctionEndTime);\n        emit AuctionCreated(items.length - 1, name, minBid, buyoutPrice);\n    }\n\n    function bid(uint itemId) public payable {\n        Item storage item = items[itemId];\n        //require(block.timestamp < item.auctionEndTime, \"Auction already ended.\");\n        require(msg.value > item.highestBid, \"There already is a higher bid.\");\n        if (item.highestBidder != address(0)) {\n            pendingReturns[item.highestBidder] += item.highestBid;\n        }\n        item.highestBidder = msg.sender;\n        item.highestBid = msg.value;\n        emit HighestBidIncreased(itemId, msg.sender, msg.value);\n    }\n\n    function withdraw() public returns (bool) {\n        uint amount = pendingReturns[msg.sender];\n        if (amount > 0) {\n            pendingReturns[msg.sender] = 0;\n            if (!payable(msg.sender).send(amount)) {\n                pendingReturns[msg.sender] = amount;\n                return false;\n            }\n        }\n        return true;\n    }\n\n    function buyout(uint itemId) public payable {\n        Item storage item = items[itemId];\n        //require(block.timestamp < item.auctionEndTime, \"Auction already ended.\");\n        require(!items[itemId].ended, \"Auction already ended.\");\n        require(msg.value >= item.buyoutPrice, \"Buyout price not met.\");\n        item.ended = true;\n        //item.auctionEndTime = block.timestamp;\n        item.seller.transfer(msg.value);\n        emit ItemBoughtOut(itemId, msg.sender, msg.value);\n    }\n\n    function endAuction(uint itemId) public {\n        Item storage item = items[itemId];\n        //require(block.timestamp >= item.auctionEndTime, \"Auction not yet ended.\");\n        require(!item.ended, \"Auction end has already been called.\");\n        item.ended = true;\n        if (item.highestBidder != address(0)) {\n            item.seller.transfer(item.highestBid);\n            emit AuctionEnded(itemId, item.highestBidder, item.highestBid);\n        }\n    }\n\n    function itemsCount() public view returns (uint) {\n        return items.length;\n    }\n\n    // function timeLeft(uint itemId) public view returns (uint) {\n    //     Item storage item = items[itemId];\n    //     if (block.timestamp >= item.auctionEndTime) {\n    //         return 0;\n    //     }\n    //     return item.auctionEndTime - block.timestamp;\n    // }\n\n    function getAllUserItems() public view returns (Item[] memory) {\n        require(!registered[msg.sender], \"User not registered.\");\n\n        // Count the user's items\n        uint count = 0;\n        for (uint index = 0; index < items.length; index++) {\n            if (items[index].seller == msg.sender) {\n                count++;\n            }\n        }\n\n        Item[] memory list = new Item[](count);\n\n        uint counter = 0;\n        for (uint index = 0; index < items.length; index++) {\n            if (items[index].seller == msg.sender) {\n                list[counter] = items[index];\n                counter++;\n            }\n        }\n\n        return list;\n    }\n}\n",
  "sourcePath": "/home/farazmajid/Documents/Decentralized-Auction/backend/contracts/DecentralizedAuction.sol",
  "compiler": {
    "name": "solc",
    "version": "0.8.19+commit.7dd6d404.Emscripten.clang"
  },
  "schemaVersion": "3.4.16",
  "updatedAt": "2024-05-08T08:24:58.510Z",
  "networkType": "ethereum",
  "devdoc": {
    "kind": "dev",
    "methods": {},
    "version": 1
  },
  "userdoc": {
    "kind": "user",
    "methods": {},
    "version": 1
  }
}