{
  "contractName": "DecentralizedAuction",
  "abi": [
    {
      "inputs": [],
      "stateMutability": "nonpayable",
      "type": "constructor"
    },
    {
      "anonymous": false,
      "inputs": [
        {
          "indexed": false,
          "internalType": "uint256",
          "name": "itemId",
          "type": "uint256"
        },
        {
          "indexed": false,
          "internalType": "string",
          "name": "name",
          "type": "string"
        },
        {
          "indexed": false,
          "internalType": "uint256",
          "name": "minBid",
          "type": "uint256"
        },
        {
          "indexed": false,
          "internalType": "uint256",
          "name": "buyoutPrice",
          "type": "uint256"
        },
        {
          "indexed": false,
          "internalType": "uint256",
          "name": "auctionEndTime",
          "type": "uint256"
        }
      ],
      "name": "AuctionCreated",
      "type": "event"
    },
    {
      "anonymous": false,
      "inputs": [
        {
          "indexed": false,
          "internalType": "uint256",
          "name": "itemId",
          "type": "uint256"
        },
        {
          "indexed": false,
          "internalType": "address",
          "name": "winner",
          "type": "address"
        },
        {
          "indexed": false,
          "internalType": "uint256",
          "name": "amount",
          "type": "uint256"
        }
      ],
      "name": "AuctionEnded",
      "type": "event"
    },
    {
      "anonymous": false,
      "inputs": [
        {
          "indexed": false,
          "internalType": "uint256",
          "name": "itemId",
          "type": "uint256"
        },
        {
          "indexed": false,
          "internalType": "address",
          "name": "bidder",
          "type": "address"
        },
        {
          "indexed": false,
          "internalType": "uint256",
          "name": "amount",
          "type": "uint256"
        }
      ],
      "name": "HighestBidIncreased",
      "type": "event"
    },
    {
      "anonymous": false,
      "inputs": [
        {
          "indexed": false,
          "internalType": "uint256",
          "name": "itemId",
          "type": "uint256"
        },
        {
          "indexed": false,
          "internalType": "address",
          "name": "buyer",
          "type": "address"
        },
        {
          "indexed": false,
          "internalType": "uint256",
          "name": "amount",
          "type": "uint256"
        }
      ],
      "name": "ItemBoughtOut",
      "type": "event"
    },
    {
      "inputs": [
        {
          "internalType": "uint256",
          "name": "",
          "type": "uint256"
        }
      ],
      "name": "items",
      "outputs": [
        {
          "internalType": "uint256",
          "name": "id",
          "type": "uint256"
        },
        {
          "internalType": "address payable",
          "name": "seller",
          "type": "address"
        },
        {
          "internalType": "string",
          "name": "name",
          "type": "string"
        },
        {
          "internalType": "string",
          "name": "imageUrl",
          "type": "string"
        },
        {
          "internalType": "uint256",
          "name": "minBid",
          "type": "uint256"
        },
        {
          "internalType": "uint256",
          "name": "buyoutPrice",
          "type": "uint256"
        },
        {
          "internalType": "uint256",
          "name": "auctionEndTime",
          "type": "uint256"
        },
        {
          "internalType": "address",
          "name": "highestBidder",
          "type": "address"
        },
        {
          "internalType": "uint256",
          "name": "highestBid",
          "type": "uint256"
        },
        {
          "internalType": "bool",
          "name": "ended",
          "type": "bool"
        }
      ],
      "stateMutability": "view",
      "type": "function",
      "constant": true
    },
    {
      "inputs": [
        {
          "internalType": "address",
          "name": "",
          "type": "address"
        }
      ],
      "name": "pendingReturns",
      "outputs": [
        {
          "internalType": "uint256",
          "name": "",
          "type": "uint256"
        }
      ],
      "stateMutability": "view",
      "type": "function",
      "constant": true
    },
    {
      "inputs": [
        {
          "internalType": "string",
          "name": "name",
          "type": "string"
        },
        {
          "internalType": "string",
          "name": "imageUrl",
          "type": "string"
        },
        {
          "internalType": "uint256",
          "name": "minBid",
          "type": "uint256"
        },
        {
          "internalType": "uint256",
          "name": "buyoutPrice",
          "type": "uint256"
        },
        {
          "internalType": "uint256",
          "name": "biddingTime",
          "type": "uint256"
        }
      ],
      "name": "addItem",
      "outputs": [],
      "stateMutability": "nonpayable",
      "type": "function"
    },
    {
      "inputs": [
        {
          "internalType": "uint256",
          "name": "itemId",
          "type": "uint256"
        }
      ],
      "name": "bid",
      "outputs": [],
      "stateMutability": "payable",
      "type": "function",
      "payable": true
    },
    {
      "inputs": [],
      "name": "withdraw",
      "outputs": [
        {
          "internalType": "bool",
          "name": "",
          "type": "bool"
        }
      ],
      "stateMutability": "nonpayable",
      "type": "function"
    },
    {
      "inputs": [
        {
          "internalType": "uint256",
          "name": "itemId",
          "type": "uint256"
        }
      ],
      "name": "buyout",
      "outputs": [],
      "stateMutability": "payable",
      "type": "function",
      "payable": true
    },
    {
      "inputs": [
        {
          "internalType": "uint256",
          "name": "itemId",
          "type": "uint256"
        }
      ],
      "name": "endAuction",
      "outputs": [],
      "stateMutability": "nonpayable",
      "type": "function"
    },
    {
      "inputs": [],
      "name": "itemsCount",
      "outputs": [
        {
          "internalType": "uint256",
          "name": "",
          "type": "uint256"
        }
      ],
      "stateMutability": "view",
      "type": "function",
      "constant": true
    },
    {
      "inputs": [
        {
          "internalType": "uint256",
          "name": "itemId",
          "type": "uint256"
        }
      ],
      "name": "timeLeft",
      "outputs": [
        {
          "internalType": "uint256",
          "name": "",
          "type": "uint256"
        }
      ],
      "stateMutability": "view",
      "type": "function",
      "constant": true
    }
  ],
  "bytecode": "0x60806040523480156200001157600080fd5b50620000876040518060400160405280600d81526020017f56696e746167652050686f6e65000000000000000000000000000000000000008152506040518060600160405280603381526020016200260560339139670de0b6b3a7640000674563918244f40000612a30620003be60201b60201c565b620000fc6040518060400160405280600d81526020017f5265636f726420506c61796572000000000000000000000000000000000000008152506040518060e0016040528060ab8152602001620024d260ab9139671bc16d674ec80000676124fee993bc0000612a30620003be60201b60201c565b620001716040518060400160405280601281526020017f416c616464696e204d6f7669652050726f7000000000000000000000000000008152506040518060a0016040528060638152602001620023df606391396729a2241af62c0000678ac7230489e80000612a30620003be60201b60201c565b620001e56040518060400160405280600581526020017f53776f7264000000000000000000000000000000000000000000000000000000815250604051806060016040528060368152602001620023a9603691396729a2241af62c0000678ac7230489e80000603c620003be60201b60201c565b620002596040518060400160405280600981526020017f466c696e746c6f636b00000000000000000000000000000000000000000000008152506040518060800160405280605781526020016200247b605791396729a2241af62c0000678ac7230489e8000060b4620003be60201b60201c565b620002ce6040518060400160405280601081526020017f4a616d657320426f6e642773204442350000000000000000000000000000000081525060405180606001604052806039815260200162002442603991396729a2241af62c0000678ac7230489e8000061012c620003be60201b60201c565b620003436040518060400160405280600d81526020017f436f6d6d6f646f72652050455400000000000000000000000000000000000000815250604051806060016040528060238152602001620025e2602391396729a2241af62c0000678ac7230489e8000061012c620003be60201b60201c565b620003b86040518060400160405280600a81526020017f48502050616c6d746f70000000000000000000000000000000000000000000008152506040518060a00160405280606581526020016200257d606591396729a2241af62c0000678ac7230489e8000061012c620003be60201b60201c565b62000af1565b60008142620003ce919062000620565b9050600060405180610140016040528060008054905081526020013373ffffffffffffffffffffffffffffffffffffffff168152602001888152602001878152602001868152602001858152602001838152602001600073ffffffffffffffffffffffffffffffffffffffff168152602001600081526020016000151581525090806001815401808255809150506001900390600052602060002090600a02016000909190919091506000820151816000015560208201518160010160006101000a81548173ffffffffffffffffffffffffffffffffffffffff021916908373ffffffffffffffffffffffffffffffffffffffff1602179055506040820151816002019081620004df9190620008cb565b506060820151816003019081620004f79190620008cb565b506080820151816004015560a0820151816005015560c0820151816006015560e08201518160070160006101000a81548173ffffffffffffffffffffffffffffffffffffffff021916908373ffffffffffffffffffffffffffffffffffffffff16021790555061010082015181600801556101208201518160090160006101000a81548160ff02191690831515021790555050507f9f2d79365342a9f9f646a83e6191a18708a54c48f4924e82339e698793aff5fe6001600080549050620005c09190620009b2565b87868685604051620005d795949392919062000a8d565b60405180910390a1505050505050565b6000819050919050565b7f4e487b7100000000000000000000000000000000000000000000000000000000600052601160045260246000fd5b60006200062d82620005e7565b91506200063a83620005e7565b9250828201905080821115620006555762000654620005f1565b5b92915050565b600081519050919050565b7f4e487b7100000000000000000000000000000000000000000000000000000000600052604160045260246000fd5b7f4e487b7100000000000000000000000000000000000000000000000000000000600052602260045260246000fd5b60006002820490506001821680620006dd57607f821691505b602082108103620006f357620006f262000695565b5b50919050565b60008190508160005260206000209050919050565b60006020601f8301049050919050565b600082821b905092915050565b6000600883026200075d7fffffffffffffffffffffffffffffffffffffffffffffffffffffffffffffffff826200071e565b6200076986836200071e565b95508019841693508086168417925050509392505050565b6000819050919050565b6000620007ac620007a6620007a084620005e7565b62000781565b620005e7565b9050919050565b6000819050919050565b620007c8836200078b565b620007e0620007d782620007b3565b8484546200072b565b825550505050565b600090565b620007f7620007e8565b62000804818484620007bd565b505050565b5b818110156200082c5762000820600082620007ed565b6001810190506200080a565b5050565b601f8211156200087b576200084581620006f9565b62000850846200070e565b8101602085101562000860578190505b620008786200086f856200070e565b83018262000809565b50505b505050565b600082821c905092915050565b6000620008a06000198460080262000880565b1980831691505092915050565b6000620008bb83836200088d565b9150826002028217905092915050565b620008d6826200065b565b67ffffffffffffffff811115620008f257620008f162000666565b5b620008fe8254620006c4565b6200090b82828562000830565b600060209050601f8311600181146200094357600084156200092e578287015190505b6200093a8582620008ad565b865550620009aa565b601f1984166200095386620006f9565b60005b828110156200097d5784890151825560018201915060208501945060208101905062000956565b868310156200099d578489015162000999601f8916826200088d565b8355505b6001600288020188555050505b505050505050565b6000620009bf82620005e7565b9150620009cc83620005e7565b9250828203905081811115620009e757620009e6620005f1565b5b92915050565b620009f881620005e7565b82525050565b600082825260208201905092915050565b60005b8381101562000a2f57808201518184015260208101905062000a12565b60008484015250505050565b6000601f19601f8301169050919050565b600062000a59826200065b565b62000a658185620009fe565b935062000a7781856020860162000a0f565b62000a828162000a3b565b840191505092915050565b600060a08201905062000aa46000830188620009ed565b818103602083015262000ab8818762000a4c565b905062000ac96040830186620009ed565b62000ad86060830185620009ed565b62000ae76080830184620009ed565b9695505050505050565b6118a88062000b016000396000f3fe6080604052600436106100865760003560e01c8063454a2ab311610059578063454a2ab31461013857806347cb7a6814610154578063b9a2de3a14610191578063bfb231d2146101ba578063e2c03ace1461020057610086565b806307bec66f1461008b5780630abe0866146100a757806326b387bb146100d05780633ccfd60b1461010d575b600080fd5b6100a560048036038101906100a09190610d91565b61022b565b005b3480156100b357600080fd5b506100ce60048036038101906100c99190610f04565b6103ad565b005b3480156100dc57600080fd5b506100f760048036038101906100f29190611015565b6105cc565b6040516101049190611051565b60405180910390f35b34801561011957600080fd5b506101226105e4565b60405161012f9190611087565b60405180910390f35b610152600480360381019061014d9190610d91565b610708565b005b34801561016057600080fd5b5061017b60048036038101906101769190610d91565b61091b565b6040516101889190611051565b60405180910390f35b34801561019d57600080fd5b506101b860048036038101906101b39190610d91565b610970565b005b3480156101c657600080fd5b506101e160048036038101906101dc9190610d91565b610b7a565b6040516101f79a99989796959493929190611151565b60405180910390f35b34801561020c57600080fd5b50610215610d3b565b6040516102229190611051565b60405180910390f35b60008082815481106102405761023f6111fb565b5b90600052602060002090600a0201905080600601544210610296576040517f08c379a000000000000000000000000000000000000000000000000000000000815260040161028d90611276565b60405180910390fd5b80600501543410156102dd576040517f08c379a00000000000000000000000000000000000000000000000000000000081526004016102d4906112e2565b60405180910390fd5b60018160090160006101000a81548160ff0219169083151502179055504281600601819055508060010160009054906101000a900473ffffffffffffffffffffffffffffffffffffffff1673ffffffffffffffffffffffffffffffffffffffff166108fc349081150290604051600060405180830381858888f1935050505015801561036d573d6000803e3d6000fd5b507f713f19a7f9a1e0c7daa8679ac03a7574d05a0fa17776c383c91aafff17c7f3568233346040516103a193929190611302565b60405180910390a15050565b600081426103bb9190611368565b9050600060405180610140016040528060008054905081526020013373ffffffffffffffffffffffffffffffffffffffff168152602001888152602001878152602001868152602001858152602001838152602001600073ffffffffffffffffffffffffffffffffffffffff168152602001600081526020016000151581525090806001815401808255809150506001900390600052602060002090600a02016000909190919091506000820151816000015560208201518160010160006101000a81548173ffffffffffffffffffffffffffffffffffffffff021916908373ffffffffffffffffffffffffffffffffffffffff16021790555060408201518160020190816104ca91906115a8565b5060608201518160030190816104e091906115a8565b506080820151816004015560a0820151816005015560c0820151816006015560e08201518160070160006101000a81548173ffffffffffffffffffffffffffffffffffffffff021916908373ffffffffffffffffffffffffffffffffffffffff16021790555061010082015181600801556101208201518160090160006101000a81548160ff02191690831515021790555050507f9f2d79365342a9f9f646a83e6191a18708a54c48f4924e82339e698793aff5fe60016000805490506105a7919061167a565b878686856040516105bc9594939291906116ae565b60405180910390a1505050505050565b60016020528060005260406000206000915090505481565b600080600160003373ffffffffffffffffffffffffffffffffffffffff1673ffffffffffffffffffffffffffffffffffffffff16815260200190815260200160002054905060008111156106ff576000600160003373ffffffffffffffffffffffffffffffffffffffff1673ffffffffffffffffffffffffffffffffffffffff168152602001908152602001600020819055503373ffffffffffffffffffffffffffffffffffffffff166108fc829081150290604051600060405180830381858888f193505050506106fe5780600160003373ffffffffffffffffffffffffffffffffffffffff1673ffffffffffffffffffffffffffffffffffffffff168152602001908152602001600020819055506000915050610705565b5b60019150505b90565b600080828154811061071d5761071c6111fb565b5b90600052602060002090600a0201905080600601544210610773576040517f08c379a000000000000000000000000000000000000000000000000000000000815260040161076a90611276565b60405180910390fd5b806008015434116107b9576040517f08c379a00000000000000000000000000000000000000000000000000000000081526004016107b090611754565b60405180910390fd5b600073ffffffffffffffffffffffffffffffffffffffff168160070160009054906101000a900473ffffffffffffffffffffffffffffffffffffffff1673ffffffffffffffffffffffffffffffffffffffff1614610890578060080154600160008360070160009054906101000a900473ffffffffffffffffffffffffffffffffffffffff1673ffffffffffffffffffffffffffffffffffffffff1673ffffffffffffffffffffffffffffffffffffffff16815260200190815260200160002060008282546108889190611368565b925050819055505b338160070160006101000a81548173ffffffffffffffffffffffffffffffffffffffff021916908373ffffffffffffffffffffffffffffffffffffffff1602179055503481600801819055507fda0a18da71d8ebd145966339a728fc0d8ccc07c22870d561890d823c515dda6b82333460405161090f93929190611302565b60405180910390a15050565b60008060008381548110610932576109316111fb565b5b90600052602060002090600a020190508060060154421061095757600091505061096b565b428160060154610967919061167a565b9150505b919050565b6000808281548110610985576109846111fb565b5b90600052602060002090600a0201905080600601544210156109dc576040517f08c379a00000000000000000000000000000000000000000000000000000000081526004016109d3906117c0565b60405180910390fd5b8060090160009054906101000a900460ff1615610a2e576040517f08c379a0000000000000000000000000000000000000000000000000000000008152600401610a2590611852565b60405180910390fd5b60018160090160006101000a81548160ff021916908315150217905550600073ffffffffffffffffffffffffffffffffffffffff168160070160009054906101000a900473ffffffffffffffffffffffffffffffffffffffff1673ffffffffffffffffffffffffffffffffffffffff1614610b76578060010160009054906101000a900473ffffffffffffffffffffffffffffffffffffffff1673ffffffffffffffffffffffffffffffffffffffff166108fc82600801549081150290604051600060405180830381858888f19350505050158015610b11573d6000803e3d6000fd5b507fd2aa34a4fdbbc6dff6a3e56f46e0f3ae2a31d7785ff3487aa5c95c642acea501828260070160009054906101000a900473ffffffffffffffffffffffffffffffffffffffff168360080154604051610b6d93929190611302565b60405180910390a15b5050565b60008181548110610b8a57600080fd5b90600052602060002090600a02016000915090508060000154908060010160009054906101000a900473ffffffffffffffffffffffffffffffffffffffff1690806002018054610bd9906113cb565b80601f0160208091040260200160405190810160405280929190818152602001828054610c05906113cb565b8015610c525780601f10610c2757610100808354040283529160200191610c52565b820191906000526020600020905b815481529060010190602001808311610c3557829003601f168201915b505050505090806003018054610c67906113cb565b80601f0160208091040260200160405190810160405280929190818152602001828054610c93906113cb565b8015610ce05780601f10610cb557610100808354040283529160200191610ce0565b820191906000526020600020905b815481529060010190602001808311610cc357829003601f168201915b5050505050908060040154908060050154908060060154908060070160009054906101000a900473ffffffffffffffffffffffffffffffffffffffff16908060080154908060090160009054906101000a900460ff1690508a565b60008080549050905090565b6000604051905090565b600080fd5b600080fd5b6000819050919050565b610d6e81610d5b565b8114610d7957600080fd5b50565b600081359050610d8b81610d65565b92915050565b600060208284031215610da757610da6610d51565b5b6000610db584828501610d7c565b91505092915050565b600080fd5b600080fd5b6000601f19601f8301169050919050565b7f4e487b7100000000000000000000000000000000000000000000000000000000600052604160045260246000fd5b610e1182610dc8565b810181811067ffffffffffffffff82111715610e3057610e2f610dd9565b5b80604052505050565b6000610e43610d47565b9050610e4f8282610e08565b919050565b600067ffffffffffffffff821115610e6f57610e6e610dd9565b5b610e7882610dc8565b9050602081019050919050565b82818337600083830152505050565b6000610ea7610ea284610e54565b610e39565b905082815260208101848484011115610ec357610ec2610dc3565b5b610ece848285610e85565b509392505050565b600082601f830112610eeb57610eea610dbe565b5b8135610efb848260208601610e94565b91505092915050565b600080600080600060a08688031215610f2057610f1f610d51565b5b600086013567ffffffffffffffff811115610f3e57610f3d610d56565b5b610f4a88828901610ed6565b955050602086013567ffffffffffffffff811115610f6b57610f6a610d56565b5b610f7788828901610ed6565b9450506040610f8888828901610d7c565b9350506060610f9988828901610d7c565b9250506080610faa88828901610d7c565b9150509295509295909350565b600073ffffffffffffffffffffffffffffffffffffffff82169050919050565b6000610fe282610fb7565b9050919050565b610ff281610fd7565b8114610ffd57600080fd5b50565b60008135905061100f81610fe9565b92915050565b60006020828403121561102b5761102a610d51565b5b600061103984828501611000565b91505092915050565b61104b81610d5b565b82525050565b60006020820190506110666000830184611042565b92915050565b60008115159050919050565b6110818161106c565b82525050565b600060208201905061109c6000830184611078565b92915050565b60006110ad82610fb7565b9050919050565b6110bd816110a2565b82525050565b600081519050919050565b600082825260208201905092915050565b60005b838110156110fd5780820151818401526020810190506110e2565b60008484015250505050565b6000611114826110c3565b61111e81856110ce565b935061112e8185602086016110df565b61113781610dc8565b840191505092915050565b61114b81610fd7565b82525050565b600061014082019050611167600083018d611042565b611174602083018c6110b4565b8181036040830152611186818b611109565b9050818103606083015261119a818a611109565b90506111a96080830189611042565b6111b660a0830188611042565b6111c360c0830187611042565b6111d060e0830186611142565b6111de610100830185611042565b6111ec610120830184611078565b9b9a5050505050505050505050565b7f4e487b7100000000000000000000000000000000000000000000000000000000600052603260045260246000fd5b7f41756374696f6e20616c726561647920656e6465642e00000000000000000000600082015250565b60006112606016836110ce565b915061126b8261122a565b602082019050919050565b6000602082019050818103600083015261128f81611253565b9050919050565b7f4275796f7574207072696365206e6f74206d65742e0000000000000000000000600082015250565b60006112cc6015836110ce565b91506112d782611296565b602082019050919050565b600060208201905081810360008301526112fb816112bf565b9050919050565b60006060820190506113176000830186611042565b6113246020830185611142565b6113316040830184611042565b949350505050565b7f4e487b7100000000000000000000000000000000000000000000000000000000600052601160045260246000fd5b600061137382610d5b565b915061137e83610d5b565b925082820190508082111561139657611395611339565b5b92915050565b7f4e487b7100000000000000000000000000000000000000000000000000000000600052602260045260246000fd5b600060028204905060018216806113e357607f821691505b6020821081036113f6576113f561139c565b5b50919050565b60008190508160005260206000209050919050565b60006020601f8301049050919050565b600082821b905092915050565b60006008830261145e7fffffffffffffffffffffffffffffffffffffffffffffffffffffffffffffffff82611421565b6114688683611421565b95508019841693508086168417925050509392505050565b6000819050919050565b60006114a56114a061149b84610d5b565b611480565b610d5b565b9050919050565b6000819050919050565b6114bf8361148a565b6114d36114cb826114ac565b84845461142e565b825550505050565b600090565b6114e86114db565b6114f38184846114b6565b505050565b5b818110156115175761150c6000826114e0565b6001810190506114f9565b5050565b601f82111561155c5761152d816113fc565b61153684611411565b81016020851015611545578190505b61155961155185611411565b8301826114f8565b50505b505050565b600082821c905092915050565b600061157f60001984600802611561565b1980831691505092915050565b6000611598838361156e565b9150826002028217905092915050565b6115b1826110c3565b67ffffffffffffffff8111156115ca576115c9610dd9565b5b6115d482546113cb565b6115df82828561151b565b600060209050601f8311600181146116125760008415611600578287015190505b61160a858261158c565b865550611672565b601f198416611620866113fc565b60005b8281101561164857848901518255600182019150602085019450602081019050611623565b868310156116655784890151611661601f89168261156e565b8355505b6001600288020188555050505b505050505050565b600061168582610d5b565b915061169083610d5b565b92508282039050818111156116a8576116a7611339565b5b92915050565b600060a0820190506116c36000830188611042565b81810360208301526116d58187611109565b90506116e46040830186611042565b6116f16060830185611042565b6116fe6080830184611042565b9695505050505050565b7f546865726520616c7265616479206973206120686967686572206269642e0000600082015250565b600061173e601e836110ce565b915061174982611708565b602082019050919050565b6000602082019050818103600083015261176d81611731565b9050919050565b7f41756374696f6e206e6f742079657420656e6465642e00000000000000000000600082015250565b60006117aa6016836110ce565b91506117b582611774565b602082019050919050565b600060208201905081810360008301526117d98161179d565b9050919050565b7f41756374696f6e20656e642068617320616c7265616479206265656e2063616c60008201527f6c65642e00000000000000000000000000000000000000000000000000000000602082015250565b600061183c6024836110ce565b9150611847826117e0565b604082019050919050565b6000602082019050818103600083015261186b8161182f565b905091905056fea26469706673582212206383b29391b6485eeac8392aadf9ac90c44241113f644d2773959f91503c385b64736f6c6343000813003368747470733a2f2f7777772e73776f726473616e7469717565776561706f6e732e636f6d2f696d616765732f7332333331622e6a706768747470733a2f2f6d756c7469776f6f642e636f6d2e706b2f63646e2f73686f702f70726f64756374732f506963736172745f32322d31302d32335f30332d35332d33332d3831325f3130303078313030302e6a70673f763d3136363634373937323668747470733a2f2f7777772e3030372e636f6d2f77702d636f6e74656e742f75706c6f6164732f323032322f30382f4c43432d4c532e6a706768747470733a2f2f7777772e68656d7377656c6c2d616e7469717565732e636f6d2f75706c6f6164732f6d656469612f6e6577732f303030312f39352f7468756d625f39343733395f6e6577735f776964652e6a70656768747470733a2f2f6969312e7065707065726672792e636f6d2f6d656469612f636174616c6f672f70726f647563742f672f6f2f343934783534342f676f6c642d62726173732d616e642d776f6f642d656d626f737365642d686f726e2d616e642d6772616d6f70686f6e652d62792d6578696d2d6465636f722d676f6c642d62726173732d616e642d776f6f642d656d626f737365642d686f726e2d616e642d666a697a74352e6a706768747470733a2f2f692e70636d61672e636f6d2f696d61676572792f6c696e6575706974656d732f30367352636b3141696d62664f785777525976454271582e6669745f6c696d2e73697a655f31303530783537382e76313536393530383734382e6a706768747470733a2f2f692e726564642e69742f6f6d3939356671386a387561312e6a706768747470733a2f2f6d2e6d656469612d616d617a6f6e2e636f6d2f696d616765732f492f37317451432d323739754c2e6a7067",
  "immutableReferences": {},
  "source": "// SPDX-License-Identifier: MIT\npragma solidity ^0.8.0;\n\ncontract DecentralizedAuction {\n    struct Item {\n        uint id;\n        address payable seller;\n        string name;\n        string imageUrl;\n        uint minBid;\n        uint buyoutPrice;\n        uint auctionEndTime;\n        address highestBidder;\n        uint highestBid;\n        bool ended;\n    }\n\n    Item[] public items;\n    mapping(address => uint) public pendingReturns;\n\n    event AuctionCreated(uint itemId, string name, uint minBid, uint buyoutPrice, uint auctionEndTime);\n    event HighestBidIncreased(uint itemId, address bidder, uint amount);\n    event AuctionEnded(uint itemId, address winner, uint amount);\n    event ItemBoughtOut(uint itemId, address buyer, uint amount);\n\n    constructor() {\n        addItem(\"Vintage Phone\", \"https://m.media-amazon.com/images/I/71tQC-279uL.jpg\", 1 ether, 5 ether, 180 minutes);\n        addItem(\"Record Player\", \"https://ii1.pepperfry.com/media/catalog/product/g/o/494x544/gold-brass-and-wood-embossed-horn-and-gramophone-by-exim-decor-gold-brass-and-wood-embossed-horn-and-fjizt5.jpg\", 2 ether, 7 ether, 180 minutes);\n        addItem(\"Aladdin Movie Prop\", \"https://multiwood.com.pk/cdn/shop/products/Picsart_22-10-23_03-53-33-812_1000x1000.jpg?v=1666479726\", 3 ether, 10 ether, 180 minutes);\n        addItem(\"Sword\", \"https://www.swordsantiqueweapons.com/images/s2331b.jpg\", 3 ether, 10 ether, 1 minutes);\n        addItem(\"Flintlock\", \"https://www.hemswell-antiques.com/uploads/media/news/0001/95/thumb_94739_news_wide.jpeg\", 3 ether, 10 ether, 3 minutes);\n        addItem(\"James Bond's DB5\", \"https://www.007.com/wp-content/uploads/2022/08/LCC-LS.jpg\", 3 ether, 10 ether, 5 minutes);\n        addItem(\"Commodore PET\", \"https://i.redd.it/om995fq8j8ua1.jpg\", 3 ether, 10 ether, 5 minutes);\n        addItem(\"HP Palmtop\", \"https://i.pcmag.com/imagery/lineupitems/06sRck1AimbfOxWwRYvEBqX.fit_lim.size_1050x578.v1569508748.jpg\", 3 ether, 10 ether, 5 minutes);\n    }\n\n    function addItem(string memory name, string memory imageUrl, uint minBid, uint buyoutPrice, uint biddingTime) public {\n        uint auctionEndTime = block.timestamp + biddingTime;\n        items.push(Item({\n            id: items.length,\n            seller: payable(msg.sender),\n            name: name,\n            imageUrl: imageUrl,\n            minBid: minBid,\n            buyoutPrice: buyoutPrice,\n            auctionEndTime: auctionEndTime,\n            highestBidder: address(0),\n            highestBid: 0,\n            ended: false\n        }));\n        emit AuctionCreated(items.length - 1, name, minBid, buyoutPrice, auctionEndTime);\n    }\n\n    function bid(uint itemId) public payable {\n        Item storage item = items[itemId];\n        require(block.timestamp < item.auctionEndTime, \"Auction already ended.\");\n        require(msg.value > item.highestBid, \"There already is a higher bid.\");\n        if (item.highestBidder != address(0)) {\n            pendingReturns[item.highestBidder] += item.highestBid;\n        }\n        item.highestBidder = msg.sender;\n        item.highestBid = msg.value;\n        emit HighestBidIncreased(itemId, msg.sender, msg.value);\n    }\n\n    function withdraw() public returns (bool) {\n        uint amount = pendingReturns[msg.sender];\n        if (amount > 0) {\n            pendingReturns[msg.sender] = 0;\n            if (!payable(msg.sender).send(amount)) {\n                pendingReturns[msg.sender] = amount;\n                return false;\n            }\n        }\n        return true;\n    }\n\n    function buyout(uint itemId) public payable {\n        Item storage item = items[itemId];\n        require(block.timestamp < item.auctionEndTime, \"Auction already ended.\");\n        require(msg.value >= item.buyoutPrice, \"Buyout price not met.\");\n        item.ended = true;\n        item.auctionEndTime = block.timestamp;\n        item.seller.transfer(msg.value);\n        emit ItemBoughtOut(itemId, msg.sender, msg.value);\n    }\n\n    function endAuction(uint itemId) public {\n        Item storage item = items[itemId];\n        require(block.timestamp >= item.auctionEndTime, \"Auction not yet ended.\");\n        require(!item.ended, \"Auction end has already been called.\");\n        item.ended = true;\n        if (item.highestBidder != address(0)) {\n            item.seller.transfer(item.highestBid);\n            emit AuctionEnded(itemId, item.highestBidder, item.highestBid);\n        }\n    }\n\n    function itemsCount() public view returns (uint) {\n        return items.length;\n    }\n\n    function timeLeft(uint itemId) public view returns (uint) {\n    Item storage item = items[itemId];\n    if (block.timestamp >= item.auctionEndTime) {\n        return 0;\n    }\n    return item.auctionEndTime - block.timestamp;\n}\n\n\n}\n",
  "sourcePath": "/home/farazmajid/Documents/Decentralized-Auction/backend/contracts/DecentralizedAuction.sol",
  "compiler": {
    "name": "solc",
    "version": "0.8.19+commit.7dd6d404.Emscripten.clang"
  },
  "schemaVersion": "3.4.16",
  "updatedAt": "2024-05-03T18:20:01.981Z",
  "networkType": "ethereum",
  "devdoc": {
    "kind": "dev",
    "methods": {},
    "version": 1
  },
  "userdoc": {
    "kind": "user",
    "methods": {},
    "version": 1
  }
}