{
  "contractName": "DecentralizedAuction",
  "abi": [
    {
      "inputs": [],
      "stateMutability": "nonpayable",
      "type": "constructor"
    },
    {
      "anonymous": false,
      "inputs": [
        {
          "indexed": false,
          "internalType": "uint256",
          "name": "itemId",
          "type": "uint256"
        },
        {
          "indexed": false,
          "internalType": "string",
          "name": "name",
          "type": "string"
        },
        {
          "indexed": false,
          "internalType": "uint256",
          "name": "minBid",
          "type": "uint256"
        },
        {
          "indexed": false,
          "internalType": "uint256",
          "name": "buyoutPrice",
          "type": "uint256"
        },
        {
          "indexed": false,
          "internalType": "uint256",
          "name": "auctionEndTime",
          "type": "uint256"
        }
      ],
      "name": "AuctionCreated",
      "type": "event"
    },
    {
      "anonymous": false,
      "inputs": [
        {
          "indexed": false,
          "internalType": "uint256",
          "name": "itemId",
          "type": "uint256"
        },
        {
          "indexed": false,
          "internalType": "address",
          "name": "winner",
          "type": "address"
        },
        {
          "indexed": false,
          "internalType": "uint256",
          "name": "amount",
          "type": "uint256"
        }
      ],
      "name": "AuctionEnded",
      "type": "event"
    },
    {
      "anonymous": false,
      "inputs": [
        {
          "indexed": false,
          "internalType": "uint256",
          "name": "itemId",
          "type": "uint256"
        },
        {
          "indexed": false,
          "internalType": "address",
          "name": "bidder",
          "type": "address"
        },
        {
          "indexed": false,
          "internalType": "uint256",
          "name": "amount",
          "type": "uint256"
        }
      ],
      "name": "HighestBidIncreased",
      "type": "event"
    },
    {
      "anonymous": false,
      "inputs": [
        {
          "indexed": false,
          "internalType": "uint256",
          "name": "itemId",
          "type": "uint256"
        },
        {
          "indexed": false,
          "internalType": "address",
          "name": "buyer",
          "type": "address"
        },
        {
          "indexed": false,
          "internalType": "uint256",
          "name": "amount",
          "type": "uint256"
        }
      ],
      "name": "ItemBoughtOut",
      "type": "event"
    },
    {
      "anonymous": false,
      "inputs": [
        {
          "indexed": false,
          "internalType": "address",
          "name": "userAddress",
          "type": "address"
        },
        {
          "indexed": false,
          "internalType": "string",
          "name": "username",
          "type": "string"
        }
      ],
      "name": "UserRegistered",
      "type": "event"
    },
    {
      "inputs": [
        {
          "internalType": "uint256",
          "name": "",
          "type": "uint256"
        }
      ],
      "name": "items",
      "outputs": [
        {
          "internalType": "uint256",
          "name": "id",
          "type": "uint256"
        },
        {
          "internalType": "address payable",
          "name": "seller",
          "type": "address"
        },
        {
          "internalType": "string",
          "name": "name",
          "type": "string"
        },
        {
          "internalType": "string",
          "name": "imageUrl",
          "type": "string"
        },
        {
          "internalType": "uint256",
          "name": "minBid",
          "type": "uint256"
        },
        {
          "internalType": "uint256",
          "name": "buyoutPrice",
          "type": "uint256"
        },
        {
          "internalType": "uint256",
          "name": "auctionEndTime",
          "type": "uint256"
        },
        {
          "internalType": "address",
          "name": "highestBidder",
          "type": "address"
        },
        {
          "internalType": "uint256",
          "name": "highestBid",
          "type": "uint256"
        },
        {
          "internalType": "bool",
          "name": "ended",
          "type": "bool"
        }
      ],
      "stateMutability": "view",
      "type": "function",
      "constant": true
    },
    {
      "inputs": [
        {
          "internalType": "address",
          "name": "",
          "type": "address"
        }
      ],
      "name": "pendingReturns",
      "outputs": [
        {
          "internalType": "uint256",
          "name": "",
          "type": "uint256"
        }
      ],
      "stateMutability": "view",
      "type": "function",
      "constant": true
    },
    {
      "inputs": [
        {
          "internalType": "address",
          "name": "",
          "type": "address"
        }
      ],
      "name": "registered",
      "outputs": [
        {
          "internalType": "bool",
          "name": "",
          "type": "bool"
        }
      ],
      "stateMutability": "view",
      "type": "function",
      "constant": true
    },
    {
      "inputs": [
        {
          "internalType": "address",
          "name": "",
          "type": "address"
        }
      ],
      "name": "users",
      "outputs": [
        {
          "internalType": "string",
          "name": "username",
          "type": "string"
        },
        {
          "internalType": "address",
          "name": "walletAddress",
          "type": "address"
        }
      ],
      "stateMutability": "view",
      "type": "function",
      "constant": true
    },
    {
      "inputs": [
        {
          "internalType": "string",
          "name": "_username",
          "type": "string"
        }
      ],
      "name": "registerUser",
      "outputs": [],
      "stateMutability": "nonpayable",
      "type": "function"
    },
    {
      "inputs": [
        {
          "internalType": "address",
          "name": "_userAddress",
          "type": "address"
        }
      ],
      "name": "getUser",
      "outputs": [
        {
          "components": [
            {
              "internalType": "string",
              "name": "username",
              "type": "string"
            },
            {
              "internalType": "address",
              "name": "walletAddress",
              "type": "address"
            }
          ],
          "internalType": "struct DecentralizedAuction.User",
          "name": "",
          "type": "tuple"
        }
      ],
      "stateMutability": "view",
      "type": "function",
      "constant": true
    },
    {
      "inputs": [
        {
          "internalType": "string",
          "name": "name",
          "type": "string"
        },
        {
          "internalType": "string",
          "name": "imageUrl",
          "type": "string"
        },
        {
          "internalType": "uint256",
          "name": "minBid",
          "type": "uint256"
        },
        {
          "internalType": "uint256",
          "name": "buyoutPrice",
          "type": "uint256"
        },
        {
          "internalType": "uint256",
          "name": "biddingTime",
          "type": "uint256"
        }
      ],
      "name": "addItem",
      "outputs": [],
      "stateMutability": "nonpayable",
      "type": "function"
    },
    {
      "inputs": [
        {
          "internalType": "uint256",
          "name": "itemId",
          "type": "uint256"
        }
      ],
      "name": "bid",
      "outputs": [],
      "stateMutability": "payable",
      "type": "function",
      "payable": true
    },
    {
      "inputs": [],
      "name": "withdraw",
      "outputs": [
        {
          "internalType": "bool",
          "name": "",
          "type": "bool"
        }
      ],
      "stateMutability": "nonpayable",
      "type": "function"
    },
    {
      "inputs": [
        {
          "internalType": "uint256",
          "name": "itemId",
          "type": "uint256"
        }
      ],
      "name": "buyout",
      "outputs": [],
      "stateMutability": "payable",
      "type": "function",
      "payable": true
    },
    {
      "inputs": [
        {
          "internalType": "uint256",
          "name": "itemId",
          "type": "uint256"
        }
      ],
      "name": "endAuction",
      "outputs": [],
      "stateMutability": "nonpayable",
      "type": "function"
    },
    {
      "inputs": [],
      "name": "itemsCount",
      "outputs": [
        {
          "internalType": "uint256",
          "name": "",
          "type": "uint256"
        }
      ],
      "stateMutability": "view",
      "type": "function",
      "constant": true
    },
    {
      "inputs": [
        {
          "internalType": "uint256",
          "name": "itemId",
          "type": "uint256"
        }
      ],
      "name": "timeLeft",
      "outputs": [
        {
          "internalType": "uint256",
          "name": "",
          "type": "uint256"
        }
      ],
      "stateMutability": "view",
      "type": "function",
      "constant": true
    }
  ],
  "bytecode": "0x60806040523480156200001157600080fd5b50620000876040518060400160405280600d81526020017f56696e746167652050686f6e650000000000000000000000000000000000000081525060405180606001604052806033815260200162002e2f60339139670de0b6b3a7640000674563918244f40000612a30620003be60201b60201c565b620000fc6040518060400160405280600d81526020017f5265636f726420506c61796572000000000000000000000000000000000000008152506040518060e0016040528060ab815260200162002cfc60ab9139671bc16d674ec80000676124fee993bc0000612a30620003be60201b60201c565b620001716040518060400160405280601281526020017f416c616464696e204d6f7669652050726f7000000000000000000000000000008152506040518060a001604052806063815260200162002c09606391396729a2241af62c0000678ac7230489e80000612a30620003be60201b60201c565b620001e56040518060400160405280600581526020017f53776f726400000000000000000000000000000000000000000000000000000081525060405180606001604052806036815260200162002bd3603691396729a2241af62c0000678ac7230489e80000603c620003be60201b60201c565b620002596040518060400160405280600981526020017f466c696e746c6f636b000000000000000000000000000000000000000000000081525060405180608001604052806057815260200162002ca5605791396729a2241af62c0000678ac7230489e8000060b4620003be60201b60201c565b620002ce6040518060400160405280601081526020017f4a616d657320426f6e642773204442350000000000000000000000000000000081525060405180606001604052806039815260200162002c6c603991396729a2241af62c0000678ac7230489e8000061012c620003be60201b60201c565b620003436040518060400160405280600d81526020017f436f6d6d6f646f7265205045540000000000000000000000000000000000000081525060405180606001604052806023815260200162002e0c602391396729a2241af62c0000678ac7230489e8000061012c620003be60201b60201c565b620003b86040518060400160405280600a81526020017f48502050616c6d746f70000000000000000000000000000000000000000000008152506040518060a001604052806065815260200162002da7606591396729a2241af62c0000678ac7230489e8000061012c620003be60201b60201c565b62000af1565b60008142620003ce919062000620565b9050600060405180610140016040528060008054905081526020013373ffffffffffffffffffffffffffffffffffffffff168152602001888152602001878152602001868152602001858152602001838152602001600073ffffffffffffffffffffffffffffffffffffffff168152602001600081526020016000151581525090806001815401808255809150506001900390600052602060002090600a02016000909190919091506000820151816000015560208201518160010160006101000a81548173ffffffffffffffffffffffffffffffffffffffff021916908373ffffffffffffffffffffffffffffffffffffffff1602179055506040820151816002019081620004df9190620008cb565b506060820151816003019081620004f79190620008cb565b506080820151816004015560a0820151816005015560c0820151816006015560e08201518160070160006101000a81548173ffffffffffffffffffffffffffffffffffffffff021916908373ffffffffffffffffffffffffffffffffffffffff16021790555061010082015181600801556101208201518160090160006101000a81548160ff02191690831515021790555050507f9f2d79365342a9f9f646a83e6191a18708a54c48f4924e82339e698793aff5fe6001600080549050620005c09190620009b2565b87868685604051620005d795949392919062000a8d565b60405180910390a1505050505050565b6000819050919050565b7f4e487b7100000000000000000000000000000000000000000000000000000000600052601160045260246000fd5b60006200062d82620005e7565b91506200063a83620005e7565b9250828201905080821115620006555762000654620005f1565b5b92915050565b600081519050919050565b7f4e487b7100000000000000000000000000000000000000000000000000000000600052604160045260246000fd5b7f4e487b7100000000000000000000000000000000000000000000000000000000600052602260045260246000fd5b60006002820490506001821680620006dd57607f821691505b602082108103620006f357620006f262000695565b5b50919050565b60008190508160005260206000209050919050565b60006020601f8301049050919050565b600082821b905092915050565b6000600883026200075d7fffffffffffffffffffffffffffffffffffffffffffffffffffffffffffffffff826200071e565b6200076986836200071e565b95508019841693508086168417925050509392505050565b6000819050919050565b6000620007ac620007a6620007a084620005e7565b62000781565b620005e7565b9050919050565b6000819050919050565b620007c8836200078b565b620007e0620007d782620007b3565b8484546200072b565b825550505050565b600090565b620007f7620007e8565b62000804818484620007bd565b505050565b5b818110156200082c5762000820600082620007ed565b6001810190506200080a565b5050565b601f8211156200087b576200084581620006f9565b62000850846200070e565b8101602085101562000860578190505b620008786200086f856200070e565b83018262000809565b50505b505050565b600082821c905092915050565b6000620008a06000198460080262000880565b1980831691505092915050565b6000620008bb83836200088d565b9150826002028217905092915050565b620008d6826200065b565b67ffffffffffffffff811115620008f257620008f162000666565b5b620008fe8254620006c4565b6200090b82828562000830565b600060209050601f8311600181146200094357600084156200092e578287015190505b6200093a8582620008ad565b865550620009aa565b601f1984166200095386620006f9565b60005b828110156200097d5784890151825560018201915060208501945060208101905062000956565b868310156200099d578489015162000999601f8916826200088d565b8355505b6001600288020188555050505b505050505050565b6000620009bf82620005e7565b9150620009cc83620005e7565b9250828203905081811115620009e757620009e6620005f1565b5b92915050565b620009f881620005e7565b82525050565b600082825260208201905092915050565b60005b8381101562000a2f57808201518184015260208101905062000a12565b60008484015250505050565b6000601f19601f8301169050919050565b600062000a59826200065b565b62000a658185620009fe565b935062000a7781856020860162000a0f565b62000a828162000a3b565b840191505092915050565b600060a08201905062000aa46000830188620009ed565b818103602083015262000ab8818762000a4c565b905062000ac96040830186620009ed565b62000ad86060830185620009ed565b62000ae76080830184620009ed565b9695505050505050565b6120d28062000b016000396000f3fe6080604052600436106100c25760003560e01c80636f77926b1161007f578063b2dd5c0711610059578063b2dd5c0714610271578063b9a2de3a146102ae578063bfb231d2146102d7578063e2c03ace1461031d576100c2565b80636f77926b146101cd578063704f1b941461020a578063a87430ba14610233576100c2565b806307bec66f146100c75780630abe0866146100e357806326b387bb1461010c5780633ccfd60b14610149578063454a2ab31461017457806347cb7a6814610190575b600080fd5b6100e160048036038101906100dc9190611382565b610348565b005b3480156100ef57600080fd5b5061010a600480360381019061010591906114f5565b6104ca565b005b34801561011857600080fd5b50610133600480360381019061012e9190611606565b6106e9565b6040516101409190611642565b60405180910390f35b34801561015557600080fd5b5061015e610701565b60405161016b9190611678565b60405180910390f35b61018e60048036038101906101899190611382565b610825565b005b34801561019c57600080fd5b506101b760048036038101906101b29190611382565b610a38565b6040516101c49190611642565b60405180910390f35b3480156101d957600080fd5b506101f460048036038101906101ef9190611606565b610a8d565b604051610201919061175e565b60405180910390f35b34801561021657600080fd5b50610231600480360381019061022c9190611780565b610c5a565b005b34801561023f57600080fd5b5061025a60048036038101906102559190611606565b610e45565b604051610268929190611822565b60405180910390f35b34801561027d57600080fd5b5061029860048036038101906102939190611606565b610f11565b6040516102a59190611678565b60405180910390f35b3480156102ba57600080fd5b506102d560048036038101906102d09190611382565b610f31565b005b3480156102e357600080fd5b506102fe60048036038101906102f99190611382565b61113b565b6040516103149a99989796959493929190611873565b60405180910390f35b34801561032957600080fd5b506103326112fc565b60405161033f9190611642565b60405180910390f35b600080828154811061035d5761035c61191d565b5b90600052602060002090600a02019050806006015442106103b3576040517f08c379a00000000000000000000000000000000000000000000000000000000081526004016103aa90611998565b60405180910390fd5b80600501543410156103fa576040517f08c379a00000000000000000000000000000000000000000000000000000000081526004016103f190611a04565b60405180910390fd5b60018160090160006101000a81548160ff0219169083151502179055504281600601819055508060010160009054906101000a900473ffffffffffffffffffffffffffffffffffffffff1673ffffffffffffffffffffffffffffffffffffffff166108fc349081150290604051600060405180830381858888f1935050505015801561048a573d6000803e3d6000fd5b507f713f19a7f9a1e0c7daa8679ac03a7574d05a0fa17776c383c91aafff17c7f3568233346040516104be93929190611a24565b60405180910390a15050565b600081426104d89190611a8a565b9050600060405180610140016040528060008054905081526020013373ffffffffffffffffffffffffffffffffffffffff168152602001888152602001878152602001868152602001858152602001838152602001600073ffffffffffffffffffffffffffffffffffffffff168152602001600081526020016000151581525090806001815401808255809150506001900390600052602060002090600a02016000909190919091506000820151816000015560208201518160010160006101000a81548173ffffffffffffffffffffffffffffffffffffffff021916908373ffffffffffffffffffffffffffffffffffffffff16021790555060408201518160020190816105e79190611cca565b5060608201518160030190816105fd9190611cca565b506080820151816004015560a0820151816005015560c0820151816006015560e08201518160070160006101000a81548173ffffffffffffffffffffffffffffffffffffffff021916908373ffffffffffffffffffffffffffffffffffffffff16021790555061010082015181600801556101208201518160090160006101000a81548160ff02191690831515021790555050507f9f2d79365342a9f9f646a83e6191a18708a54c48f4924e82339e698793aff5fe60016000805490506106c49190611d9c565b878686856040516106d9959493929190611dd0565b60405180910390a1505050505050565b60036020528060005260406000206000915090505481565b600080600360003373ffffffffffffffffffffffffffffffffffffffff1673ffffffffffffffffffffffffffffffffffffffff168152602001908152602001600020549050600081111561081c576000600360003373ffffffffffffffffffffffffffffffffffffffff1673ffffffffffffffffffffffffffffffffffffffff168152602001908152602001600020819055503373ffffffffffffffffffffffffffffffffffffffff166108fc829081150290604051600060405180830381858888f1935050505061081b5780600360003373ffffffffffffffffffffffffffffffffffffffff1673ffffffffffffffffffffffffffffffffffffffff168152602001908152602001600020819055506000915050610822565b5b60019150505b90565b600080828154811061083a5761083961191d565b5b90600052602060002090600a0201905080600601544210610890576040517f08c379a000000000000000000000000000000000000000000000000000000000815260040161088790611998565b60405180910390fd5b806008015434116108d6576040517f08c379a00000000000000000000000000000000000000000000000000000000081526004016108cd90611e76565b60405180910390fd5b600073ffffffffffffffffffffffffffffffffffffffff168160070160009054906101000a900473ffffffffffffffffffffffffffffffffffffffff1673ffffffffffffffffffffffffffffffffffffffff16146109ad578060080154600360008360070160009054906101000a900473ffffffffffffffffffffffffffffffffffffffff1673ffffffffffffffffffffffffffffffffffffffff1673ffffffffffffffffffffffffffffffffffffffff16815260200190815260200160002060008282546109a59190611a8a565b925050819055505b338160070160006101000a81548173ffffffffffffffffffffffffffffffffffffffff021916908373ffffffffffffffffffffffffffffffffffffffff1602179055503481600801819055507fda0a18da71d8ebd145966339a728fc0d8ccc07c22870d561890d823c515dda6b823334604051610a2c93929190611a24565b60405180910390a15050565b60008060008381548110610a4f57610a4e61191d565b5b90600052602060002090600a0201905080600601544210610a74576000915050610a88565b428160060154610a849190611d9c565b9150505b919050565b610a95611308565b600260008373ffffffffffffffffffffffffffffffffffffffff1673ffffffffffffffffffffffffffffffffffffffff16815260200190815260200160002060009054906101000a900460ff16610b21576040517f08c379a0000000000000000000000000000000000000000000000000000000008152600401610b1890611ee2565b60405180910390fd5b600160008373ffffffffffffffffffffffffffffffffffffffff1673ffffffffffffffffffffffffffffffffffffffff168152602001908152602001600020604051806040016040529081600082018054610b7b90611aed565b80601f0160208091040260200160405190810160405280929190818152602001828054610ba790611aed565b8015610bf45780601f10610bc957610100808354040283529160200191610bf4565b820191906000526020600020905b815481529060010190602001808311610bd757829003601f168201915b505050505081526020016001820160009054906101000a900473ffffffffffffffffffffffffffffffffffffffff1673ffffffffffffffffffffffffffffffffffffffff1673ffffffffffffffffffffffffffffffffffffffff16815250509050919050565b600260003373ffffffffffffffffffffffffffffffffffffffff1673ffffffffffffffffffffffffffffffffffffffff16815260200190815260200160002060009054906101000a900460ff1615610ce7576040517f08c379a0000000000000000000000000000000000000000000000000000000008152600401610cde90611f4e565b60405180910390fd5b60405180604001604052808281526020013373ffffffffffffffffffffffffffffffffffffffff16815250600160003373ffffffffffffffffffffffffffffffffffffffff1673ffffffffffffffffffffffffffffffffffffffff1681526020019081526020016000206000820151816000019081610d669190611cca565b5060208201518160010160006101000a81548173ffffffffffffffffffffffffffffffffffffffff021916908373ffffffffffffffffffffffffffffffffffffffff1602179055509050506001600260003373ffffffffffffffffffffffffffffffffffffffff1673ffffffffffffffffffffffffffffffffffffffff16815260200190815260200160002060006101000a81548160ff0219169083151502179055507f48cac28ad4dc618e15f4c2dd5e97751182f166de97b25618318b2112aa951a2f3382604051610e3a929190611f6e565b60405180910390a150565b6001602052806000526040600020600091509050806000018054610e6890611aed565b80601f0160208091040260200160405190810160405280929190818152602001828054610e9490611aed565b8015610ee15780601f10610eb657610100808354040283529160200191610ee1565b820191906000526020600020905b815481529060010190602001808311610ec457829003601f168201915b5050505050908060010160009054906101000a900473ffffffffffffffffffffffffffffffffffffffff16905082565b60026020528060005260406000206000915054906101000a900460ff1681565b6000808281548110610f4657610f4561191d565b5b90600052602060002090600a020190508060060154421015610f9d576040517f08c379a0000000000000000000000000000000000000000000000000000000008152600401610f9490611fea565b60405180910390fd5b8060090160009054906101000a900460ff1615610fef576040517f08c379a0000000000000000000000000000000000000000000000000000000008152600401610fe69061207c565b60405180910390fd5b60018160090160006101000a81548160ff021916908315150217905550600073ffffffffffffffffffffffffffffffffffffffff168160070160009054906101000a900473ffffffffffffffffffffffffffffffffffffffff1673ffffffffffffffffffffffffffffffffffffffff1614611137578060010160009054906101000a900473ffffffffffffffffffffffffffffffffffffffff1673ffffffffffffffffffffffffffffffffffffffff166108fc82600801549081150290604051600060405180830381858888f193505050501580156110d2573d6000803e3d6000fd5b507fd2aa34a4fdbbc6dff6a3e56f46e0f3ae2a31d7785ff3487aa5c95c642acea501828260070160009054906101000a900473ffffffffffffffffffffffffffffffffffffffff16836008015460405161112e93929190611a24565b60405180910390a15b5050565b6000818154811061114b57600080fd5b90600052602060002090600a02016000915090508060000154908060010160009054906101000a900473ffffffffffffffffffffffffffffffffffffffff169080600201805461119a90611aed565b80601f01602080910402602001604051908101604052809291908181526020018280546111c690611aed565b80156112135780601f106111e857610100808354040283529160200191611213565b820191906000526020600020905b8154815290600101906020018083116111f657829003601f168201915b50505050509080600301805461122890611aed565b80601f016020809104026020016040519081016040528092919081815260200182805461125490611aed565b80156112a15780601f10611276576101008083540402835291602001916112a1565b820191906000526020600020905b81548152906001019060200180831161128457829003601f168201915b5050505050908060040154908060050154908060060154908060070160009054906101000a900473ffffffffffffffffffffffffffffffffffffffff16908060080154908060090160009054906101000a900460ff1690508a565b60008080549050905090565b604051806040016040528060608152602001600073ffffffffffffffffffffffffffffffffffffffff1681525090565b6000604051905090565b600080fd5b600080fd5b6000819050919050565b61135f8161134c565b811461136a57600080fd5b50565b60008135905061137c81611356565b92915050565b60006020828403121561139857611397611342565b5b60006113a68482850161136d565b91505092915050565b600080fd5b600080fd5b6000601f19601f8301169050919050565b7f4e487b7100000000000000000000000000000000000000000000000000000000600052604160045260246000fd5b611402826113b9565b810181811067ffffffffffffffff82111715611421576114206113ca565b5b80604052505050565b6000611434611338565b905061144082826113f9565b919050565b600067ffffffffffffffff8211156114605761145f6113ca565b5b611469826113b9565b9050602081019050919050565b82818337600083830152505050565b600061149861149384611445565b61142a565b9050828152602081018484840111156114b4576114b36113b4565b5b6114bf848285611476565b509392505050565b600082601f8301126114dc576114db6113af565b5b81356114ec848260208601611485565b91505092915050565b600080600080600060a0868803121561151157611510611342565b5b600086013567ffffffffffffffff81111561152f5761152e611347565b5b61153b888289016114c7565b955050602086013567ffffffffffffffff81111561155c5761155b611347565b5b611568888289016114c7565b94505060406115798882890161136d565b935050606061158a8882890161136d565b925050608061159b8882890161136d565b9150509295509295909350565b600073ffffffffffffffffffffffffffffffffffffffff82169050919050565b60006115d3826115a8565b9050919050565b6115e3816115c8565b81146115ee57600080fd5b50565b600081359050611600816115da565b92915050565b60006020828403121561161c5761161b611342565b5b600061162a848285016115f1565b91505092915050565b61163c8161134c565b82525050565b60006020820190506116576000830184611633565b92915050565b60008115159050919050565b6116728161165d565b82525050565b600060208201905061168d6000830184611669565b92915050565b600081519050919050565b600082825260208201905092915050565b60005b838110156116cd5780820151818401526020810190506116b2565b60008484015250505050565b60006116e482611693565b6116ee818561169e565b93506116fe8185602086016116af565b611707816113b9565b840191505092915050565b61171b816115c8565b82525050565b6000604083016000830151848203600086015261173e82826116d9565b91505060208301516117536020860182611712565b508091505092915050565b600060208201905081810360008301526117788184611721565b905092915050565b60006020828403121561179657611795611342565b5b600082013567ffffffffffffffff8111156117b4576117b3611347565b5b6117c0848285016114c7565b91505092915050565b600082825260208201905092915050565b60006117e582611693565b6117ef81856117c9565b93506117ff8185602086016116af565b611808816113b9565b840191505092915050565b61181c816115c8565b82525050565b6000604082019050818103600083015261183c81856117da565b905061184b6020830184611813565b9392505050565b600061185d826115a8565b9050919050565b61186d81611852565b82525050565b600061014082019050611889600083018d611633565b611896602083018c611864565b81810360408301526118a8818b6117da565b905081810360608301526118bc818a6117da565b90506118cb6080830189611633565b6118d860a0830188611633565b6118e560c0830187611633565b6118f260e0830186611813565b611900610100830185611633565b61190e610120830184611669565b9b9a5050505050505050505050565b7f4e487b7100000000000000000000000000000000000000000000000000000000600052603260045260246000fd5b7f41756374696f6e20616c726561647920656e6465642e00000000000000000000600082015250565b60006119826016836117c9565b915061198d8261194c565b602082019050919050565b600060208201905081810360008301526119b181611975565b9050919050565b7f4275796f7574207072696365206e6f74206d65742e0000000000000000000000600082015250565b60006119ee6015836117c9565b91506119f9826119b8565b602082019050919050565b60006020820190508181036000830152611a1d816119e1565b9050919050565b6000606082019050611a396000830186611633565b611a466020830185611813565b611a536040830184611633565b949350505050565b7f4e487b7100000000000000000000000000000000000000000000000000000000600052601160045260246000fd5b6000611a958261134c565b9150611aa08361134c565b9250828201905080821115611ab857611ab7611a5b565b5b92915050565b7f4e487b7100000000000000000000000000000000000000000000000000000000600052602260045260246000fd5b60006002820490506001821680611b0557607f821691505b602082108103611b1857611b17611abe565b5b50919050565b60008190508160005260206000209050919050565b60006020601f8301049050919050565b600082821b905092915050565b600060088302611b807fffffffffffffffffffffffffffffffffffffffffffffffffffffffffffffffff82611b43565b611b8a8683611b43565b95508019841693508086168417925050509392505050565b6000819050919050565b6000611bc7611bc2611bbd8461134c565b611ba2565b61134c565b9050919050565b6000819050919050565b611be183611bac565b611bf5611bed82611bce565b848454611b50565b825550505050565b600090565b611c0a611bfd565b611c15818484611bd8565b505050565b5b81811015611c3957611c2e600082611c02565b600181019050611c1b565b5050565b601f821115611c7e57611c4f81611b1e565b611c5884611b33565b81016020851015611c67578190505b611c7b611c7385611b33565b830182611c1a565b50505b505050565b600082821c905092915050565b6000611ca160001984600802611c83565b1980831691505092915050565b6000611cba8383611c90565b9150826002028217905092915050565b611cd382611693565b67ffffffffffffffff811115611cec57611ceb6113ca565b5b611cf68254611aed565b611d01828285611c3d565b600060209050601f831160018114611d345760008415611d22578287015190505b611d2c8582611cae565b865550611d94565b601f198416611d4286611b1e565b60005b82811015611d6a57848901518255600182019150602085019450602081019050611d45565b86831015611d875784890151611d83601f891682611c90565b8355505b6001600288020188555050505b505050505050565b6000611da78261134c565b9150611db28361134c565b9250828203905081811115611dca57611dc9611a5b565b5b92915050565b600060a082019050611de56000830188611633565b8181036020830152611df781876117da565b9050611e066040830186611633565b611e136060830185611633565b611e206080830184611633565b9695505050505050565b7f546865726520616c7265616479206973206120686967686572206269642e0000600082015250565b6000611e60601e836117c9565b9150611e6b82611e2a565b602082019050919050565b60006020820190508181036000830152611e8f81611e53565b9050919050565b7f55736572206e6f7420726567697374657265642e000000000000000000000000600082015250565b6000611ecc6014836117c9565b9150611ed782611e96565b602082019050919050565b60006020820190508181036000830152611efb81611ebf565b9050919050565b7f5573657220616c726561647920726567697374657265642e0000000000000000600082015250565b6000611f386018836117c9565b9150611f4382611f02565b602082019050919050565b60006020820190508181036000830152611f6781611f2b565b9050919050565b6000604082019050611f836000830185611813565b8181036020830152611f9581846117da565b90509392505050565b7f41756374696f6e206e6f742079657420656e6465642e00000000000000000000600082015250565b6000611fd46016836117c9565b9150611fdf82611f9e565b602082019050919050565b6000602082019050818103600083015261200381611fc7565b9050919050565b7f41756374696f6e20656e642068617320616c7265616479206265656e2063616c60008201527f6c65642e00000000000000000000000000000000000000000000000000000000602082015250565b60006120666024836117c9565b91506120718261200a565b604082019050919050565b6000602082019050818103600083015261209581612059565b905091905056fea2646970667358221220797e4c560233f3973e83d071da704a64b034c8445ed853bab025577864258e2964736f6c6343000813003368747470733a2f2f7777772e73776f726473616e7469717565776561706f6e732e636f6d2f696d616765732f7332333331622e6a706768747470733a2f2f6d756c7469776f6f642e636f6d2e706b2f63646e2f73686f702f70726f64756374732f506963736172745f32322d31302d32335f30332d35332d33332d3831325f3130303078313030302e6a70673f763d3136363634373937323668747470733a2f2f7777772e3030372e636f6d2f77702d636f6e74656e742f75706c6f6164732f323032322f30382f4c43432d4c532e6a706768747470733a2f2f7777772e68656d7377656c6c2d616e7469717565732e636f6d2f75706c6f6164732f6d656469612f6e6577732f303030312f39352f7468756d625f39343733395f6e6577735f776964652e6a70656768747470733a2f2f6969312e7065707065726672792e636f6d2f6d656469612f636174616c6f672f70726f647563742f672f6f2f343934783534342f676f6c642d62726173732d616e642d776f6f642d656d626f737365642d686f726e2d616e642d6772616d6f70686f6e652d62792d6578696d2d6465636f722d676f6c642d62726173732d616e642d776f6f642d656d626f737365642d686f726e2d616e642d666a697a74352e6a706768747470733a2f2f692e70636d61672e636f6d2f696d61676572792f6c696e6575706974656d732f30367352636b3141696d62664f785777525976454271582e6669745f6c696d2e73697a655f31303530783537382e76313536393530383734382e6a706768747470733a2f2f692e726564642e69742f6f6d3939356671386a387561312e6a706768747470733a2f2f6d2e6d656469612d616d617a6f6e2e636f6d2f696d616765732f492f37317451432d323739754c2e6a7067",
  "immutableReferences": {},
  "source": "// SPDX-License-Identifier: MIT\npragma solidity ^0.8.0;\n\ncontract DecentralizedAuction {\n    struct Item {\n        uint id;\n        address payable seller;\n        string name;\n        string imageUrl;\n        uint minBid;\n        uint buyoutPrice;\n        uint auctionEndTime;\n        address highestBidder;\n        uint highestBid;\n        bool ended;\n    }\n\n    struct User {\n        string username;\n        address walletAddress;\n    }\n\n    Item[] public items;\n    mapping(address => User) public users;\n    mapping(address => bool) public registered;\n    mapping(address => uint) public pendingReturns;\n\n    event UserRegistered(address userAddress, string username);\n    event AuctionCreated(uint itemId, string name, uint minBid, uint buyoutPrice, uint auctionEndTime);\n    event HighestBidIncreased(uint itemId, address bidder, uint amount);\n    event AuctionEnded(uint itemId, address winner, uint amount);\n    event ItemBoughtOut(uint itemId, address buyer, uint amount);\n\n    constructor() {\n        addItem(\"Vintage Phone\", \"https://m.media-amazon.com/images/I/71tQC-279uL.jpg\", 1 ether, 5 ether, 180 minutes);\n        addItem(\"Record Player\", \"https://ii1.pepperfry.com/media/catalog/product/g/o/494x544/gold-brass-and-wood-embossed-horn-and-gramophone-by-exim-decor-gold-brass-and-wood-embossed-horn-and-fjizt5.jpg\", 2 ether, 7 ether, 180 minutes);\n        addItem(\"Aladdin Movie Prop\", \"https://multiwood.com.pk/cdn/shop/products/Picsart_22-10-23_03-53-33-812_1000x1000.jpg?v=1666479726\", 3 ether, 10 ether, 180 minutes);\n        addItem(\"Sword\", \"https://www.swordsantiqueweapons.com/images/s2331b.jpg\", 3 ether, 10 ether, 1 minutes);\n        addItem(\"Flintlock\", \"https://www.hemswell-antiques.com/uploads/media/news/0001/95/thumb_94739_news_wide.jpeg\", 3 ether, 10 ether, 3 minutes);\n        addItem(\"James Bond's DB5\", \"https://www.007.com/wp-content/uploads/2022/08/LCC-LS.jpg\", 3 ether, 10 ether, 5 minutes);\n        addItem(\"Commodore PET\", \"https://i.redd.it/om995fq8j8ua1.jpg\", 3 ether, 10 ether, 5 minutes);\n        addItem(\"HP Palmtop\", \"https://i.pcmag.com/imagery/lineupitems/06sRck1AimbfOxWwRYvEBqX.fit_lim.size_1050x578.v1569508748.jpg\", 3 ether, 10 ether, 5 minutes);\n    }\n\n    function registerUser(string memory _username) public {\n        require(!registered[msg.sender], \"User already registered.\");\n        users[msg.sender] = User(_username, msg.sender);\n        registered[msg.sender] = true;\n        emit UserRegistered(msg.sender, _username);\n    }\n\n    function getUser(address _userAddress) public view returns (User memory) {\n        require(registered[_userAddress], \"User not registered.\");\n        return users[_userAddress];\n    }\n\n    function addItem(string memory name, string memory imageUrl, uint minBid, uint buyoutPrice, uint biddingTime) public {\n        uint auctionEndTime = block.timestamp + biddingTime;\n        items.push(Item({\n            id: items.length,\n            seller: payable(msg.sender),\n            name: name,\n            imageUrl: imageUrl,\n            minBid: minBid,\n            buyoutPrice: buyoutPrice,\n            auctionEndTime: auctionEndTime,\n            highestBidder: address(0),\n            highestBid: 0,\n            ended: false\n        }));\n        emit AuctionCreated(items.length - 1, name, minBid, buyoutPrice, auctionEndTime);\n    }\n\n    function bid(uint itemId) public payable {\n        Item storage item = items[itemId];\n        require(block.timestamp < item.auctionEndTime, \"Auction already ended.\");\n        require(msg.value > item.highestBid, \"There already is a higher bid.\");\n        if (item.highestBidder != address(0)) {\n            pendingReturns[item.highestBidder] += item.highestBid;\n        }\n        item.highestBidder = msg.sender;\n        item.highestBid = msg.value;\n        emit HighestBidIncreased(itemId, msg.sender, msg.value);\n    }\n\n    function withdraw() public returns (bool) {\n        uint amount = pendingReturns[msg.sender];\n        if (amount > 0) {\n            pendingReturns[msg.sender] = 0;\n            if (!payable(msg.sender).send(amount)) {\n                pendingReturns[msg.sender] = amount;\n                return false;\n            }\n        }\n        return true;\n    }\n\n    function buyout(uint itemId) public payable {\n        Item storage item = items[itemId];\n        require(block.timestamp < item.auctionEndTime, \"Auction already ended.\");\n        require(msg.value >= item.buyoutPrice, \"Buyout price not met.\");\n        item.ended = true;\n        item.auctionEndTime = block.timestamp;\n        item.seller.transfer(msg.value);\n        emit ItemBoughtOut(itemId, msg.sender, msg.value);\n    }\n\n    function endAuction(uint itemId) public {\n        Item storage item = items[itemId];\n        require(block.timestamp >= item.auctionEndTime, \"Auction not yet ended.\");\n        require(!item.ended, \"Auction end has already been called.\");\n        item.ended = true;\n        if (item.highestBidder != address(0)) {\n            item.seller.transfer(item.highestBid);\n            emit AuctionEnded(itemId, item.highestBidder, item.highestBid);\n        }\n    }\n\n    function itemsCount() public view returns (uint) {\n        return items.length;\n    }\n\n    function timeLeft(uint itemId) public view returns (uint) {\n        Item storage item = items[itemId];\n        if (block.timestamp >= item.auctionEndTime) {\n            return 0;\n        }\n        return item.auctionEndTime - block.timestamp;\n    }\n}\n",
  "sourcePath": "/home/farazmajid/Documents/Decentralized-Auction/backend/contracts/DecentralizedAuction.sol",
  "compiler": {
    "name": "solc",
    "version": "0.8.19+commit.7dd6d404.Emscripten.clang"
  },
  "schemaVersion": "3.4.16",
  "updatedAt": "2024-05-04T11:45:10.846Z",
  "networkType": "ethereum",
  "devdoc": {
    "kind": "dev",
    "methods": {},
    "version": 1
  },
  "userdoc": {
    "kind": "user",
    "methods": {},
    "version": 1
  }
}