{
  "contractName": "DecentralizedAuction",
  "abi": [
    {
      "inputs": [],
      "stateMutability": "nonpayable",
      "type": "constructor"
    },
    {
      "anonymous": false,
      "inputs": [
        {
          "indexed": false,
          "internalType": "uint256",
          "name": "itemId",
          "type": "uint256"
        },
        {
          "indexed": false,
          "internalType": "string",
          "name": "name",
          "type": "string"
        },
        {
          "indexed": false,
          "internalType": "uint256",
          "name": "minBid",
          "type": "uint256"
        },
        {
          "indexed": false,
          "internalType": "uint256",
          "name": "buyoutPrice",
          "type": "uint256"
        },
        {
          "indexed": false,
          "internalType": "uint256",
          "name": "auctionEndTime",
          "type": "uint256"
        }
      ],
      "name": "AuctionCreated",
      "type": "event"
    },
    {
      "anonymous": false,
      "inputs": [
        {
          "indexed": false,
          "internalType": "uint256",
          "name": "itemId",
          "type": "uint256"
        },
        {
          "indexed": false,
          "internalType": "address",
          "name": "winner",
          "type": "address"
        },
        {
          "indexed": false,
          "internalType": "uint256",
          "name": "amount",
          "type": "uint256"
        }
      ],
      "name": "AuctionEnded",
      "type": "event"
    },
    {
      "anonymous": false,
      "inputs": [
        {
          "indexed": false,
          "internalType": "uint256",
          "name": "itemId",
          "type": "uint256"
        },
        {
          "indexed": false,
          "internalType": "address",
          "name": "bidder",
          "type": "address"
        },
        {
          "indexed": false,
          "internalType": "uint256",
          "name": "amount",
          "type": "uint256"
        }
      ],
      "name": "HighestBidIncreased",
      "type": "event"
    },
    {
      "anonymous": false,
      "inputs": [
        {
          "indexed": false,
          "internalType": "uint256",
          "name": "itemId",
          "type": "uint256"
        },
        {
          "indexed": false,
          "internalType": "address",
          "name": "buyer",
          "type": "address"
        },
        {
          "indexed": false,
          "internalType": "uint256",
          "name": "amount",
          "type": "uint256"
        }
      ],
      "name": "ItemBoughtOut",
      "type": "event"
    },
    {
      "anonymous": false,
      "inputs": [
        {
          "indexed": false,
          "internalType": "address",
          "name": "userAddress",
          "type": "address"
        },
        {
          "indexed": false,
          "internalType": "string",
          "name": "username",
          "type": "string"
        }
      ],
      "name": "UserRegistered",
      "type": "event"
    },
    {
      "inputs": [
        {
          "internalType": "uint256",
          "name": "",
          "type": "uint256"
        }
      ],
      "name": "items",
      "outputs": [
        {
          "internalType": "uint256",
          "name": "id",
          "type": "uint256"
        },
        {
          "internalType": "address payable",
          "name": "seller",
          "type": "address"
        },
        {
          "internalType": "string",
          "name": "name",
          "type": "string"
        },
        {
          "internalType": "string",
          "name": "imageUrl",
          "type": "string"
        },
        {
          "internalType": "uint256",
          "name": "minBid",
          "type": "uint256"
        },
        {
          "internalType": "uint256",
          "name": "buyoutPrice",
          "type": "uint256"
        },
        {
          "internalType": "uint256",
          "name": "auctionEndTime",
          "type": "uint256"
        },
        {
          "internalType": "address",
          "name": "highestBidder",
          "type": "address"
        },
        {
          "internalType": "uint256",
          "name": "highestBid",
          "type": "uint256"
        },
        {
          "internalType": "bool",
          "name": "ended",
          "type": "bool"
        }
      ],
      "stateMutability": "view",
      "type": "function",
      "constant": true
    },
    {
      "inputs": [
        {
          "internalType": "address",
          "name": "",
          "type": "address"
        }
      ],
      "name": "pendingReturns",
      "outputs": [
        {
          "internalType": "uint256",
          "name": "",
          "type": "uint256"
        }
      ],
      "stateMutability": "view",
      "type": "function",
      "constant": true
    },
    {
      "inputs": [
        {
          "internalType": "address",
          "name": "",
          "type": "address"
        }
      ],
      "name": "registered",
      "outputs": [
        {
          "internalType": "bool",
          "name": "",
          "type": "bool"
        }
      ],
      "stateMutability": "view",
      "type": "function",
      "constant": true
    },
    {
      "inputs": [
        {
          "internalType": "address",
          "name": "",
          "type": "address"
        }
      ],
      "name": "users",
      "outputs": [
        {
          "internalType": "string",
          "name": "username",
          "type": "string"
        },
        {
          "internalType": "address",
          "name": "walletAddress",
          "type": "address"
        }
      ],
      "stateMutability": "view",
      "type": "function",
      "constant": true
    },
    {
      "inputs": [
        {
          "internalType": "string",
          "name": "_username",
          "type": "string"
        }
      ],
      "name": "registerUser",
      "outputs": [],
      "stateMutability": "nonpayable",
      "type": "function"
    },
    {
      "inputs": [
        {
          "internalType": "address",
          "name": "_userAddress",
          "type": "address"
        }
      ],
      "name": "getUser",
      "outputs": [
        {
          "components": [
            {
              "internalType": "string",
              "name": "username",
              "type": "string"
            },
            {
              "internalType": "address",
              "name": "walletAddress",
              "type": "address"
            }
          ],
          "internalType": "struct DecentralizedAuction.User",
          "name": "",
          "type": "tuple"
        }
      ],
      "stateMutability": "view",
      "type": "function",
      "constant": true
    },
    {
      "inputs": [
        {
          "internalType": "string",
          "name": "name",
          "type": "string"
        },
        {
          "internalType": "string",
          "name": "imageUrl",
          "type": "string"
        },
        {
          "internalType": "uint256",
          "name": "minBid",
          "type": "uint256"
        },
        {
          "internalType": "uint256",
          "name": "buyoutPrice",
          "type": "uint256"
        },
        {
          "internalType": "uint256",
          "name": "biddingTime",
          "type": "uint256"
        }
      ],
      "name": "addItem",
      "outputs": [],
      "stateMutability": "nonpayable",
      "type": "function"
    },
    {
      "inputs": [
        {
          "internalType": "uint256",
          "name": "itemId",
          "type": "uint256"
        }
      ],
      "name": "bid",
      "outputs": [],
      "stateMutability": "payable",
      "type": "function",
      "payable": true
    },
    {
      "inputs": [],
      "name": "withdraw",
      "outputs": [
        {
          "internalType": "bool",
          "name": "",
          "type": "bool"
        }
      ],
      "stateMutability": "nonpayable",
      "type": "function"
    },
    {
      "inputs": [
        {
          "internalType": "uint256",
          "name": "itemId",
          "type": "uint256"
        }
      ],
      "name": "buyout",
      "outputs": [],
      "stateMutability": "payable",
      "type": "function",
      "payable": true
    },
    {
      "inputs": [
        {
          "internalType": "uint256",
          "name": "itemId",
          "type": "uint256"
        }
      ],
      "name": "endAuction",
      "outputs": [],
      "stateMutability": "nonpayable",
      "type": "function"
    },
    {
      "inputs": [],
      "name": "itemsCount",
      "outputs": [
        {
          "internalType": "uint256",
          "name": "",
          "type": "uint256"
        }
      ],
      "stateMutability": "view",
      "type": "function",
      "constant": true
    },
    {
      "inputs": [
        {
          "internalType": "uint256",
          "name": "itemId",
          "type": "uint256"
        }
      ],
      "name": "timeLeft",
      "outputs": [
        {
          "internalType": "uint256",
          "name": "",
          "type": "uint256"
        }
      ],
      "stateMutability": "view",
      "type": "function",
      "constant": true
    },
    {
      "inputs": [],
      "name": "getAllUserItems",
      "outputs": [
        {
          "components": [
            {
              "internalType": "uint256",
              "name": "id",
              "type": "uint256"
            },
            {
              "internalType": "address payable",
              "name": "seller",
              "type": "address"
            },
            {
              "internalType": "string",
              "name": "name",
              "type": "string"
            },
            {
              "internalType": "string",
              "name": "imageUrl",
              "type": "string"
            },
            {
              "internalType": "uint256",
              "name": "minBid",
              "type": "uint256"
            },
            {
              "internalType": "uint256",
              "name": "buyoutPrice",
              "type": "uint256"
            },
            {
              "internalType": "uint256",
              "name": "auctionEndTime",
              "type": "uint256"
            },
            {
              "internalType": "address",
              "name": "highestBidder",
              "type": "address"
            },
            {
              "internalType": "uint256",
              "name": "highestBid",
              "type": "uint256"
            },
            {
              "internalType": "bool",
              "name": "ended",
              "type": "bool"
            }
          ],
          "internalType": "struct DecentralizedAuction.Item[]",
          "name": "",
          "type": "tuple[]"
        }
      ],
      "stateMutability": "view",
      "type": "function",
      "constant": true
    }
  ],
  "bytecode": "0x60806040523480156200001157600080fd5b50620000876040518060400160405280600d81526020017f56696e746167652050686f6e6500000000000000000000000000000000000000815250604051806060016040528060338152602001620035e160339139670de0b6b3a7640000674563918244f40000612a30620003be60201b60201c565b620000fc6040518060400160405280600d81526020017f5265636f726420506c61796572000000000000000000000000000000000000008152506040518060e0016040528060ab8152602001620034ae60ab9139671bc16d674ec80000676124fee993bc0000612a30620003be60201b60201c565b620001716040518060400160405280601281526020017f416c616464696e204d6f7669652050726f7000000000000000000000000000008152506040518060a0016040528060638152602001620033bb606391396729a2241af62c0000678ac7230489e80000612a30620003be60201b60201c565b620001e56040518060400160405280600581526020017f53776f726400000000000000000000000000000000000000000000000000000081525060405180606001604052806036815260200162003385603691396729a2241af62c0000678ac7230489e80000603c620003be60201b60201c565b620002596040518060400160405280600981526020017f466c696e746c6f636b000000000000000000000000000000000000000000000081525060405180608001604052806057815260200162003457605791396729a2241af62c0000678ac7230489e8000060b4620003be60201b60201c565b620002ce6040518060400160405280601081526020017f4a616d657320426f6e64277320444235000000000000000000000000000000008152506040518060600160405280603981526020016200341e603991396729a2241af62c0000678ac7230489e8000061012c620003be60201b60201c565b620003436040518060400160405280600d81526020017f436f6d6d6f646f72652050455400000000000000000000000000000000000000815250604051806060016040528060238152602001620035be602391396729a2241af62c0000678ac7230489e8000061012c620003be60201b60201c565b620003b86040518060400160405280600a81526020017f48502050616c6d746f70000000000000000000000000000000000000000000008152506040518060a001604052806065815260200162003559606591396729a2241af62c0000678ac7230489e8000061012c620003be60201b60201c565b62000af1565b60008142620003ce919062000620565b9050600060405180610140016040528060008054905081526020013373ffffffffffffffffffffffffffffffffffffffff168152602001888152602001878152602001868152602001858152602001838152602001600073ffffffffffffffffffffffffffffffffffffffff168152602001600081526020016000151581525090806001815401808255809150506001900390600052602060002090600a02016000909190919091506000820151816000015560208201518160010160006101000a81548173ffffffffffffffffffffffffffffffffffffffff021916908373ffffffffffffffffffffffffffffffffffffffff1602179055506040820151816002019081620004df9190620008cb565b506060820151816003019081620004f79190620008cb565b506080820151816004015560a0820151816005015560c0820151816006015560e08201518160070160006101000a81548173ffffffffffffffffffffffffffffffffffffffff021916908373ffffffffffffffffffffffffffffffffffffffff16021790555061010082015181600801556101208201518160090160006101000a81548160ff02191690831515021790555050507f9f2d79365342a9f9f646a83e6191a18708a54c48f4924e82339e698793aff5fe6001600080549050620005c09190620009b2565b87868685604051620005d795949392919062000a8d565b60405180910390a1505050505050565b6000819050919050565b7f4e487b7100000000000000000000000000000000000000000000000000000000600052601160045260246000fd5b60006200062d82620005e7565b91506200063a83620005e7565b9250828201905080821115620006555762000654620005f1565b5b92915050565b600081519050919050565b7f4e487b7100000000000000000000000000000000000000000000000000000000600052604160045260246000fd5b7f4e487b7100000000000000000000000000000000000000000000000000000000600052602260045260246000fd5b60006002820490506001821680620006dd57607f821691505b602082108103620006f357620006f262000695565b5b50919050565b60008190508160005260206000209050919050565b60006020601f8301049050919050565b600082821b905092915050565b6000600883026200075d7fffffffffffffffffffffffffffffffffffffffffffffffffffffffffffffffff826200071e565b6200076986836200071e565b95508019841693508086168417925050509392505050565b6000819050919050565b6000620007ac620007a6620007a084620005e7565b62000781565b620005e7565b9050919050565b6000819050919050565b620007c8836200078b565b620007e0620007d782620007b3565b8484546200072b565b825550505050565b600090565b620007f7620007e8565b62000804818484620007bd565b505050565b5b818110156200082c5762000820600082620007ed565b6001810190506200080a565b5050565b601f8211156200087b576200084581620006f9565b62000850846200070e565b8101602085101562000860578190505b620008786200086f856200070e565b83018262000809565b50505b505050565b600082821c905092915050565b6000620008a06000198460080262000880565b1980831691505092915050565b6000620008bb83836200088d565b9150826002028217905092915050565b620008d6826200065b565b67ffffffffffffffff811115620008f257620008f162000666565b5b620008fe8254620006c4565b6200090b82828562000830565b600060209050601f8311600181146200094357600084156200092e578287015190505b6200093a8582620008ad565b865550620009aa565b601f1984166200095386620006f9565b60005b828110156200097d5784890151825560018201915060208501945060208101905062000956565b868310156200099d578489015162000999601f8916826200088d565b8355505b6001600288020188555050505b505050505050565b6000620009bf82620005e7565b9150620009cc83620005e7565b9250828203905081811115620009e757620009e6620005f1565b5b92915050565b620009f881620005e7565b82525050565b600082825260208201905092915050565b60005b8381101562000a2f57808201518184015260208101905062000a12565b60008484015250505050565b6000601f19601f8301169050919050565b600062000a59826200065b565b62000a658185620009fe565b935062000a7781856020860162000a0f565b62000a828162000a3b565b840191505092915050565b600060a08201905062000aa46000830188620009ed565b818103602083015262000ab8818762000a4c565b905062000ac96040830186620009ed565b62000ad86060830185620009ed565b62000ae76080830184620009ed565b9695505050505050565b6128848062000b016000396000f3fe6080604052600436106100dd5760003560e01c80636f77926b1161007f578063b2dd5c0711610059578063b2dd5c07146102b7578063b9a2de3a146102f4578063bfb231d21461031d578063e2c03ace14610363576100dd565b80636f77926b14610213578063704f1b9414610250578063a87430ba14610279576100dd565b80632920e022116100bb5780632920e022146101645780633ccfd60b1461018f578063454a2ab3146101ba57806347cb7a68146101d6576100dd565b806307bec66f146100e25780630abe0866146100fe57806326b387bb14610127575b600080fd5b6100fc60048036038101906100f791906118fa565b61038e565b005b34801561010a57600080fd5b5061012560048036038101906101209190611a6d565b610510565b005b34801561013357600080fd5b5061014e60048036038101906101499190611b7e565b61072f565b60405161015b9190611bba565b60405180910390f35b34801561017057600080fd5b50610179610747565b6040516101869190611e51565b60405180910390f35b34801561019b57600080fd5b506101a4610bf8565b6040516101b19190611e82565b60405180910390f35b6101d460048036038101906101cf91906118fa565b610d1c565b005b3480156101e257600080fd5b506101fd60048036038101906101f891906118fa565b610f2f565b60405161020a9190611bba565b60405180910390f35b34801561021f57600080fd5b5061023a60048036038101906102359190611b7e565b610f84565b6040516102479190611eda565b60405180910390f35b34801561025c57600080fd5b5061027760048036038101906102729190611efc565b611151565b005b34801561028557600080fd5b506102a0600480360381019061029b9190611b7e565b61133c565b6040516102ae929190611f9e565b60405180910390f35b3480156102c357600080fd5b506102de60048036038101906102d99190611b7e565b611408565b6040516102eb9190611e82565b60405180910390f35b34801561030057600080fd5b5061031b600480360381019061031691906118fa565b611428565b005b34801561032957600080fd5b50610344600480360381019061033f91906118fa565b611632565b60405161035a9a99989796959493929190611fdd565b60405180910390f35b34801561036f57600080fd5b506103786117f3565b6040516103859190611bba565b60405180910390f35b60008082815481106103a3576103a2612087565b5b90600052602060002090600a02019050806006015442106103f9576040517f08c379a00000000000000000000000000000000000000000000000000000000081526004016103f090612102565b60405180910390fd5b8060050154341015610440576040517f08c379a00000000000000000000000000000000000000000000000000000000081526004016104379061216e565b60405180910390fd5b60018160090160006101000a81548160ff0219169083151502179055504281600601819055508060010160009054906101000a900473ffffffffffffffffffffffffffffffffffffffff1673ffffffffffffffffffffffffffffffffffffffff166108fc349081150290604051600060405180830381858888f193505050501580156104d0573d6000803e3d6000fd5b507f713f19a7f9a1e0c7daa8679ac03a7574d05a0fa17776c383c91aafff17c7f3568233346040516105049392919061218e565b60405180910390a15050565b6000814261051e91906121f4565b9050600060405180610140016040528060008054905081526020013373ffffffffffffffffffffffffffffffffffffffff168152602001888152602001878152602001868152602001858152602001838152602001600073ffffffffffffffffffffffffffffffffffffffff168152602001600081526020016000151581525090806001815401808255809150506001900390600052602060002090600a02016000909190919091506000820151816000015560208201518160010160006101000a81548173ffffffffffffffffffffffffffffffffffffffff021916908373ffffffffffffffffffffffffffffffffffffffff160217905550604082015181600201908161062d9190612434565b5060608201518160030190816106439190612434565b506080820151816004015560a0820151816005015560c0820151816006015560e08201518160070160006101000a81548173ffffffffffffffffffffffffffffffffffffffff021916908373ffffffffffffffffffffffffffffffffffffffff16021790555061010082015181600801556101208201518160090160006101000a81548160ff02191690831515021790555050507f9f2d79365342a9f9f646a83e6191a18708a54c48f4924e82339e698793aff5fe600160008054905061070a9190612506565b8786868560405161071f95949392919061253a565b60405180910390a1505050505050565b60036020528060005260406000206000915090505481565b6060600260003373ffffffffffffffffffffffffffffffffffffffff1673ffffffffffffffffffffffffffffffffffffffff16815260200190815260200160002060009054906101000a900460ff16156107d6576040517f08c379a00000000000000000000000000000000000000000000000000000000081526004016107cd906125e0565b60405180910390fd5b6000805b600080549050811015610881573373ffffffffffffffffffffffffffffffffffffffff166000828154811061081257610811612087565b5b90600052602060002090600a020160010160009054906101000a900473ffffffffffffffffffffffffffffffffffffffff1673ffffffffffffffffffffffffffffffffffffffff160361086e57818061086a90612600565b9250505b808061087990612600565b9150506107da565b5060008167ffffffffffffffff81111561089e5761089d611942565b5b6040519080825280602002602001820160405280156108d757816020015b6108c46117ff565b8152602001906001900390816108bc5790505b5090506000805b600080549050811015610bee573373ffffffffffffffffffffffffffffffffffffffff166000828154811061091657610915612087565b5b90600052602060002090600a020160010160009054906101000a900473ffffffffffffffffffffffffffffffffffffffff1673ffffffffffffffffffffffffffffffffffffffff1603610bdb576000818154811061097757610976612087565b5b90600052602060002090600a020160405180610140016040529081600082015481526020016001820160009054906101000a900473ffffffffffffffffffffffffffffffffffffffff1673ffffffffffffffffffffffffffffffffffffffff1673ffffffffffffffffffffffffffffffffffffffff168152602001600282018054610a0190612257565b80601f0160208091040260200160405190810160405280929190818152602001828054610a2d90612257565b8015610a7a5780601f10610a4f57610100808354040283529160200191610a7a565b820191906000526020600020905b815481529060010190602001808311610a5d57829003601f168201915b50505050508152602001600382018054610a9390612257565b80601f0160208091040260200160405190810160405280929190818152602001828054610abf90612257565b8015610b0c5780601f10610ae157610100808354040283529160200191610b0c565b820191906000526020600020905b815481529060010190602001808311610aef57829003601f168201915b505050505081526020016004820154815260200160058201548152602001600682015481526020016007820160009054906101000a900473ffffffffffffffffffffffffffffffffffffffff1673ffffffffffffffffffffffffffffffffffffffff1673ffffffffffffffffffffffffffffffffffffffff168152602001600882015481526020016009820160009054906101000a900460ff161515151581525050838381518110610bc157610bc0612087565b5b60200260200101819052508180610bd790612600565b9250505b8080610be690612600565b9150506108de565b5081935050505090565b600080600360003373ffffffffffffffffffffffffffffffffffffffff1673ffffffffffffffffffffffffffffffffffffffff1681526020019081526020016000205490506000811115610d13576000600360003373ffffffffffffffffffffffffffffffffffffffff1673ffffffffffffffffffffffffffffffffffffffff168152602001908152602001600020819055503373ffffffffffffffffffffffffffffffffffffffff166108fc829081150290604051600060405180830381858888f19350505050610d125780600360003373ffffffffffffffffffffffffffffffffffffffff1673ffffffffffffffffffffffffffffffffffffffff168152602001908152602001600020819055506000915050610d19565b5b60019150505b90565b6000808281548110610d3157610d30612087565b5b90600052602060002090600a0201905080600601544210610d87576040517f08c379a0000000000000000000000000000000000000000000000000000000008152600401610d7e90612102565b60405180910390fd5b80600801543411610dcd576040517f08c379a0000000000000000000000000000000000000000000000000000000008152600401610dc490612694565b60405180910390fd5b600073ffffffffffffffffffffffffffffffffffffffff168160070160009054906101000a900473ffffffffffffffffffffffffffffffffffffffff1673ffffffffffffffffffffffffffffffffffffffff1614610ea4578060080154600360008360070160009054906101000a900473ffffffffffffffffffffffffffffffffffffffff1673ffffffffffffffffffffffffffffffffffffffff1673ffffffffffffffffffffffffffffffffffffffff1681526020019081526020016000206000828254610e9c91906121f4565b925050819055505b338160070160006101000a81548173ffffffffffffffffffffffffffffffffffffffff021916908373ffffffffffffffffffffffffffffffffffffffff1602179055503481600801819055507fda0a18da71d8ebd145966339a728fc0d8ccc07c22870d561890d823c515dda6b823334604051610f239392919061218e565b60405180910390a15050565b60008060008381548110610f4657610f45612087565b5b90600052602060002090600a0201905080600601544210610f6b576000915050610f7f565b428160060154610f7b9190612506565b9150505b919050565b610f8c611880565b600260008373ffffffffffffffffffffffffffffffffffffffff1673ffffffffffffffffffffffffffffffffffffffff16815260200190815260200160002060009054906101000a900460ff16611018576040517f08c379a000000000000000000000000000000000000000000000000000000000815260040161100f906125e0565b60405180910390fd5b600160008373ffffffffffffffffffffffffffffffffffffffff1673ffffffffffffffffffffffffffffffffffffffff16815260200190815260200160002060405180604001604052908160008201805461107290612257565b80601f016020809104026020016040519081016040528092919081815260200182805461109e90612257565b80156110eb5780601f106110c0576101008083540402835291602001916110eb565b820191906000526020600020905b8154815290600101906020018083116110ce57829003601f168201915b505050505081526020016001820160009054906101000a900473ffffffffffffffffffffffffffffffffffffffff1673ffffffffffffffffffffffffffffffffffffffff1673ffffffffffffffffffffffffffffffffffffffff16815250509050919050565b600260003373ffffffffffffffffffffffffffffffffffffffff1673ffffffffffffffffffffffffffffffffffffffff16815260200190815260200160002060009054906101000a900460ff16156111de576040517f08c379a00000000000000000000000000000000000000000000000000000000081526004016111d590612700565b60405180910390fd5b60405180604001604052808281526020013373ffffffffffffffffffffffffffffffffffffffff16815250600160003373ffffffffffffffffffffffffffffffffffffffff1673ffffffffffffffffffffffffffffffffffffffff168152602001908152602001600020600082015181600001908161125d9190612434565b5060208201518160010160006101000a81548173ffffffffffffffffffffffffffffffffffffffff021916908373ffffffffffffffffffffffffffffffffffffffff1602179055509050506001600260003373ffffffffffffffffffffffffffffffffffffffff1673ffffffffffffffffffffffffffffffffffffffff16815260200190815260200160002060006101000a81548160ff0219169083151502179055507f48cac28ad4dc618e15f4c2dd5e97751182f166de97b25618318b2112aa951a2f3382604051611331929190612720565b60405180910390a150565b600160205280600052604060002060009150905080600001805461135f90612257565b80601f016020809104026020016040519081016040528092919081815260200182805461138b90612257565b80156113d85780601f106113ad576101008083540402835291602001916113d8565b820191906000526020600020905b8154815290600101906020018083116113bb57829003601f168201915b5050505050908060010160009054906101000a900473ffffffffffffffffffffffffffffffffffffffff16905082565b60026020528060005260406000206000915054906101000a900460ff1681565b600080828154811061143d5761143c612087565b5b90600052602060002090600a020190508060060154421015611494576040517f08c379a000000000000000000000000000000000000000000000000000000000815260040161148b9061279c565b60405180910390fd5b8060090160009054906101000a900460ff16156114e6576040517f08c379a00000000000000000000000000000000000000000000000000000000081526004016114dd9061282e565b60405180910390fd5b60018160090160006101000a81548160ff021916908315150217905550600073ffffffffffffffffffffffffffffffffffffffff168160070160009054906101000a900473ffffffffffffffffffffffffffffffffffffffff1673ffffffffffffffffffffffffffffffffffffffff161461162e578060010160009054906101000a900473ffffffffffffffffffffffffffffffffffffffff1673ffffffffffffffffffffffffffffffffffffffff166108fc82600801549081150290604051600060405180830381858888f193505050501580156115c9573d6000803e3d6000fd5b507fd2aa34a4fdbbc6dff6a3e56f46e0f3ae2a31d7785ff3487aa5c95c642acea501828260070160009054906101000a900473ffffffffffffffffffffffffffffffffffffffff1683600801546040516116259392919061218e565b60405180910390a15b5050565b6000818154811061164257600080fd5b90600052602060002090600a02016000915090508060000154908060010160009054906101000a900473ffffffffffffffffffffffffffffffffffffffff169080600201805461169190612257565b80601f01602080910402602001604051908101604052809291908181526020018280546116bd90612257565b801561170a5780601f106116df5761010080835404028352916020019161170a565b820191906000526020600020905b8154815290600101906020018083116116ed57829003601f168201915b50505050509080600301805461171f90612257565b80601f016020809104026020016040519081016040528092919081815260200182805461174b90612257565b80156117985780601f1061176d57610100808354040283529160200191611798565b820191906000526020600020905b81548152906001019060200180831161177b57829003601f168201915b5050505050908060040154908060050154908060060154908060070160009054906101000a900473ffffffffffffffffffffffffffffffffffffffff16908060080154908060090160009054906101000a900460ff1690508a565b60008080549050905090565b60405180610140016040528060008152602001600073ffffffffffffffffffffffffffffffffffffffff1681526020016060815260200160608152602001600081526020016000815260200160008152602001600073ffffffffffffffffffffffffffffffffffffffff168152602001600081526020016000151581525090565b604051806040016040528060608152602001600073ffffffffffffffffffffffffffffffffffffffff1681525090565b6000604051905090565b600080fd5b600080fd5b6000819050919050565b6118d7816118c4565b81146118e257600080fd5b50565b6000813590506118f4816118ce565b92915050565b6000602082840312156119105761190f6118ba565b5b600061191e848285016118e5565b91505092915050565b600080fd5b600080fd5b6000601f19601f8301169050919050565b7f4e487b7100000000000000000000000000000000000000000000000000000000600052604160045260246000fd5b61197a82611931565b810181811067ffffffffffffffff8211171561199957611998611942565b5b80604052505050565b60006119ac6118b0565b90506119b88282611971565b919050565b600067ffffffffffffffff8211156119d8576119d7611942565b5b6119e182611931565b9050602081019050919050565b82818337600083830152505050565b6000611a10611a0b846119bd565b6119a2565b905082815260208101848484011115611a2c57611a2b61192c565b5b611a378482856119ee565b509392505050565b600082601f830112611a5457611a53611927565b5b8135611a648482602086016119fd565b91505092915050565b600080600080600060a08688031215611a8957611a886118ba565b5b600086013567ffffffffffffffff811115611aa757611aa66118bf565b5b611ab388828901611a3f565b955050602086013567ffffffffffffffff811115611ad457611ad36118bf565b5b611ae088828901611a3f565b9450506040611af1888289016118e5565b9350506060611b02888289016118e5565b9250506080611b13888289016118e5565b9150509295509295909350565b600073ffffffffffffffffffffffffffffffffffffffff82169050919050565b6000611b4b82611b20565b9050919050565b611b5b81611b40565b8114611b6657600080fd5b50565b600081359050611b7881611b52565b92915050565b600060208284031215611b9457611b936118ba565b5b6000611ba284828501611b69565b91505092915050565b611bb4816118c4565b82525050565b6000602082019050611bcf6000830184611bab565b92915050565b600081519050919050565b600082825260208201905092915050565b6000819050602082019050919050565b611c0a816118c4565b82525050565b6000611c1b82611b20565b9050919050565b611c2b81611c10565b82525050565b600081519050919050565b600082825260208201905092915050565b60005b83811015611c6b578082015181840152602081019050611c50565b60008484015250505050565b6000611c8282611c31565b611c8c8185611c3c565b9350611c9c818560208601611c4d565b611ca581611931565b840191505092915050565b611cb981611b40565b82525050565b60008115159050919050565b611cd481611cbf565b82525050565b600061014083016000830151611cf36000860182611c01565b506020830151611d066020860182611c22565b5060408301518482036040860152611d1e8282611c77565b91505060608301518482036060860152611d388282611c77565b9150506080830151611d4d6080860182611c01565b5060a0830151611d6060a0860182611c01565b5060c0830151611d7360c0860182611c01565b5060e0830151611d8660e0860182611cb0565b50610100830151611d9b610100860182611c01565b50610120830151611db0610120860182611ccb565b508091505092915050565b6000611dc78383611cda565b905092915050565b6000602082019050919050565b6000611de782611bd5565b611df18185611be0565b935083602082028501611e0385611bf1565b8060005b85811015611e3f5784840389528151611e208582611dbb565b9450611e2b83611dcf565b925060208a01995050600181019050611e07565b50829750879550505050505092915050565b60006020820190508181036000830152611e6b8184611ddc565b905092915050565b611e7c81611cbf565b82525050565b6000602082019050611e976000830184611e73565b92915050565b60006040830160008301518482036000860152611eba8282611c77565b9150506020830151611ecf6020860182611cb0565b508091505092915050565b60006020820190508181036000830152611ef48184611e9d565b905092915050565b600060208284031215611f1257611f116118ba565b5b600082013567ffffffffffffffff811115611f3057611f2f6118bf565b5b611f3c84828501611a3f565b91505092915050565b600082825260208201905092915050565b6000611f6182611c31565b611f6b8185611f45565b9350611f7b818560208601611c4d565b611f8481611931565b840191505092915050565b611f9881611b40565b82525050565b60006040820190508181036000830152611fb88185611f56565b9050611fc76020830184611f8f565b9392505050565b611fd781611c10565b82525050565b600061014082019050611ff3600083018d611bab565b612000602083018c611fce565b8181036040830152612012818b611f56565b90508181036060830152612026818a611f56565b90506120356080830189611bab565b61204260a0830188611bab565b61204f60c0830187611bab565b61205c60e0830186611f8f565b61206a610100830185611bab565b612078610120830184611e73565b9b9a5050505050505050505050565b7f4e487b7100000000000000000000000000000000000000000000000000000000600052603260045260246000fd5b7f41756374696f6e20616c726561647920656e6465642e00000000000000000000600082015250565b60006120ec601683611f45565b91506120f7826120b6565b602082019050919050565b6000602082019050818103600083015261211b816120df565b9050919050565b7f4275796f7574207072696365206e6f74206d65742e0000000000000000000000600082015250565b6000612158601583611f45565b915061216382612122565b602082019050919050565b600060208201905081810360008301526121878161214b565b9050919050565b60006060820190506121a36000830186611bab565b6121b06020830185611f8f565b6121bd6040830184611bab565b949350505050565b7f4e487b7100000000000000000000000000000000000000000000000000000000600052601160045260246000fd5b60006121ff826118c4565b915061220a836118c4565b9250828201905080821115612222576122216121c5565b5b92915050565b7f4e487b7100000000000000000000000000000000000000000000000000000000600052602260045260246000fd5b6000600282049050600182168061226f57607f821691505b60208210810361228257612281612228565b5b50919050565b60008190508160005260206000209050919050565b60006020601f8301049050919050565b600082821b905092915050565b6000600883026122ea7fffffffffffffffffffffffffffffffffffffffffffffffffffffffffffffffff826122ad565b6122f486836122ad565b95508019841693508086168417925050509392505050565b6000819050919050565b600061233161232c612327846118c4565b61230c565b6118c4565b9050919050565b6000819050919050565b61234b83612316565b61235f61235782612338565b8484546122ba565b825550505050565b600090565b612374612367565b61237f818484612342565b505050565b5b818110156123a35761239860008261236c565b600181019050612385565b5050565b601f8211156123e8576123b981612288565b6123c28461229d565b810160208510156123d1578190505b6123e56123dd8561229d565b830182612384565b50505b505050565b600082821c905092915050565b600061240b600019846008026123ed565b1980831691505092915050565b600061242483836123fa565b9150826002028217905092915050565b61243d82611c31565b67ffffffffffffffff81111561245657612455611942565b5b6124608254612257565b61246b8282856123a7565b600060209050601f83116001811461249e576000841561248c578287015190505b6124968582612418565b8655506124fe565b601f1984166124ac86612288565b60005b828110156124d4578489015182556001820191506020850194506020810190506124af565b868310156124f157848901516124ed601f8916826123fa565b8355505b6001600288020188555050505b505050505050565b6000612511826118c4565b915061251c836118c4565b9250828203905081811115612534576125336121c5565b5b92915050565b600060a08201905061254f6000830188611bab565b81810360208301526125618187611f56565b90506125706040830186611bab565b61257d6060830185611bab565b61258a6080830184611bab565b9695505050505050565b7f55736572206e6f7420726567697374657265642e000000000000000000000000600082015250565b60006125ca601483611f45565b91506125d582612594565b602082019050919050565b600060208201905081810360008301526125f9816125bd565b9050919050565b600061260b826118c4565b91507fffffffffffffffffffffffffffffffffffffffffffffffffffffffffffffffff820361263d5761263c6121c5565b5b600182019050919050565b7f546865726520616c7265616479206973206120686967686572206269642e0000600082015250565b600061267e601e83611f45565b915061268982612648565b602082019050919050565b600060208201905081810360008301526126ad81612671565b9050919050565b7f5573657220616c726561647920726567697374657265642e0000000000000000600082015250565b60006126ea601883611f45565b91506126f5826126b4565b602082019050919050565b60006020820190508181036000830152612719816126dd565b9050919050565b60006040820190506127356000830185611f8f565b81810360208301526127478184611f56565b90509392505050565b7f41756374696f6e206e6f742079657420656e6465642e00000000000000000000600082015250565b6000612786601683611f45565b915061279182612750565b602082019050919050565b600060208201905081810360008301526127b581612779565b9050919050565b7f41756374696f6e20656e642068617320616c7265616479206265656e2063616c60008201527f6c65642e00000000000000000000000000000000000000000000000000000000602082015250565b6000612818602483611f45565b9150612823826127bc565b604082019050919050565b600060208201905081810360008301526128478161280b565b905091905056fea26469706673582212209d232d77e37d1adbea00bda4013ba9cdde38342b3de2e06608c8cd1280a7db3764736f6c6343000813003368747470733a2f2f7777772e73776f726473616e7469717565776561706f6e732e636f6d2f696d616765732f7332333331622e6a706768747470733a2f2f6d756c7469776f6f642e636f6d2e706b2f63646e2f73686f702f70726f64756374732f506963736172745f32322d31302d32335f30332d35332d33332d3831325f3130303078313030302e6a70673f763d3136363634373937323668747470733a2f2f7777772e3030372e636f6d2f77702d636f6e74656e742f75706c6f6164732f323032322f30382f4c43432d4c532e6a706768747470733a2f2f7777772e68656d7377656c6c2d616e7469717565732e636f6d2f75706c6f6164732f6d656469612f6e6577732f303030312f39352f7468756d625f39343733395f6e6577735f776964652e6a70656768747470733a2f2f6969312e7065707065726672792e636f6d2f6d656469612f636174616c6f672f70726f647563742f672f6f2f343934783534342f676f6c642d62726173732d616e642d776f6f642d656d626f737365642d686f726e2d616e642d6772616d6f70686f6e652d62792d6578696d2d6465636f722d676f6c642d62726173732d616e642d776f6f642d656d626f737365642d686f726e2d616e642d666a697a74352e6a706768747470733a2f2f692e70636d61672e636f6d2f696d61676572792f6c696e6575706974656d732f30367352636b3141696d62664f785777525976454271582e6669745f6c696d2e73697a655f31303530783537382e76313536393530383734382e6a706768747470733a2f2f692e726564642e69742f6f6d3939356671386a387561312e6a706768747470733a2f2f6d2e6d656469612d616d617a6f6e2e636f6d2f696d616765732f492f37317451432d323739754c2e6a7067",
  "immutableReferences": {},
  "source": "// SPDX-License-Identifier: MIT\npragma solidity ^0.8.0;\n\ncontract DecentralizedAuction {\n    struct Item {\n        uint id;\n        address payable seller;\n        string name;\n        string imageUrl;\n        uint minBid;\n        uint buyoutPrice;\n        uint auctionEndTime;\n        address highestBidder;\n        uint highestBid;\n        bool ended;\n    }\n\n    struct User {\n        string username;\n        address walletAddress;\n    }\n\n    Item[] public items;\n    mapping(address => User) public users;\n    mapping(address => bool) public registered;\n    mapping(address => uint) public pendingReturns;\n\n    event UserRegistered(address userAddress, string username);\n    event AuctionCreated(uint itemId, string name, uint minBid, uint buyoutPrice, uint auctionEndTime);\n    event HighestBidIncreased(uint itemId, address bidder, uint amount);\n    event AuctionEnded(uint itemId, address winner, uint amount);\n    event ItemBoughtOut(uint itemId, address buyer, uint amount);\n\n    constructor() {\n        addItem(\"Vintage Phone\", \"https://m.media-amazon.com/images/I/71tQC-279uL.jpg\", 1 ether, 5 ether, 180 minutes);\n        addItem(\"Record Player\", \"https://ii1.pepperfry.com/media/catalog/product/g/o/494x544/gold-brass-and-wood-embossed-horn-and-gramophone-by-exim-decor-gold-brass-and-wood-embossed-horn-and-fjizt5.jpg\", 2 ether, 7 ether, 180 minutes);\n        addItem(\"Aladdin Movie Prop\", \"https://multiwood.com.pk/cdn/shop/products/Picsart_22-10-23_03-53-33-812_1000x1000.jpg?v=1666479726\", 3 ether, 10 ether, 180 minutes);\n        addItem(\"Sword\", \"https://www.swordsantiqueweapons.com/images/s2331b.jpg\", 3 ether, 10 ether, 1 minutes);\n        addItem(\"Flintlock\", \"https://www.hemswell-antiques.com/uploads/media/news/0001/95/thumb_94739_news_wide.jpeg\", 3 ether, 10 ether, 3 minutes);\n        addItem(\"James Bond's DB5\", \"https://www.007.com/wp-content/uploads/2022/08/LCC-LS.jpg\", 3 ether, 10 ether, 5 minutes);\n        addItem(\"Commodore PET\", \"https://i.redd.it/om995fq8j8ua1.jpg\", 3 ether, 10 ether, 5 minutes);\n        addItem(\"HP Palmtop\", \"https://i.pcmag.com/imagery/lineupitems/06sRck1AimbfOxWwRYvEBqX.fit_lim.size_1050x578.v1569508748.jpg\", 3 ether, 10 ether, 5 minutes);\n    }\n\n    function registerUser(string memory _username) public {\n        require(!registered[msg.sender], \"User already registered.\");\n        users[msg.sender] = User(_username, msg.sender);\n        registered[msg.sender] = true;\n        emit UserRegistered(msg.sender, _username);\n    }\n\n    function getUser(address _userAddress) public view returns (User memory) {\n        require(registered[_userAddress], \"User not registered.\");\n        return users[_userAddress];\n    }\n\n    function addItem(string memory name, string memory imageUrl, uint minBid, uint buyoutPrice, uint biddingTime) public {\n        uint auctionEndTime = block.timestamp + biddingTime;\n        items.push(Item({\n            id: items.length,\n            seller: payable(msg.sender),\n            name: name,\n            imageUrl: imageUrl,\n            minBid: minBid,\n            buyoutPrice: buyoutPrice,\n            auctionEndTime: auctionEndTime,\n            highestBidder: address(0),\n            highestBid: 0,\n            ended: false\n        }));\n        emit AuctionCreated(items.length - 1, name, minBid, buyoutPrice, auctionEndTime);\n    }\n\n    function bid(uint itemId) public payable {\n        Item storage item = items[itemId];\n        require(block.timestamp < item.auctionEndTime, \"Auction already ended.\");\n        require(msg.value > item.highestBid, \"There already is a higher bid.\");\n        if (item.highestBidder != address(0)) {\n            pendingReturns[item.highestBidder] += item.highestBid;\n        }\n        item.highestBidder = msg.sender;\n        item.highestBid = msg.value;\n        emit HighestBidIncreased(itemId, msg.sender, msg.value);\n    }\n\n    function withdraw() public returns (bool) {\n        uint amount = pendingReturns[msg.sender];\n        if (amount > 0) {\n            pendingReturns[msg.sender] = 0;\n            if (!payable(msg.sender).send(amount)) {\n                pendingReturns[msg.sender] = amount;\n                return false;\n            }\n        }\n        return true;\n    }\n\n    function buyout(uint itemId) public payable {\n        Item storage item = items[itemId];\n        require(block.timestamp < item.auctionEndTime, \"Auction already ended.\");\n        require(msg.value >= item.buyoutPrice, \"Buyout price not met.\");\n        item.ended = true;\n        item.auctionEndTime = block.timestamp;\n        item.seller.transfer(msg.value);\n        emit ItemBoughtOut(itemId, msg.sender, msg.value);\n    }\n\n    function endAuction(uint itemId) public {\n        Item storage item = items[itemId];\n        require(block.timestamp >= item.auctionEndTime, \"Auction not yet ended.\");\n        require(!item.ended, \"Auction end has already been called.\");\n        item.ended = true;\n        if (item.highestBidder != address(0)) {\n            item.seller.transfer(item.highestBid);\n            emit AuctionEnded(itemId, item.highestBidder, item.highestBid);\n        }\n    }\n\n    function itemsCount() public view returns (uint) {\n        return items.length;\n    }\n\n    function timeLeft(uint itemId) public view returns (uint) {\n        Item storage item = items[itemId];\n        if (block.timestamp >= item.auctionEndTime) {\n            return 0;\n        }\n        return item.auctionEndTime - block.timestamp;\n    }\n\n    function getAllUserItems() public view returns (Item[] memory) {\n        require(!registered[msg.sender], \"User not registered.\");\n\n        // Count the user's items\n        uint count = 0;\n        for (uint index = 0; index < items.length; index++) {\n            if (items[index].seller == msg.sender) {\n                count++;\n            }\n        }\n\n        Item[] memory list = new Item[](count);\n\n        uint counter = 0;\n        for (uint index = 0; index < items.length; index++) {\n            if (items[index].seller == msg.sender) {\n                list[counter] = items[index];\n                counter++;\n            }\n        }\n\n        return list;\n    }\n}\n",
  "sourcePath": "/home/farazmajid/Documents/Decentralized-Auction/backend/contracts/DecentralizedAuction.sol",
  "compiler": {
    "name": "solc",
    "version": "0.8.19+commit.7dd6d404.Emscripten.clang"
  },
  "schemaVersion": "3.4.16",
  "updatedAt": "2024-05-06T08:11:49.198Z",
  "networkType": "ethereum",
  "devdoc": {
    "kind": "dev",
    "methods": {},
    "version": 1
  },
  "userdoc": {
    "kind": "user",
    "methods": {},
    "version": 1
  }
}