{
  "contractName": "DecentralizedAuction",
  "abi": [
    {
      "inputs": [],
      "stateMutability": "nonpayable",
      "type": "constructor"
    },
    {
      "anonymous": false,
      "inputs": [
        {
          "indexed": false,
          "internalType": "uint256",
          "name": "itemId",
          "type": "uint256"
        },
        {
          "indexed": false,
          "internalType": "string",
          "name": "name",
          "type": "string"
        },
        {
          "indexed": false,
          "internalType": "uint256",
          "name": "minBid",
          "type": "uint256"
        },
        {
          "indexed": false,
          "internalType": "uint256",
          "name": "buyoutPrice",
          "type": "uint256"
        }
      ],
      "name": "AuctionCreated",
      "type": "event"
    },
    {
      "anonymous": false,
      "inputs": [
        {
          "indexed": false,
          "internalType": "uint256",
          "name": "itemId",
          "type": "uint256"
        },
        {
          "indexed": false,
          "internalType": "address",
          "name": "winner",
          "type": "address"
        },
        {
          "indexed": false,
          "internalType": "uint256",
          "name": "amount",
          "type": "uint256"
        }
      ],
      "name": "AuctionEnded",
      "type": "event"
    },
    {
      "anonymous": false,
      "inputs": [
        {
          "indexed": false,
          "internalType": "uint256",
          "name": "itemId",
          "type": "uint256"
        },
        {
          "indexed": false,
          "internalType": "address",
          "name": "bidder",
          "type": "address"
        },
        {
          "indexed": false,
          "internalType": "uint256",
          "name": "amount",
          "type": "uint256"
        }
      ],
      "name": "HighestBidIncreased",
      "type": "event"
    },
    {
      "anonymous": false,
      "inputs": [
        {
          "indexed": false,
          "internalType": "uint256",
          "name": "itemId",
          "type": "uint256"
        },
        {
          "indexed": false,
          "internalType": "address",
          "name": "buyer",
          "type": "address"
        },
        {
          "indexed": false,
          "internalType": "uint256",
          "name": "amount",
          "type": "uint256"
        }
      ],
      "name": "ItemBoughtOut",
      "type": "event"
    },
    {
      "anonymous": false,
      "inputs": [
        {
          "indexed": false,
          "internalType": "address",
          "name": "userAddress",
          "type": "address"
        },
        {
          "indexed": false,
          "internalType": "string",
          "name": "username",
          "type": "string"
        }
      ],
      "name": "UserRegistered",
      "type": "event"
    },
    {
      "inputs": [
        {
          "internalType": "uint256",
          "name": "",
          "type": "uint256"
        }
      ],
      "name": "items",
      "outputs": [
        {
          "internalType": "uint256",
          "name": "id",
          "type": "uint256"
        },
        {
          "internalType": "address payable",
          "name": "seller",
          "type": "address"
        },
        {
          "internalType": "string",
          "name": "name",
          "type": "string"
        },
        {
          "internalType": "string",
          "name": "imageUrl",
          "type": "string"
        },
        {
          "internalType": "uint256",
          "name": "minBid",
          "type": "uint256"
        },
        {
          "internalType": "uint256",
          "name": "buyoutPrice",
          "type": "uint256"
        },
        {
          "internalType": "address",
          "name": "highestBidder",
          "type": "address"
        },
        {
          "internalType": "uint256",
          "name": "highestBid",
          "type": "uint256"
        },
        {
          "internalType": "bool",
          "name": "ended",
          "type": "bool"
        }
      ],
      "stateMutability": "view",
      "type": "function",
      "constant": true
    },
    {
      "inputs": [
        {
          "internalType": "address",
          "name": "",
          "type": "address"
        }
      ],
      "name": "pendingReturns",
      "outputs": [
        {
          "internalType": "uint256",
          "name": "",
          "type": "uint256"
        }
      ],
      "stateMutability": "view",
      "type": "function",
      "constant": true
    },
    {
      "inputs": [
        {
          "internalType": "address",
          "name": "",
          "type": "address"
        }
      ],
      "name": "registered",
      "outputs": [
        {
          "internalType": "bool",
          "name": "",
          "type": "bool"
        }
      ],
      "stateMutability": "view",
      "type": "function",
      "constant": true
    },
    {
      "inputs": [
        {
          "internalType": "address",
          "name": "",
          "type": "address"
        }
      ],
      "name": "users",
      "outputs": [
        {
          "internalType": "string",
          "name": "username",
          "type": "string"
        },
        {
          "internalType": "address",
          "name": "walletAddress",
          "type": "address"
        }
      ],
      "stateMutability": "view",
      "type": "function",
      "constant": true
    },
    {
      "inputs": [
        {
          "internalType": "string",
          "name": "_username",
          "type": "string"
        }
      ],
      "name": "registerUser",
      "outputs": [],
      "stateMutability": "nonpayable",
      "type": "function"
    },
    {
      "inputs": [
        {
          "internalType": "address",
          "name": "_userAddress",
          "type": "address"
        }
      ],
      "name": "getUser",
      "outputs": [
        {
          "components": [
            {
              "internalType": "string",
              "name": "username",
              "type": "string"
            },
            {
              "internalType": "address",
              "name": "walletAddress",
              "type": "address"
            }
          ],
          "internalType": "struct DecentralizedAuction.User",
          "name": "",
          "type": "tuple"
        }
      ],
      "stateMutability": "view",
      "type": "function",
      "constant": true
    },
    {
      "inputs": [
        {
          "internalType": "string",
          "name": "name",
          "type": "string"
        },
        {
          "internalType": "string",
          "name": "imageUrl",
          "type": "string"
        },
        {
          "internalType": "uint256",
          "name": "minBid",
          "type": "uint256"
        },
        {
          "internalType": "uint256",
          "name": "buyoutPrice",
          "type": "uint256"
        },
        {
          "internalType": "uint256",
          "name": "biddingTime",
          "type": "uint256"
        }
      ],
      "name": "addItem",
      "outputs": [],
      "stateMutability": "nonpayable",
      "type": "function"
    },
    {
      "inputs": [
        {
          "internalType": "uint256",
          "name": "itemId",
          "type": "uint256"
        }
      ],
      "name": "bid",
      "outputs": [],
      "stateMutability": "payable",
      "type": "function",
      "payable": true
    },
    {
      "inputs": [
        {
          "internalType": "uint256",
          "name": "itemId",
          "type": "uint256"
        }
      ],
      "name": "buyout",
      "outputs": [],
      "stateMutability": "payable",
      "type": "function",
      "payable": true
    },
    {
      "inputs": [],
      "name": "withdraw",
      "outputs": [
        {
          "internalType": "uint256",
          "name": "",
          "type": "uint256"
        }
      ],
      "stateMutability": "nonpayable",
      "type": "function"
    },
    {
      "inputs": [
        {
          "internalType": "uint256",
          "name": "itemId",
          "type": "uint256"
        }
      ],
      "name": "endAuction",
      "outputs": [],
      "stateMutability": "nonpayable",
      "type": "function"
    },
    {
      "inputs": [],
      "name": "itemsCount",
      "outputs": [
        {
          "internalType": "uint256",
          "name": "",
          "type": "uint256"
        }
      ],
      "stateMutability": "view",
      "type": "function",
      "constant": true
    },
    {
      "inputs": [],
      "name": "getAllUserItems",
      "outputs": [
        {
          "components": [
            {
              "internalType": "uint256",
              "name": "id",
              "type": "uint256"
            },
            {
              "internalType": "address payable",
              "name": "seller",
              "type": "address"
            },
            {
              "internalType": "string",
              "name": "name",
              "type": "string"
            },
            {
              "internalType": "string",
              "name": "imageUrl",
              "type": "string"
            },
            {
              "internalType": "uint256",
              "name": "minBid",
              "type": "uint256"
            },
            {
              "internalType": "uint256",
              "name": "buyoutPrice",
              "type": "uint256"
            },
            {
              "internalType": "address",
              "name": "highestBidder",
              "type": "address"
            },
            {
              "internalType": "uint256",
              "name": "highestBid",
              "type": "uint256"
            },
            {
              "internalType": "bool",
              "name": "ended",
              "type": "bool"
            }
          ],
          "internalType": "struct DecentralizedAuction.Item[]",
          "name": "",
          "type": "tuple[]"
        }
      ],
      "stateMutability": "view",
      "type": "function",
      "constant": true
    }
  ],
  "bytecode": "0x608060405234801561001057600080fd5b50612a99806100206000396000f3fe6080604052600436106100c25760003560e01c80636f77926b1161007f578063b2dd5c0711610059578063b2dd5c071461025f578063b9a2de3a1461029c578063bfb231d2146102c5578063e2c03ace1461030a576100c2565b80636f77926b146101bb578063704f1b94146101f8578063a87430ba14610221576100c2565b806307bec66f146100c75780630abe0866146100e357806326b387bb1461010c5780632920e022146101495780633ccfd60b14610174578063454a2ab31461019f575b600080fd5b6100e160048036038101906100dc9190611a1d565b610335565b005b3480156100ef57600080fd5b5061010a60048036038101906101059190611b90565b6105a0565b005b34801561011857600080fd5b50610133600480360381019061012e9190611ca1565b61079b565b6040516101409190611cdd565b60405180910390f35b34801561015557600080fd5b5061015e6107b3565b60405161016b9190611f5f565b60405180910390f35b34801561018057600080fd5b50610189610c59565b6040516101969190611cdd565b60405180910390f35b6101b960048036038101906101b49190611a1d565b610d7c565b005b3480156101c757600080fd5b506101e260048036038101906101dd9190611ca1565b611146565b6040516101ef9190611fbe565b60405180910390f35b34801561020457600080fd5b5061021f600480360381019061021a9190611fe0565b611313565b005b34801561022d57600080fd5b5061024860048036038101906102439190611ca1565b6114fe565b604051610256929190612082565b60405180910390f35b34801561026b57600080fd5b5061028660048036038101906102819190611ca1565b6115ca565b60405161029391906120c1565b60405180910390f35b3480156102a857600080fd5b506102c360048036038101906102be9190611a1d565b6115ea565b005b3480156102d157600080fd5b506102ec60048036038101906102e79190611a1d565b611762565b604051610301999897969594939291906120eb565b60405180910390f35b34801561031657600080fd5b5061031f61191d565b60405161032c9190611cdd565b60405180910390f35b600080549050811061037c576040517f08c379a0000000000000000000000000000000000000000000000000000000008152600401610373906121d2565b60405180910390fd5b6000808281548110610391576103906121f2565b5b90600052602060002090600902019050600082815481106103b5576103b46121f2565b5b906000526020600020906009020160080160009054906101000a900460ff1615610414576040517f08c379a000000000000000000000000000000000000000000000000000000000815260040161040b9061226d565b60405180910390fd5b806005015434101561045b576040517f08c379a0000000000000000000000000000000000000000000000000000000008152600401610452906122d9565b60405180910390fd5b60018160080160006101000a81548160ff0219169083151502179055508060070154600360008360060160009054906101000a900473ffffffffffffffffffffffffffffffffffffffff1673ffffffffffffffffffffffffffffffffffffffff1673ffffffffffffffffffffffffffffffffffffffff16815260200190815260200160002060008282546104ef9190612328565b925050819055508060010160009054906101000a900473ffffffffffffffffffffffffffffffffffffffff1673ffffffffffffffffffffffffffffffffffffffff166108fc349081150290604051600060405180830381858888f19350505050158015610560573d6000803e3d6000fd5b507f713f19a7f9a1e0c7daa8679ac03a7574d05a0fa17776c383c91aafff17c7f3568233346040516105949392919061235c565b60405180910390a15050565b600060405180610120016040528060008054905081526020013373ffffffffffffffffffffffffffffffffffffffff168152602001878152602001868152602001858152602001848152602001600073ffffffffffffffffffffffffffffffffffffffff168152602001600081526020016000151581525090806001815401808255809150506001900390600052602060002090600902016000909190919091506000820151816000015560208201518160010160006101000a81548173ffffffffffffffffffffffffffffffffffffffff021916908373ffffffffffffffffffffffffffffffffffffffff16021790555060408201518160020190816106a7919061259f565b5060608201518160030190816106bd919061259f565b506080820151816004015560a0820151816005015560c08201518160060160006101000a81548173ffffffffffffffffffffffffffffffffffffffff021916908373ffffffffffffffffffffffffffffffffffffffff16021790555060e082015181600701556101008201518160080160006101000a81548160ff02191690831515021790555050507f5bf34ed94988e5dcdc7d1faaa54eb1d3b55f45d5f11457e235afb21a8ebbe73c60016000805490506107799190612671565b86858560405161078c94939291906126a5565b60405180910390a15050505050565b60036020528060005260406000206000915090505481565b6060600260003373ffffffffffffffffffffffffffffffffffffffff1673ffffffffffffffffffffffffffffffffffffffff16815260200190815260200160002060009054906101000a900460ff16610841576040517f08c379a00000000000000000000000000000000000000000000000000000000081526004016108389061273d565b60405180910390fd5b6000805b6000805490508110156108ec573373ffffffffffffffffffffffffffffffffffffffff166000828154811061087d5761087c6121f2565b5b906000526020600020906009020160010160009054906101000a900473ffffffffffffffffffffffffffffffffffffffff1673ffffffffffffffffffffffffffffffffffffffff16036108d95781806108d59061275d565b9250505b80806108e49061275d565b915050610845565b5060008167ffffffffffffffff81111561090957610908611a65565b5b60405190808252806020026020018201604052801561094257816020015b61092f611929565b8152602001906001900390816109275790505b5090506000805b600080549050811015610c4f573373ffffffffffffffffffffffffffffffffffffffff1660008281548110610981576109806121f2565b5b906000526020600020906009020160010160009054906101000a900473ffffffffffffffffffffffffffffffffffffffff1673ffffffffffffffffffffffffffffffffffffffff1603610c3c57600081815481106109e2576109e16121f2565b5b906000526020600020906009020160405180610120016040529081600082015481526020016001820160009054906101000a900473ffffffffffffffffffffffffffffffffffffffff1673ffffffffffffffffffffffffffffffffffffffff1673ffffffffffffffffffffffffffffffffffffffff168152602001600282018054610a6c906123c2565b80601f0160208091040260200160405190810160405280929190818152602001828054610a98906123c2565b8015610ae55780601f10610aba57610100808354040283529160200191610ae5565b820191906000526020600020905b815481529060010190602001808311610ac857829003601f168201915b50505050508152602001600382018054610afe906123c2565b80601f0160208091040260200160405190810160405280929190818152602001828054610b2a906123c2565b8015610b775780601f10610b4c57610100808354040283529160200191610b77565b820191906000526020600020905b815481529060010190602001808311610b5a57829003601f168201915b5050505050815260200160048201548152602001600582015481526020016006820160009054906101000a900473ffffffffffffffffffffffffffffffffffffffff1673ffffffffffffffffffffffffffffffffffffffff1673ffffffffffffffffffffffffffffffffffffffff168152602001600782015481526020016008820160009054906101000a900460ff161515151581525050838381518110610c2257610c216121f2565b5b60200260200101819052508180610c389061275d565b9250505b8080610c479061275d565b915050610949565b5081935050505090565b600080600360003373ffffffffffffffffffffffffffffffffffffffff1673ffffffffffffffffffffffffffffffffffffffff1681526020019081526020016000205490506000811115610d74576000600360003373ffffffffffffffffffffffffffffffffffffffff1673ffffffffffffffffffffffffffffffffffffffff168152602001908152602001600020819055503373ffffffffffffffffffffffffffffffffffffffff166108fc829081150290604051600060405180830381858888f19350505050610d735780600360003373ffffffffffffffffffffffffffffffffffffffff1673ffffffffffffffffffffffffffffffffffffffff168152602001908152602001600020819055506000915050610d79565b5b809150505b90565b6000805490508110610dc3576040517f08c379a0000000000000000000000000000000000000000000000000000000008152600401610dba906121d2565b60405180910390fd5b6000808281548110610dd857610dd76121f2565b5b9060005260206000209060090201905060008281548110610dfc57610dfb6121f2565b5b906000526020600020906009020160080160009054906101000a900460ff1615610e5b576040517f08c379a0000000000000000000000000000000000000000000000000000000008152600401610e529061226d565b60405180910390fd5b3373ffffffffffffffffffffffffffffffffffffffff168160010160009054906101000a900473ffffffffffffffffffffffffffffffffffffffff1673ffffffffffffffffffffffffffffffffffffffff1603610eed576040517f08c379a0000000000000000000000000000000000000000000000000000000008152600401610ee490612817565b60405180910390fd5b80600701543411610f33576040517f08c379a0000000000000000000000000000000000000000000000000000000008152600401610f2a90612883565b60405180910390fd5b80600501543410610f79576040517f08c379a0000000000000000000000000000000000000000000000000000000008152600401610f7090612915565b60405180910390fd5b600073ffffffffffffffffffffffffffffffffffffffff168160060160009054906101000a900473ffffffffffffffffffffffffffffffffffffffff1673ffffffffffffffffffffffffffffffffffffffff1614611050578060070154600360008360060160009054906101000a900473ffffffffffffffffffffffffffffffffffffffff1673ffffffffffffffffffffffffffffffffffffffff1673ffffffffffffffffffffffffffffffffffffffff16815260200190815260200160002060008282546110489190612328565b925050819055505b338160060160006101000a81548173ffffffffffffffffffffffffffffffffffffffff021916908373ffffffffffffffffffffffffffffffffffffffff1602179055503481600701819055508060010160009054906101000a900473ffffffffffffffffffffffffffffffffffffffff1673ffffffffffffffffffffffffffffffffffffffff166108fc349081150290604051600060405180830381858888f19350505050158015611106573d6000803e3d6000fd5b507fda0a18da71d8ebd145966339a728fc0d8ccc07c22870d561890d823c515dda6b82333460405161113a9392919061235c565b60405180910390a15050565b61114e6119a3565b600260008373ffffffffffffffffffffffffffffffffffffffff1673ffffffffffffffffffffffffffffffffffffffff16815260200190815260200160002060009054906101000a900460ff166111da576040517f08c379a00000000000000000000000000000000000000000000000000000000081526004016111d19061273d565b60405180910390fd5b600160008373ffffffffffffffffffffffffffffffffffffffff1673ffffffffffffffffffffffffffffffffffffffff168152602001908152602001600020604051806040016040529081600082018054611234906123c2565b80601f0160208091040260200160405190810160405280929190818152602001828054611260906123c2565b80156112ad5780601f10611282576101008083540402835291602001916112ad565b820191906000526020600020905b81548152906001019060200180831161129057829003601f168201915b505050505081526020016001820160009054906101000a900473ffffffffffffffffffffffffffffffffffffffff1673ffffffffffffffffffffffffffffffffffffffff1673ffffffffffffffffffffffffffffffffffffffff16815250509050919050565b600260003373ffffffffffffffffffffffffffffffffffffffff1673ffffffffffffffffffffffffffffffffffffffff16815260200190815260200160002060009054906101000a900460ff16156113a0576040517f08c379a000000000000000000000000000000000000000000000000000000000815260040161139790612981565b60405180910390fd5b60405180604001604052808281526020013373ffffffffffffffffffffffffffffffffffffffff16815250600160003373ffffffffffffffffffffffffffffffffffffffff1673ffffffffffffffffffffffffffffffffffffffff168152602001908152602001600020600082015181600001908161141f919061259f565b5060208201518160010160006101000a81548173ffffffffffffffffffffffffffffffffffffffff021916908373ffffffffffffffffffffffffffffffffffffffff1602179055509050506001600260003373ffffffffffffffffffffffffffffffffffffffff1673ffffffffffffffffffffffffffffffffffffffff16815260200190815260200160002060006101000a81548160ff0219169083151502179055507f48cac28ad4dc618e15f4c2dd5e97751182f166de97b25618318b2112aa951a2f33826040516114f39291906129a1565b60405180910390a150565b6001602052806000526040600020600091509050806000018054611521906123c2565b80601f016020809104026020016040519081016040528092919081815260200182805461154d906123c2565b801561159a5780601f1061156f5761010080835404028352916020019161159a565b820191906000526020600020905b81548152906001019060200180831161157d57829003601f168201915b5050505050908060010160009054906101000a900473ffffffffffffffffffffffffffffffffffffffff16905082565b60026020528060005260406000206000915054906101000a900460ff1681565b60008082815481106115ff576115fe6121f2565b5b906000526020600020906009020190508060080160009054906101000a900460ff1615611661576040517f08c379a000000000000000000000000000000000000000000000000000000000815260040161165890612a43565b60405180910390fd5b60008160070154111561175e5760018160080160006101000a81548160ff0219169083151502179055508060010160009054906101000a900473ffffffffffffffffffffffffffffffffffffffff1673ffffffffffffffffffffffffffffffffffffffff166108fc82600701549081150290604051600060405180830381858888f193505050501580156116f9573d6000803e3d6000fd5b507fd2aa34a4fdbbc6dff6a3e56f46e0f3ae2a31d7785ff3487aa5c95c642acea501828260060160009054906101000a900473ffffffffffffffffffffffffffffffffffffffff1683600701546040516117559392919061235c565b60405180910390a15b5050565b6000818154811061177257600080fd5b90600052602060002090600902016000915090508060000154908060010160009054906101000a900473ffffffffffffffffffffffffffffffffffffffff16908060020180546117c1906123c2565b80601f01602080910402602001604051908101604052809291908181526020018280546117ed906123c2565b801561183a5780601f1061180f5761010080835404028352916020019161183a565b820191906000526020600020905b81548152906001019060200180831161181d57829003601f168201915b50505050509080600301805461184f906123c2565b80601f016020809104026020016040519081016040528092919081815260200182805461187b906123c2565b80156118c85780601f1061189d576101008083540402835291602001916118c8565b820191906000526020600020905b8154815290600101906020018083116118ab57829003601f168201915b5050505050908060040154908060050154908060060160009054906101000a900473ffffffffffffffffffffffffffffffffffffffff16908060070154908060080160009054906101000a900460ff16905089565b60008080549050905090565b60405180610120016040528060008152602001600073ffffffffffffffffffffffffffffffffffffffff16815260200160608152602001606081526020016000815260200160008152602001600073ffffffffffffffffffffffffffffffffffffffff168152602001600081526020016000151581525090565b604051806040016040528060608152602001600073ffffffffffffffffffffffffffffffffffffffff1681525090565b6000604051905090565b600080fd5b600080fd5b6000819050919050565b6119fa816119e7565b8114611a0557600080fd5b50565b600081359050611a17816119f1565b92915050565b600060208284031215611a3357611a326119dd565b5b6000611a4184828501611a08565b91505092915050565b600080fd5b600080fd5b6000601f19601f8301169050919050565b7f4e487b7100000000000000000000000000000000000000000000000000000000600052604160045260246000fd5b611a9d82611a54565b810181811067ffffffffffffffff82111715611abc57611abb611a65565b5b80604052505050565b6000611acf6119d3565b9050611adb8282611a94565b919050565b600067ffffffffffffffff821115611afb57611afa611a65565b5b611b0482611a54565b9050602081019050919050565b82818337600083830152505050565b6000611b33611b2e84611ae0565b611ac5565b905082815260208101848484011115611b4f57611b4e611a4f565b5b611b5a848285611b11565b509392505050565b600082601f830112611b7757611b76611a4a565b5b8135611b87848260208601611b20565b91505092915050565b600080600080600060a08688031215611bac57611bab6119dd565b5b600086013567ffffffffffffffff811115611bca57611bc96119e2565b5b611bd688828901611b62565b955050602086013567ffffffffffffffff811115611bf757611bf66119e2565b5b611c0388828901611b62565b9450506040611c1488828901611a08565b9350506060611c2588828901611a08565b9250506080611c3688828901611a08565b9150509295509295909350565b600073ffffffffffffffffffffffffffffffffffffffff82169050919050565b6000611c6e82611c43565b9050919050565b611c7e81611c63565b8114611c8957600080fd5b50565b600081359050611c9b81611c75565b92915050565b600060208284031215611cb757611cb66119dd565b5b6000611cc584828501611c8c565b91505092915050565b611cd7816119e7565b82525050565b6000602082019050611cf26000830184611cce565b92915050565b600081519050919050565b600082825260208201905092915050565b6000819050602082019050919050565b611d2d816119e7565b82525050565b6000611d3e82611c43565b9050919050565b611d4e81611d33565b82525050565b600081519050919050565b600082825260208201905092915050565b60005b83811015611d8e578082015181840152602081019050611d73565b60008484015250505050565b6000611da582611d54565b611daf8185611d5f565b9350611dbf818560208601611d70565b611dc881611a54565b840191505092915050565b611ddc81611c63565b82525050565b60008115159050919050565b611df781611de2565b82525050565b600061012083016000830151611e166000860182611d24565b506020830151611e296020860182611d45565b5060408301518482036040860152611e418282611d9a565b91505060608301518482036060860152611e5b8282611d9a565b9150506080830151611e706080860182611d24565b5060a0830151611e8360a0860182611d24565b5060c0830151611e9660c0860182611dd3565b5060e0830151611ea960e0860182611d24565b50610100830151611ebe610100860182611dee565b508091505092915050565b6000611ed58383611dfd565b905092915050565b6000602082019050919050565b6000611ef582611cf8565b611eff8185611d03565b935083602082028501611f1185611d14565b8060005b85811015611f4d5784840389528151611f2e8582611ec9565b9450611f3983611edd565b925060208a01995050600181019050611f15565b50829750879550505050505092915050565b60006020820190508181036000830152611f798184611eea565b905092915050565b60006040830160008301518482036000860152611f9e8282611d9a565b9150506020830151611fb36020860182611dd3565b508091505092915050565b60006020820190508181036000830152611fd88184611f81565b905092915050565b600060208284031215611ff657611ff56119dd565b5b600082013567ffffffffffffffff811115612014576120136119e2565b5b61202084828501611b62565b91505092915050565b600082825260208201905092915050565b600061204582611d54565b61204f8185612029565b935061205f818560208601611d70565b61206881611a54565b840191505092915050565b61207c81611c63565b82525050565b6000604082019050818103600083015261209c818561203a565b90506120ab6020830184612073565b9392505050565b6120bb81611de2565b82525050565b60006020820190506120d660008301846120b2565b92915050565b6120e581611d33565b82525050565b600061012082019050612101600083018c611cce565b61210e602083018b6120dc565b8181036040830152612120818a61203a565b90508181036060830152612134818961203a565b90506121436080830188611cce565b61215060a0830187611cce565b61215d60c0830186612073565b61216a60e0830185611cce565b6121786101008301846120b2565b9a9950505050505050505050565b7f496e76616c6964204974656d2049440000000000000000000000000000000000600082015250565b60006121bc600f83612029565b91506121c782612186565b602082019050919050565b600060208201905081810360008301526121eb816121af565b9050919050565b7f4e487b7100000000000000000000000000000000000000000000000000000000600052603260045260246000fd5b7f41756374696f6e20616c726561647920656e6465642e00000000000000000000600082015250565b6000612257601683612029565b915061226282612221565b602082019050919050565b600060208201905081810360008301526122868161224a565b9050919050565b7f4275796f7574207072696365206e6f74206d65742e0000000000000000000000600082015250565b60006122c3601583612029565b91506122ce8261228d565b602082019050919050565b600060208201905081810360008301526122f2816122b6565b9050919050565b7f4e487b7100000000000000000000000000000000000000000000000000000000600052601160045260246000fd5b6000612333826119e7565b915061233e836119e7565b9250828201905080821115612356576123556122f9565b5b92915050565b60006060820190506123716000830186611cce565b61237e6020830185612073565b61238b6040830184611cce565b949350505050565b7f4e487b7100000000000000000000000000000000000000000000000000000000600052602260045260246000fd5b600060028204905060018216806123da57607f821691505b6020821081036123ed576123ec612393565b5b50919050565b60008190508160005260206000209050919050565b60006020601f8301049050919050565b600082821b905092915050565b6000600883026124557fffffffffffffffffffffffffffffffffffffffffffffffffffffffffffffffff82612418565b61245f8683612418565b95508019841693508086168417925050509392505050565b6000819050919050565b600061249c612497612492846119e7565b612477565b6119e7565b9050919050565b6000819050919050565b6124b683612481565b6124ca6124c2826124a3565b848454612425565b825550505050565b600090565b6124df6124d2565b6124ea8184846124ad565b505050565b5b8181101561250e576125036000826124d7565b6001810190506124f0565b5050565b601f82111561255357612524816123f3565b61252d84612408565b8101602085101561253c578190505b61255061254885612408565b8301826124ef565b50505b505050565b600082821c905092915050565b600061257660001984600802612558565b1980831691505092915050565b600061258f8383612565565b9150826002028217905092915050565b6125a882611d54565b67ffffffffffffffff8111156125c1576125c0611a65565b5b6125cb82546123c2565b6125d6828285612512565b600060209050601f83116001811461260957600084156125f7578287015190505b6126018582612583565b865550612669565b601f198416612617866123f3565b60005b8281101561263f5784890151825560018201915060208501945060208101905061261a565b8683101561265c5784890151612658601f891682612565565b8355505b6001600288020188555050505b505050505050565b600061267c826119e7565b9150612687836119e7565b925082820390508181111561269f5761269e6122f9565b5b92915050565b60006080820190506126ba6000830187611cce565b81810360208301526126cc818661203a565b90506126db6040830185611cce565b6126e86060830184611cce565b95945050505050565b7f55736572206e6f7420726567697374657265642e000000000000000000000000600082015250565b6000612727601483612029565b9150612732826126f1565b602082019050919050565b600060208201905081810360008301526127568161271a565b9050919050565b6000612768826119e7565b91507fffffffffffffffffffffffffffffffffffffffffffffffffffffffffffffffff820361279a576127996122f9565b5b600182019050919050565b7f596f752063616e206e6f7420626964206f6e20796f7572206f776e206175637460008201527f696f6e0000000000000000000000000000000000000000000000000000000000602082015250565b6000612801602383612029565b915061280c826127a5565b604082019050919050565b60006020820190508181036000830152612830816127f4565b9050919050565b7f546865726520616c7265616479206973206120686967686572206269642e0000600082015250565b600061286d601e83612029565b915061287882612837565b602082019050919050565b6000602082019050818103600083015261289c81612860565b9050919050565b7f4269642063616e206e6f7420626520686967686572207468616e206275796f7560008201527f7400000000000000000000000000000000000000000000000000000000000000602082015250565b60006128ff602183612029565b915061290a826128a3565b604082019050919050565b6000602082019050818103600083015261292e816128f2565b9050919050565b7f5573657220616c726561647920726567697374657265642e0000000000000000600082015250565b600061296b601883612029565b915061297682612935565b602082019050919050565b6000602082019050818103600083015261299a8161295e565b9050919050565b60006040820190506129b66000830185612073565b81810360208301526129c8818461203a565b90509392505050565b7f41756374696f6e20656e642068617320616c7265616479206265656e2063616c60008201527f6c65642e00000000000000000000000000000000000000000000000000000000602082015250565b6000612a2d602483612029565b9150612a38826129d1565b604082019050919050565b60006020820190508181036000830152612a5c81612a20565b905091905056fea2646970667358221220dcbb856fdfc1a62b34636cd94a1a6bdd1595b57b0231ec581c7d3a90ff542b2464736f6c63430008130033",
  "immutableReferences": {},
  "source": "// SPDX-License-Identifier: MIT\npragma solidity ^0.8.0;\n\ncontract DecentralizedAuction {\n    struct Item {\n        uint id;\n        address payable seller;\n        string name;\n        string imageUrl;\n        uint minBid;\n        uint buyoutPrice;\n        //uint auctionEndTime;\n        address highestBidder;\n        uint highestBid;\n        bool ended;\n    }\n\n    struct User {\n        string username;\n        address walletAddress;\n    }\n\n    Item[] public items;\n    mapping(address => User) public users;\n    mapping(address => bool) public registered;\n    mapping(address => uint) public pendingReturns;\n\n    event UserRegistered(address userAddress, string username);\n    //event AuctionCreated(uint itemId, string name, uint minBid, uint buyoutPrice, uint auctionEndTime);\n    event AuctionCreated(uint itemId, string name, uint minBid, uint buyoutPrice);\n    event HighestBidIncreased(uint itemId, address bidder, uint amount);\n    event AuctionEnded(uint itemId, address winner, uint amount);\n    event ItemBoughtOut(uint itemId, address buyer, uint amount);\n    \n    constructor() {\n        // addItem(\"Vintage Phone\", \"https://m.media-amazon.com/images/I/71tQC-279uL.jpg\", 1 ether, 5 ether, 180 minutes);\n        // addItem(\"Record Player\", \"https://ii1.pepperfry.com/media/catalog/product/g/o/494x544/gold-brass-and-wood-embossed-horn-and-gramophone-by-exim-decor-gold-brass-and-wood-embossed-horn-and-fjizt5.jpg\", 2 ether, 7 ether, 180 minutes);\n        // addItem(\"Aladdin Movie Prop\", \"https://multiwood.com.pk/cdn/shop/products/Picsart_22-10-23_03-53-33-812_1000x1000.jpg?v=1666479726\", 3 ether, 10 ether, 180 minutes);\n        // addItem(\"Sword\", \"https://www.swordsantiqueweapons.com/images/s2331b.jpg\", 3 ether, 10 ether, 1 minutes);\n        // addItem(\"Flintlock\", \"https://www.hemswell-antiques.com/uploads/media/news/0001/95/thumb_94739_news_wide.jpeg\", 3 ether, 10 ether, 3 minutes);\n        // addItem(\"James Bond's DB5\", \"https://www.007.com/wp-content/uploads/2022/08/LCC-LS.jpg\", 3 ether, 10 ether, 5 minutes);\n        // addItem(\"Commodore PET\", \"https://i.redd.it/om995fq8j8ua1.jpg\", 3 ether, 10 ether, 5 minutes);\n        // addItem(\"HP Palmtop\", \"https://i.pcmag.com/imagery/lineupitems/06sRck1AimbfOxWwRYvEBqX.fit_lim.size_1050x578.v1569508748.jpg\", 3 ether, 10 ether, 5 minutes);\n    }\n\n    function registerUser(string memory _username) public {\n        require(!registered[msg.sender], \"User already registered.\");\n        users[msg.sender] = User(_username, msg.sender);\n        registered[msg.sender] = true;\n        emit UserRegistered(msg.sender, _username);\n    }\n\n    function getUser(address _userAddress) public view returns (User memory) {\n        require(registered[_userAddress], \"User not registered.\");\n        return users[_userAddress];\n    }\n\n    function addItem(string memory name, string memory imageUrl, uint minBid, uint buyoutPrice, uint biddingTime) public {\n        //uint auctionEndTime = block.timestamp + biddingTime;\n        items.push(Item({\n            id: items.length,\n            seller: payable(msg.sender),\n            name: name,\n            imageUrl: imageUrl,\n            minBid: minBid,\n            buyoutPrice: buyoutPrice,\n            //auctionEndTime: auctionEndTime,\n            highestBidder: address(0),\n            highestBid: 0,\n            ended: false\n        }));\n        //emit AuctionCreated(items.length - 1, name, minBid, buyoutPrice, auctionEndTime);\n        emit AuctionCreated(items.length - 1, name, minBid, buyoutPrice);\n    }\n\n    function bid(uint itemId) public payable {\n        require(itemId < items.length, \"Invalid Item ID\");\n        Item storage item = items[itemId];\n        //require(block.timestamp < item.auctionEndTime, \"Auction already ended.\");\n        require(!items[itemId].ended, \"Auction already ended.\"); \n        require(item.seller != msg.sender, \"You can not bid on your own auction\");\n        require(msg.value > item.highestBid, \"There already is a higher bid.\");\n        require(msg.value < item.buyoutPrice, \"Bid can not be higher than buyout\");\n\n        if (item.highestBidder != address(0)) {\n            pendingReturns[item.highestBidder] += item.highestBid;\n        }\n\n        item.highestBidder = msg.sender;\n        item.highestBid = msg.value;\n\n        item.seller.transfer(msg.value);\n\n        emit HighestBidIncreased(itemId, msg.sender, msg.value);\n    }\n\n\n    function buyout(uint itemId) public payable {\n        require(itemId < items.length, \"Invalid Item ID\");\n        Item storage item = items[itemId];\n        //require(block.timestamp < item.auctionEndTime, \"Auction already ended.\");\n        require(!items[itemId].ended, \"Auction already ended.\");\n        require(msg.value >= item.buyoutPrice, \"Buyout price not met.\");\n        \n        item.ended = true;\n        //item.auctionEndTime = block.timestamp;\n        \n        pendingReturns[item.highestBidder] += item.highestBid;\n\n        item.seller.transfer(msg.value);\n        \n        emit ItemBoughtOut(itemId, msg.sender, msg.value);\n    }\n\n    function withdraw() public returns (uint) {\n        uint amount = pendingReturns[msg.sender];\n        if (amount > 0) {\n            pendingReturns[msg.sender] = 0;\n            if (!payable(msg.sender).send(amount)) {\n                pendingReturns[msg.sender] = amount;\n                return 0;\n            }\n        }\n        return amount;\n    }\n\n    function endAuction(uint itemId) public {\n        Item storage item = items[itemId];\n        //require(msg.sender == item.seller,\"You are not the seller of this Auction\");\n        //require(block.timestamp >= item.auctionEndTime, \"Auction not yet ended.\");\n        require(!item.ended, \"Auction end has already been called.\");\n        if (item.highestBid > 0) {\n            item.ended = true;\n            item.seller.transfer(item.highestBid);\n            emit AuctionEnded(itemId, item.highestBidder, item.highestBid);\n        }\n    }\n\n    function itemsCount() public view returns (uint) {\n        return items.length;\n    }\n\n    // Retrieve all user items\n    function getAllUserItems() public view returns (Item[] memory) {\n        require(registered[msg.sender], \"User not registered.\");\n\n        // Count the user's items\n        uint count = 0;\n        for (uint index = 0; index < items.length; index++) {\n            if (items[index].seller == msg.sender) {\n                count++;\n            }\n        }\n\n        // Allocate a memory array for the user's items\n        Item[] memory list = new Item[](count);\n\n        uint counter = 0;\n        for (uint index = 0; index < items.length; index++) {\n            if (items[index].seller == msg.sender) {\n                list[counter] = items[index];\n                counter++;\n            }\n        }\n\n        return list;\n    }\n}\n",
  "sourcePath": "/home/farazmajid/Documents/Decentralized-Auction/backend/contracts/DecentralizedAuction.sol",
  "compiler": {
    "name": "solc",
    "version": "0.8.19+commit.7dd6d404.Emscripten.clang"
  },
  "schemaVersion": "3.4.16",
  "updatedAt": "2024-05-09T08:20:21.194Z",
  "networkType": "ethereum",
  "devdoc": {
    "kind": "dev",
    "methods": {},
    "version": 1
  },
  "userdoc": {
    "kind": "user",
    "methods": {},
    "version": 1
  }
}