{
  "contractName": "DecentralizedAuction",
  "abi": [
    {
      "anonymous": false,
      "inputs": [
        {
          "indexed": false,
          "internalType": "uint256",
          "name": "itemId",
          "type": "uint256"
        },
        {
          "indexed": false,
          "internalType": "string",
          "name": "name",
          "type": "string"
        },
        {
          "indexed": false,
          "internalType": "uint256",
          "name": "minBid",
          "type": "uint256"
        },
        {
          "indexed": false,
          "internalType": "uint256",
          "name": "buyoutPrice",
          "type": "uint256"
        },
        {
          "indexed": false,
          "internalType": "uint256",
          "name": "auctionEndTime",
          "type": "uint256"
        }
      ],
      "name": "AuctionCreated",
      "type": "event"
    },
    {
      "anonymous": false,
      "inputs": [
        {
          "indexed": false,
          "internalType": "uint256",
          "name": "itemId",
          "type": "uint256"
        },
        {
          "indexed": false,
          "internalType": "address",
          "name": "winner",
          "type": "address"
        },
        {
          "indexed": false,
          "internalType": "uint256",
          "name": "amount",
          "type": "uint256"
        }
      ],
      "name": "AuctionEnded",
      "type": "event"
    },
    {
      "anonymous": false,
      "inputs": [
        {
          "indexed": false,
          "internalType": "uint256",
          "name": "itemId",
          "type": "uint256"
        },
        {
          "indexed": false,
          "internalType": "address",
          "name": "bidder",
          "type": "address"
        },
        {
          "indexed": false,
          "internalType": "uint256",
          "name": "amount",
          "type": "uint256"
        }
      ],
      "name": "HighestBidIncreased",
      "type": "event"
    },
    {
      "anonymous": false,
      "inputs": [
        {
          "indexed": false,
          "internalType": "uint256",
          "name": "itemId",
          "type": "uint256"
        },
        {
          "indexed": false,
          "internalType": "address",
          "name": "buyer",
          "type": "address"
        },
        {
          "indexed": false,
          "internalType": "uint256",
          "name": "amount",
          "type": "uint256"
        }
      ],
      "name": "ItemBoughtOut",
      "type": "event"
    },
    {
      "inputs": [
        {
          "internalType": "uint256",
          "name": "",
          "type": "uint256"
        }
      ],
      "name": "items",
      "outputs": [
        {
          "internalType": "uint256",
          "name": "id",
          "type": "uint256"
        },
        {
          "internalType": "address payable",
          "name": "seller",
          "type": "address"
        },
        {
          "internalType": "string",
          "name": "name",
          "type": "string"
        },
        {
          "internalType": "string",
          "name": "imageUrl",
          "type": "string"
        },
        {
          "internalType": "uint256",
          "name": "minBid",
          "type": "uint256"
        },
        {
          "internalType": "uint256",
          "name": "buyoutPrice",
          "type": "uint256"
        },
        {
          "internalType": "uint256",
          "name": "auctionEndTime",
          "type": "uint256"
        },
        {
          "internalType": "address",
          "name": "highestBidder",
          "type": "address"
        },
        {
          "internalType": "uint256",
          "name": "highestBid",
          "type": "uint256"
        },
        {
          "internalType": "bool",
          "name": "ended",
          "type": "bool"
        }
      ],
      "stateMutability": "view",
      "type": "function"
    },
    {
      "inputs": [
        {
          "internalType": "address",
          "name": "",
          "type": "address"
        }
      ],
      "name": "pendingReturns",
      "outputs": [
        {
          "internalType": "uint256",
          "name": "",
          "type": "uint256"
        }
      ],
      "stateMutability": "view",
      "type": "function"
    },
    {
      "inputs": [
        {
          "internalType": "string",
          "name": "name",
          "type": "string"
        },
        {
          "internalType": "string",
          "name": "imageUrl",
          "type": "string"
        },
        {
          "internalType": "uint256",
          "name": "minBid",
          "type": "uint256"
        },
        {
          "internalType": "uint256",
          "name": "buyoutPrice",
          "type": "uint256"
        },
        {
          "internalType": "uint256",
          "name": "biddingTime",
          "type": "uint256"
        }
      ],
      "name": "addItem",
      "outputs": [],
      "stateMutability": "nonpayable",
      "type": "function"
    },
    {
      "inputs": [
        {
          "internalType": "uint256",
          "name": "itemId",
          "type": "uint256"
        }
      ],
      "name": "bid",
      "outputs": [],
      "stateMutability": "payable",
      "type": "function"
    },
    {
      "inputs": [],
      "name": "withdraw",
      "outputs": [
        {
          "internalType": "bool",
          "name": "",
          "type": "bool"
        }
      ],
      "stateMutability": "nonpayable",
      "type": "function"
    },
    {
      "inputs": [
        {
          "internalType": "uint256",
          "name": "itemId",
          "type": "uint256"
        }
      ],
      "name": "buyout",
      "outputs": [],
      "stateMutability": "payable",
      "type": "function"
    },
    {
      "inputs": [
        {
          "internalType": "uint256",
          "name": "itemId",
          "type": "uint256"
        }
      ],
      "name": "endAuction",
      "outputs": [],
      "stateMutability": "nonpayable",
      "type": "function"
    }
  ],
  "bytecode": "0x6080604052348015600e575f80fd5b506117048061001c5f395ff3fe60806040526004361061006f575f3560e01c80633ccfd60b1161004d5780633ccfd60b146100f3578063454a2ab31461011d578063b9a2de3a14610139578063bfb231d2146101615761006f565b806307bec66f146100735780630abe08661461008f57806326b387bb146100b7575b5f80fd5b61008d60048036038101906100889190610c5d565b6101a6565b005b34801561009a575f80fd5b506100b560048036038101906100b09190610dc4565b610320565b005b3480156100c2575f80fd5b506100dd60048036038101906100d89190610ecd565b610530565b6040516100ea9190610f07565b60405180910390f35b3480156100fe575f80fd5b50610107610545565b6040516101149190610f3a565b60405180910390f35b61013760048036038101906101329190610c5d565b61065e565b005b348015610144575f80fd5b5061015f600480360381019061015a9190610c5d565b610867565b005b34801561016c575f80fd5b5061018760048036038101906101829190610c5d565b610a65565b60405161019d9a99989796959493929190610fe2565b60405180910390f35b5f8082815481106101ba576101b961108a565b5b905f5260205f2090600a020190508060060154421061020e576040517f08c379a000000000000000000000000000000000000000000000000000000000815260040161020590611101565b60405180910390fd5b8060050154341015610255576040517f08c379a000000000000000000000000000000000000000000000000000000000815260040161024c90611169565b60405180910390fd5b6001816009015f6101000a81548160ff021916908315150217905550428160060181905550806001015f9054906101000a900473ffffffffffffffffffffffffffffffffffffffff1673ffffffffffffffffffffffffffffffffffffffff166108fc3490811502906040515f60405180830381858888f193505050501580156102e0573d5f803e3d5ffd5b507f713f19a7f9a1e0c7daa8679ac03a7574d05a0fa17776c383c91aafff17c7f35682333460405161031493929190611187565b60405180910390a15050565b5f814261032d91906111e9565b90505f6040518061014001604052805f8054905081526020013373ffffffffffffffffffffffffffffffffffffffff1681526020018881526020018781526020018681526020018581526020018381526020015f73ffffffffffffffffffffffffffffffffffffffff1681526020015f81526020015f1515815250908060018154018082558091505060019003905f5260205f2090600a02015f909190919091505f820151815f01556020820151816001015f6101000a81548173ffffffffffffffffffffffffffffffffffffffff021916908373ffffffffffffffffffffffffffffffffffffffff16021790555060408201518160020190816104319190611416565b5060608201518160030190816104479190611416565b506080820151816004015560a0820151816005015560c0820151816006015560e0820151816007015f6101000a81548173ffffffffffffffffffffffffffffffffffffffff021916908373ffffffffffffffffffffffffffffffffffffffff1602179055506101008201518160080155610120820151816009015f6101000a81548160ff02191690831515021790555050507f9f2d79365342a9f9f646a83e6191a18708a54c48f4924e82339e698793aff5fe60015f8054905061050b91906114e5565b87868685604051610520959493929190611518565b60405180910390a1505050505050565b6001602052805f5260405f205f915090505481565b5f8060015f3373ffffffffffffffffffffffffffffffffffffffff1673ffffffffffffffffffffffffffffffffffffffff1681526020019081526020015f205490505f811115610655575f60015f3373ffffffffffffffffffffffffffffffffffffffff1673ffffffffffffffffffffffffffffffffffffffff1681526020019081526020015f20819055503373ffffffffffffffffffffffffffffffffffffffff166108fc8290811502906040515f60405180830381858888f19350505050610654578060015f3373ffffffffffffffffffffffffffffffffffffffff1673ffffffffffffffffffffffffffffffffffffffff1681526020019081526020015f20819055505f91505061065b565b5b60019150505b90565b5f8082815481106106725761067161108a565b5b905f5260205f2090600a02019050806006015442106106c6576040517f08c379a00000000000000000000000000000000000000000000000000000000081526004016106bd90611101565b60405180910390fd5b8060080154341161070c576040517f08c379a0000000000000000000000000000000000000000000000000000000008152600401610703906115ba565b60405180910390fd5b5f73ffffffffffffffffffffffffffffffffffffffff16816007015f9054906101000a900473ffffffffffffffffffffffffffffffffffffffff1673ffffffffffffffffffffffffffffffffffffffff16146107dd57806008015460015f836007015f9054906101000a900473ffffffffffffffffffffffffffffffffffffffff1673ffffffffffffffffffffffffffffffffffffffff1673ffffffffffffffffffffffffffffffffffffffff1681526020019081526020015f205f8282546107d591906111e9565b925050819055505b33816007015f6101000a81548173ffffffffffffffffffffffffffffffffffffffff021916908373ffffffffffffffffffffffffffffffffffffffff1602179055503481600801819055507fda0a18da71d8ebd145966339a728fc0d8ccc07c22870d561890d823c515dda6b82333460405161085b93929190611187565b60405180910390a15050565b5f80828154811061087b5761087a61108a565b5b905f5260205f2090600a0201905080600601544210156108d0576040517f08c379a00000000000000000000000000000000000000000000000000000000081526004016108c790611622565b60405180910390fd5b806009015f9054906101000a900460ff1615610921576040517f08c379a0000000000000000000000000000000000000000000000000000000008152600401610918906116b0565b60405180910390fd5b6001816009015f6101000a81548160ff0219169083151502179055505f73ffffffffffffffffffffffffffffffffffffffff16816007015f9054906101000a900473ffffffffffffffffffffffffffffffffffffffff1673ffffffffffffffffffffffffffffffffffffffff1614610a6157806001015f9054906101000a900473ffffffffffffffffffffffffffffffffffffffff1673ffffffffffffffffffffffffffffffffffffffff166108fc826008015490811502906040515f60405180830381858888f193505050501580156109fd573d5f803e3d5ffd5b507fd2aa34a4fdbbc6dff6a3e56f46e0f3ae2a31d7785ff3487aa5c95c642acea50182826007015f9054906101000a900473ffffffffffffffffffffffffffffffffffffffff168360080154604051610a5893929190611187565b60405180910390a15b5050565b5f8181548110610a73575f80fd5b905f5260205f2090600a02015f91509050805f015490806001015f9054906101000a900473ffffffffffffffffffffffffffffffffffffffff1690806002018054610abd90611249565b80601f0160208091040260200160405190810160405280929190818152602001828054610ae990611249565b8015610b345780601f10610b0b57610100808354040283529160200191610b34565b820191905f5260205f20905b815481529060010190602001808311610b1757829003601f168201915b505050505090806003018054610b4990611249565b80601f0160208091040260200160405190810160405280929190818152602001828054610b7590611249565b8015610bc05780601f10610b9757610100808354040283529160200191610bc0565b820191905f5260205f20905b815481529060010190602001808311610ba357829003601f168201915b505050505090806004015490806005015490806006015490806007015f9054906101000a900473ffffffffffffffffffffffffffffffffffffffff1690806008015490806009015f9054906101000a900460ff1690508a565b5f604051905090565b5f80fd5b5f80fd5b5f819050919050565b610c3c81610c2a565b8114610c46575f80fd5b50565b5f81359050610c5781610c33565b92915050565b5f60208284031215610c7257610c71610c22565b5b5f610c7f84828501610c49565b91505092915050565b5f80fd5b5f80fd5b5f601f19601f8301169050919050565b7f4e487b71000000000000000000000000000000000000000000000000000000005f52604160045260245ffd5b610cd682610c90565b810181811067ffffffffffffffff82111715610cf557610cf4610ca0565b5b80604052505050565b5f610d07610c19565b9050610d138282610ccd565b919050565b5f67ffffffffffffffff821115610d3257610d31610ca0565b5b610d3b82610c90565b9050602081019050919050565b828183375f83830152505050565b5f610d68610d6384610d18565b610cfe565b905082815260208101848484011115610d8457610d83610c8c565b5b610d8f848285610d48565b509392505050565b5f82601f830112610dab57610daa610c88565b5b8135610dbb848260208601610d56565b91505092915050565b5f805f805f60a08688031215610ddd57610ddc610c22565b5b5f86013567ffffffffffffffff811115610dfa57610df9610c26565b5b610e0688828901610d97565b955050602086013567ffffffffffffffff811115610e2757610e26610c26565b5b610e3388828901610d97565b9450506040610e4488828901610c49565b9350506060610e5588828901610c49565b9250506080610e6688828901610c49565b9150509295509295909350565b5f73ffffffffffffffffffffffffffffffffffffffff82169050919050565b5f610e9c82610e73565b9050919050565b610eac81610e92565b8114610eb6575f80fd5b50565b5f81359050610ec781610ea3565b92915050565b5f60208284031215610ee257610ee1610c22565b5b5f610eef84828501610eb9565b91505092915050565b610f0181610c2a565b82525050565b5f602082019050610f1a5f830184610ef8565b92915050565b5f8115159050919050565b610f3481610f20565b82525050565b5f602082019050610f4d5f830184610f2b565b92915050565b5f610f5d82610e73565b9050919050565b610f6d81610f53565b82525050565b5f81519050919050565b5f82825260208201905092915050565b8281835e5f83830152505050565b5f610fa582610f73565b610faf8185610f7d565b9350610fbf818560208601610f8d565b610fc881610c90565b840191505092915050565b610fdc81610e92565b82525050565b5f61014082019050610ff65f83018d610ef8565b611003602083018c610f64565b8181036040830152611015818b610f9b565b90508181036060830152611029818a610f9b565b90506110386080830189610ef8565b61104560a0830188610ef8565b61105260c0830187610ef8565b61105f60e0830186610fd3565b61106d610100830185610ef8565b61107b610120830184610f2b565b9b9a5050505050505050505050565b7f4e487b71000000000000000000000000000000000000000000000000000000005f52603260045260245ffd5b7f41756374696f6e20616c726561647920656e6465642e000000000000000000005f82015250565b5f6110eb601683610f7d565b91506110f6826110b7565b602082019050919050565b5f6020820190508181035f830152611118816110df565b9050919050565b7f4275796f7574207072696365206e6f74206d65742e00000000000000000000005f82015250565b5f611153601583610f7d565b915061115e8261111f565b602082019050919050565b5f6020820190508181035f83015261118081611147565b9050919050565b5f60608201905061119a5f830186610ef8565b6111a76020830185610fd3565b6111b46040830184610ef8565b949350505050565b7f4e487b71000000000000000000000000000000000000000000000000000000005f52601160045260245ffd5b5f6111f382610c2a565b91506111fe83610c2a565b9250828201905080821115611216576112156111bc565b5b92915050565b7f4e487b71000000000000000000000000000000000000000000000000000000005f52602260045260245ffd5b5f600282049050600182168061126057607f821691505b6020821081036112735761127261121c565b5b50919050565b5f819050815f5260205f209050919050565b5f6020601f8301049050919050565b5f82821b905092915050565b5f600883026112d57fffffffffffffffffffffffffffffffffffffffffffffffffffffffffffffffff8261129a565b6112df868361129a565b95508019841693508086168417925050509392505050565b5f819050919050565b5f61131a61131561131084610c2a565b6112f7565b610c2a565b9050919050565b5f819050919050565b61133383611300565b61134761133f82611321565b8484546112a6565b825550505050565b5f90565b61135b61134f565b61136681848461132a565b505050565b5b818110156113895761137e5f82611353565b60018101905061136c565b5050565b601f8211156113ce5761139f81611279565b6113a88461128b565b810160208510156113b7578190505b6113cb6113c38561128b565b83018261136b565b50505b505050565b5f82821c905092915050565b5f6113ee5f19846008026113d3565b1980831691505092915050565b5f61140683836113df565b9150826002028217905092915050565b61141f82610f73565b67ffffffffffffffff81111561143857611437610ca0565b5b6114428254611249565b61144d82828561138d565b5f60209050601f83116001811461147e575f841561146c578287015190505b61147685826113fb565b8655506114dd565b601f19841661148c86611279565b5f5b828110156114b35784890151825560018201915060208501945060208101905061148e565b868310156114d057848901516114cc601f8916826113df565b8355505b6001600288020188555050505b505050505050565b5f6114ef82610c2a565b91506114fa83610c2a565b9250828203905081811115611512576115116111bc565b5b92915050565b5f60a08201905061152b5f830188610ef8565b818103602083015261153d8187610f9b565b905061154c6040830186610ef8565b6115596060830185610ef8565b6115666080830184610ef8565b9695505050505050565b7f546865726520616c7265616479206973206120686967686572206269642e00005f82015250565b5f6115a4601e83610f7d565b91506115af82611570565b602082019050919050565b5f6020820190508181035f8301526115d181611598565b9050919050565b7f41756374696f6e206e6f742079657420656e6465642e000000000000000000005f82015250565b5f61160c601683610f7d565b9150611617826115d8565b602082019050919050565b5f6020820190508181035f83015261163981611600565b9050919050565b7f41756374696f6e20656e642068617320616c7265616479206265656e2063616c5f8201527f6c65642e00000000000000000000000000000000000000000000000000000000602082015250565b5f61169a602483610f7d565b91506116a582611640565b604082019050919050565b5f6020820190508181035f8301526116c78161168e565b905091905056fea2646970667358221220ae5a149a190a3152550070796d0fc97f95b2b0232ba6d3f89f0fbae31a9388a164736f6c63430008190033",
  "immutableReferences": {},
  "source": "// SPDX-License-Identifier: MIT\r\npragma solidity ^0.8.0;\r\n\r\ncontract DecentralizedAuction {\r\n    struct Item {\r\n        uint id;\r\n        address payable seller;\r\n        string name;\r\n        string imageUrl;\r\n        uint minBid;\r\n        uint buyoutPrice;\r\n        uint auctionEndTime;\r\n        address highestBidder;\r\n        uint highestBid;\r\n        bool ended;\r\n    }\r\n\r\n    Item[] public items;\r\n    mapping(address => uint) public pendingReturns;\r\n\r\n    event AuctionCreated(uint itemId, string name, uint minBid, uint buyoutPrice, uint auctionEndTime);\r\n    event HighestBidIncreased(uint itemId, address bidder, uint amount);\r\n    event AuctionEnded(uint itemId, address winner, uint amount);\r\n    event ItemBoughtOut(uint itemId, address buyer, uint amount);\r\n\r\n    function addItem(string memory name, string memory imageUrl, uint minBid, uint buyoutPrice, uint biddingTime) public {\r\n        uint auctionEndTime = block.timestamp + biddingTime;\r\n        items.push(Item({\r\n            id: items.length,\r\n            seller: payable(msg.sender),\r\n            name: name,\r\n            imageUrl: imageUrl,\r\n            minBid: minBid,\r\n            buyoutPrice: buyoutPrice,\r\n            auctionEndTime: auctionEndTime,\r\n            highestBidder: address(0),\r\n            highestBid: 0,\r\n            ended: false\r\n        }));\r\n        emit AuctionCreated(items.length - 1, name, minBid, buyoutPrice, auctionEndTime);\r\n    }\r\n\r\n    function bid(uint itemId) public payable {\r\n        Item storage item = items[itemId];\r\n        require(block.timestamp < item.auctionEndTime, \"Auction already ended.\");\r\n        require(msg.value > item.highestBid, \"There already is a higher bid.\");\r\n        if (item.highestBidder != address(0)) {\r\n            pendingReturns[item.highestBidder] += item.highestBid;\r\n        }\r\n        item.highestBidder = msg.sender;\r\n        item.highestBid = msg.value;\r\n        emit HighestBidIncreased(itemId, msg.sender, msg.value);\r\n    }\r\n\r\n    function withdraw() public returns (bool) {\r\n        uint amount = pendingReturns[msg.sender];\r\n        if (amount > 0) {\r\n            pendingReturns[msg.sender] = 0;\r\n            if (!payable(msg.sender).send(amount)) {\r\n                pendingReturns[msg.sender] = amount;\r\n                return false;\r\n            }\r\n        }\r\n        return true;\r\n    }\r\n\r\n    function buyout(uint itemId) public payable {\r\n        Item storage item = items[itemId];\r\n        require(block.timestamp < item.auctionEndTime, \"Auction already ended.\");\r\n        require(msg.value >= item.buyoutPrice, \"Buyout price not met.\");\r\n        item.ended = true;\r\n        item.auctionEndTime = block.timestamp;\r\n        item.seller.transfer(msg.value);\r\n        emit ItemBoughtOut(itemId, msg.sender, msg.value);\r\n    }\r\n\r\n    function endAuction(uint itemId) public {\r\n        Item storage item = items[itemId];\r\n        require(block.timestamp >= item.auctionEndTime, \"Auction not yet ended.\");\r\n        require(!item.ended, \"Auction end has already been called.\");\r\n        item.ended = true;\r\n        if (item.highestBidder != address(0)) {\r\n            item.seller.transfer(item.highestBid);\r\n            emit AuctionEnded(itemId, item.highestBidder, item.highestBid);\r\n        }\r\n    }\r\n}\r\n",
  "sourcePath": "D:\\Windows Drive\\FAST\\Semester 8\\Blockchain\\Decentralized-Auction\\contracts\\DecentralizedAuction.sol",
  "compiler": {
    "name": "solc",
    "version": "0.8.25+commit.b61c2a91.Emscripten.clang"
  },
  "schemaVersion": "3.4.16",
  "updatedAt": "2024-04-28T11:14:22.825Z",
  "devdoc": {
    "kind": "dev",
    "methods": {},
    "version": 1
  },
  "userdoc": {
    "kind": "user",
    "methods": {},
    "version": 1
  }
}