{
  "contractName": "DecentralizedAuction",
  "abi": [
    {
      "inputs": [],
      "stateMutability": "nonpayable",
      "type": "constructor"
    },
    {
      "anonymous": false,
      "inputs": [
        {
          "indexed": false,
          "internalType": "uint256",
          "name": "itemId",
          "type": "uint256"
        },
        {
          "indexed": false,
          "internalType": "string",
          "name": "name",
          "type": "string"
        },
        {
          "indexed": false,
          "internalType": "uint256",
          "name": "minBid",
          "type": "uint256"
        },
        {
          "indexed": false,
          "internalType": "uint256",
          "name": "buyoutPrice",
          "type": "uint256"
        },
        {
          "indexed": false,
          "internalType": "uint256",
          "name": "auctionEndTime",
          "type": "uint256"
        }
      ],
      "name": "AuctionCreated",
      "type": "event"
    },
    {
      "anonymous": false,
      "inputs": [
        {
          "indexed": false,
          "internalType": "uint256",
          "name": "itemId",
          "type": "uint256"
        },
        {
          "indexed": false,
          "internalType": "address",
          "name": "winner",
          "type": "address"
        },
        {
          "indexed": false,
          "internalType": "uint256",
          "name": "amount",
          "type": "uint256"
        }
      ],
      "name": "AuctionEnded",
      "type": "event"
    },
    {
      "anonymous": false,
      "inputs": [
        {
          "indexed": false,
          "internalType": "uint256",
          "name": "itemId",
          "type": "uint256"
        },
        {
          "indexed": false,
          "internalType": "address",
          "name": "bidder",
          "type": "address"
        },
        {
          "indexed": false,
          "internalType": "uint256",
          "name": "amount",
          "type": "uint256"
        }
      ],
      "name": "HighestBidIncreased",
      "type": "event"
    },
    {
      "anonymous": false,
      "inputs": [
        {
          "indexed": false,
          "internalType": "uint256",
          "name": "itemId",
          "type": "uint256"
        },
        {
          "indexed": false,
          "internalType": "address",
          "name": "buyer",
          "type": "address"
        },
        {
          "indexed": false,
          "internalType": "uint256",
          "name": "amount",
          "type": "uint256"
        }
      ],
      "name": "ItemBoughtOut",
      "type": "event"
    },
    {
      "inputs": [
        {
          "internalType": "uint256",
          "name": "",
          "type": "uint256"
        }
      ],
      "name": "items",
      "outputs": [
        {
          "internalType": "uint256",
          "name": "id",
          "type": "uint256"
        },
        {
          "internalType": "address payable",
          "name": "seller",
          "type": "address"
        },
        {
          "internalType": "string",
          "name": "name",
          "type": "string"
        },
        {
          "internalType": "string",
          "name": "imageUrl",
          "type": "string"
        },
        {
          "internalType": "uint256",
          "name": "minBid",
          "type": "uint256"
        },
        {
          "internalType": "uint256",
          "name": "buyoutPrice",
          "type": "uint256"
        },
        {
          "internalType": "uint256",
          "name": "auctionEndTime",
          "type": "uint256"
        },
        {
          "internalType": "address",
          "name": "highestBidder",
          "type": "address"
        },
        {
          "internalType": "uint256",
          "name": "highestBid",
          "type": "uint256"
        },
        {
          "internalType": "bool",
          "name": "ended",
          "type": "bool"
        }
      ],
      "stateMutability": "view",
      "type": "function",
      "constant": true
    },
    {
      "inputs": [
        {
          "internalType": "address",
          "name": "",
          "type": "address"
        }
      ],
      "name": "pendingReturns",
      "outputs": [
        {
          "internalType": "uint256",
          "name": "",
          "type": "uint256"
        }
      ],
      "stateMutability": "view",
      "type": "function",
      "constant": true
    },
    {
      "inputs": [
        {
          "internalType": "string",
          "name": "name",
          "type": "string"
        },
        {
          "internalType": "string",
          "name": "imageUrl",
          "type": "string"
        },
        {
          "internalType": "uint256",
          "name": "minBid",
          "type": "uint256"
        },
        {
          "internalType": "uint256",
          "name": "buyoutPrice",
          "type": "uint256"
        },
        {
          "internalType": "uint256",
          "name": "biddingTime",
          "type": "uint256"
        }
      ],
      "name": "addItem",
      "outputs": [],
      "stateMutability": "nonpayable",
      "type": "function"
    },
    {
      "inputs": [
        {
          "internalType": "uint256",
          "name": "itemId",
          "type": "uint256"
        }
      ],
      "name": "bid",
      "outputs": [],
      "stateMutability": "payable",
      "type": "function",
      "payable": true
    },
    {
      "inputs": [],
      "name": "withdraw",
      "outputs": [
        {
          "internalType": "bool",
          "name": "",
          "type": "bool"
        }
      ],
      "stateMutability": "nonpayable",
      "type": "function"
    },
    {
      "inputs": [
        {
          "internalType": "uint256",
          "name": "itemId",
          "type": "uint256"
        }
      ],
      "name": "buyout",
      "outputs": [],
      "stateMutability": "payable",
      "type": "function",
      "payable": true
    },
    {
      "inputs": [
        {
          "internalType": "uint256",
          "name": "itemId",
          "type": "uint256"
        }
      ],
      "name": "endAuction",
      "outputs": [],
      "stateMutability": "nonpayable",
      "type": "function"
    },
    {
      "inputs": [],
      "name": "itemsCount",
      "outputs": [
        {
          "internalType": "uint256",
          "name": "",
          "type": "uint256"
        }
      ],
      "stateMutability": "view",
      "type": "function",
      "constant": true
    }
  ],
  "bytecode": "0x60806040523480156200001157600080fd5b50620000876040518060400160405280600d81526020017f56696e746167652050686f6e6500000000000000000000000000000000000000815250604051806060016040528060338152602001620021d360339139670de0b6b3a7640000674563918244f40000612a306200017760201b60201c565b620000fc6040518060400160405280600d81526020017f5265636f726420506c61796572000000000000000000000000000000000000008152506040518060e0016040528060ab81526020016200212860ab9139671bc16d674ec80000676124fee993bc0000612a306200017760201b60201c565b620001716040518060400160405280601281526020017f416c616464696e204d6f7669652050726f7000000000000000000000000000008152506040518060a0016040528060638152602001620020c5606391396729a2241af62c0000678ac7230489e80000612a306200017760201b60201c565b620008aa565b60008142620001879190620003d9565b9050600060405180610140016040528060008054905081526020013373ffffffffffffffffffffffffffffffffffffffff168152602001888152602001878152602001868152602001858152602001838152602001600073ffffffffffffffffffffffffffffffffffffffff168152602001600081526020016000151581525090806001815401808255809150506001900390600052602060002090600a02016000909190919091506000820151816000015560208201518160010160006101000a81548173ffffffffffffffffffffffffffffffffffffffff021916908373ffffffffffffffffffffffffffffffffffffffff160217905550604082015181600201908162000298919062000684565b506060820151816003019081620002b0919062000684565b506080820151816004015560a0820151816005015560c0820151816006015560e08201518160070160006101000a81548173ffffffffffffffffffffffffffffffffffffffff021916908373ffffffffffffffffffffffffffffffffffffffff16021790555061010082015181600801556101208201518160090160006101000a81548160ff02191690831515021790555050507f9f2d79365342a9f9f646a83e6191a18708a54c48f4924e82339e698793aff5fe60016000805490506200037991906200076b565b878686856040516200039095949392919062000846565b60405180910390a1505050505050565b6000819050919050565b7f4e487b7100000000000000000000000000000000000000000000000000000000600052601160045260246000fd5b6000620003e682620003a0565b9150620003f383620003a0565b92508282019050808211156200040e576200040d620003aa565b5b92915050565b600081519050919050565b7f4e487b7100000000000000000000000000000000000000000000000000000000600052604160045260246000fd5b7f4e487b7100000000000000000000000000000000000000000000000000000000600052602260045260246000fd5b600060028204905060018216806200049657607f821691505b602082108103620004ac57620004ab6200044e565b5b50919050565b60008190508160005260206000209050919050565b60006020601f8301049050919050565b600082821b905092915050565b600060088302620005167fffffffffffffffffffffffffffffffffffffffffffffffffffffffffffffffff82620004d7565b620005228683620004d7565b95508019841693508086168417925050509392505050565b6000819050919050565b6000620005656200055f6200055984620003a0565b6200053a565b620003a0565b9050919050565b6000819050919050565b620005818362000544565b6200059962000590826200056c565b848454620004e4565b825550505050565b600090565b620005b0620005a1565b620005bd81848462000576565b505050565b5b81811015620005e557620005d9600082620005a6565b600181019050620005c3565b5050565b601f8211156200063457620005fe81620004b2565b6200060984620004c7565b8101602085101562000619578190505b620006316200062885620004c7565b830182620005c2565b50505b505050565b600082821c905092915050565b6000620006596000198460080262000639565b1980831691505092915050565b600062000674838362000646565b9150826002028217905092915050565b6200068f8262000414565b67ffffffffffffffff811115620006ab57620006aa6200041f565b5b620006b782546200047d565b620006c4828285620005e9565b600060209050601f831160018114620006fc5760008415620006e7578287015190505b620006f3858262000666565b86555062000763565b601f1984166200070c86620004b2565b60005b8281101562000736578489015182556001820191506020850194506020810190506200070f565b8683101562000756578489015162000752601f89168262000646565b8355505b6001600288020188555050505b505050505050565b60006200077882620003a0565b91506200078583620003a0565b9250828203905081811115620007a0576200079f620003aa565b5b92915050565b620007b181620003a0565b82525050565b600082825260208201905092915050565b60005b83811015620007e8578082015181840152602081019050620007cb565b60008484015250505050565b6000601f19601f8301169050919050565b6000620008128262000414565b6200081e8185620007b7565b935062000830818560208601620007c8565b6200083b81620007f4565b840191505092915050565b600060a0820190506200085d6000830188620007a6565b818103602083015262000871818762000805565b9050620008826040830186620007a6565b620008916060830185620007a6565b620008a06080830184620007a6565b9695505050505050565b61180b80620008ba6000396000f3fe60806040526004361061007b5760003560e01c8063454a2ab31161004e578063454a2ab31461012d578063b9a2de3a14610149578063bfb231d214610172578063e2c03ace146101b85761007b565b806307bec66f146100805780630abe08661461009c57806326b387bb146100c55780633ccfd60b14610102575b600080fd5b61009a60048036038101906100959190610cf4565b6101e3565b005b3480156100a857600080fd5b506100c360048036038101906100be9190610e67565b610365565b005b3480156100d157600080fd5b506100ec60048036038101906100e79190610f78565b610584565b6040516100f99190610fb4565b60405180910390f35b34801561010e57600080fd5b5061011761059c565b6040516101249190610fea565b60405180910390f35b61014760048036038101906101429190610cf4565b6106c0565b005b34801561015557600080fd5b50610170600480360381019061016b9190610cf4565b6108d3565b005b34801561017e57600080fd5b5061019960048036038101906101949190610cf4565b610add565b6040516101af9a999897969594939291906110b4565b60405180910390f35b3480156101c457600080fd5b506101cd610c9e565b6040516101da9190610fb4565b60405180910390f35b60008082815481106101f8576101f761115e565b5b90600052602060002090600a020190508060060154421061024e576040517f08c379a0000000000000000000000000000000000000000000000000000000008152600401610245906111d9565b60405180910390fd5b8060050154341015610295576040517f08c379a000000000000000000000000000000000000000000000000000000000815260040161028c90611245565b60405180910390fd5b60018160090160006101000a81548160ff0219169083151502179055504281600601819055508060010160009054906101000a900473ffffffffffffffffffffffffffffffffffffffff1673ffffffffffffffffffffffffffffffffffffffff166108fc349081150290604051600060405180830381858888f19350505050158015610325573d6000803e3d6000fd5b507f713f19a7f9a1e0c7daa8679ac03a7574d05a0fa17776c383c91aafff17c7f35682333460405161035993929190611265565b60405180910390a15050565b6000814261037391906112cb565b9050600060405180610140016040528060008054905081526020013373ffffffffffffffffffffffffffffffffffffffff168152602001888152602001878152602001868152602001858152602001838152602001600073ffffffffffffffffffffffffffffffffffffffff168152602001600081526020016000151581525090806001815401808255809150506001900390600052602060002090600a02016000909190919091506000820151816000015560208201518160010160006101000a81548173ffffffffffffffffffffffffffffffffffffffff021916908373ffffffffffffffffffffffffffffffffffffffff1602179055506040820151816002019081610482919061150b565b506060820151816003019081610498919061150b565b506080820151816004015560a0820151816005015560c0820151816006015560e08201518160070160006101000a81548173ffffffffffffffffffffffffffffffffffffffff021916908373ffffffffffffffffffffffffffffffffffffffff16021790555061010082015181600801556101208201518160090160006101000a81548160ff02191690831515021790555050507f9f2d79365342a9f9f646a83e6191a18708a54c48f4924e82339e698793aff5fe600160008054905061055f91906115dd565b87868685604051610574959493929190611611565b60405180910390a1505050505050565b60016020528060005260406000206000915090505481565b600080600160003373ffffffffffffffffffffffffffffffffffffffff1673ffffffffffffffffffffffffffffffffffffffff16815260200190815260200160002054905060008111156106b7576000600160003373ffffffffffffffffffffffffffffffffffffffff1673ffffffffffffffffffffffffffffffffffffffff168152602001908152602001600020819055503373ffffffffffffffffffffffffffffffffffffffff166108fc829081150290604051600060405180830381858888f193505050506106b65780600160003373ffffffffffffffffffffffffffffffffffffffff1673ffffffffffffffffffffffffffffffffffffffff1681526020019081526020016000208190555060009150506106bd565b5b60019150505b90565b60008082815481106106d5576106d461115e565b5b90600052602060002090600a020190508060060154421061072b576040517f08c379a0000000000000000000000000000000000000000000000000000000008152600401610722906111d9565b60405180910390fd5b80600801543411610771576040517f08c379a0000000000000000000000000000000000000000000000000000000008152600401610768906116b7565b60405180910390fd5b600073ffffffffffffffffffffffffffffffffffffffff168160070160009054906101000a900473ffffffffffffffffffffffffffffffffffffffff1673ffffffffffffffffffffffffffffffffffffffff1614610848578060080154600160008360070160009054906101000a900473ffffffffffffffffffffffffffffffffffffffff1673ffffffffffffffffffffffffffffffffffffffff1673ffffffffffffffffffffffffffffffffffffffff168152602001908152602001600020600082825461084091906112cb565b925050819055505b338160070160006101000a81548173ffffffffffffffffffffffffffffffffffffffff021916908373ffffffffffffffffffffffffffffffffffffffff1602179055503481600801819055507fda0a18da71d8ebd145966339a728fc0d8ccc07c22870d561890d823c515dda6b8233346040516108c793929190611265565b60405180910390a15050565b60008082815481106108e8576108e761115e565b5b90600052602060002090600a02019050806006015442101561093f576040517f08c379a000000000000000000000000000000000000000000000000000000000815260040161093690611723565b60405180910390fd5b8060090160009054906101000a900460ff1615610991576040517f08c379a0000000000000000000000000000000000000000000000000000000008152600401610988906117b5565b60405180910390fd5b60018160090160006101000a81548160ff021916908315150217905550600073ffffffffffffffffffffffffffffffffffffffff168160070160009054906101000a900473ffffffffffffffffffffffffffffffffffffffff1673ffffffffffffffffffffffffffffffffffffffff1614610ad9578060010160009054906101000a900473ffffffffffffffffffffffffffffffffffffffff1673ffffffffffffffffffffffffffffffffffffffff166108fc82600801549081150290604051600060405180830381858888f19350505050158015610a74573d6000803e3d6000fd5b507fd2aa34a4fdbbc6dff6a3e56f46e0f3ae2a31d7785ff3487aa5c95c642acea501828260070160009054906101000a900473ffffffffffffffffffffffffffffffffffffffff168360080154604051610ad093929190611265565b60405180910390a15b5050565b60008181548110610aed57600080fd5b90600052602060002090600a02016000915090508060000154908060010160009054906101000a900473ffffffffffffffffffffffffffffffffffffffff1690806002018054610b3c9061132e565b80601f0160208091040260200160405190810160405280929190818152602001828054610b689061132e565b8015610bb55780601f10610b8a57610100808354040283529160200191610bb5565b820191906000526020600020905b815481529060010190602001808311610b9857829003601f168201915b505050505090806003018054610bca9061132e565b80601f0160208091040260200160405190810160405280929190818152602001828054610bf69061132e565b8015610c435780601f10610c1857610100808354040283529160200191610c43565b820191906000526020600020905b815481529060010190602001808311610c2657829003601f168201915b5050505050908060040154908060050154908060060154908060070160009054906101000a900473ffffffffffffffffffffffffffffffffffffffff16908060080154908060090160009054906101000a900460ff1690508a565b60008080549050905090565b6000604051905090565b600080fd5b600080fd5b6000819050919050565b610cd181610cbe565b8114610cdc57600080fd5b50565b600081359050610cee81610cc8565b92915050565b600060208284031215610d0a57610d09610cb4565b5b6000610d1884828501610cdf565b91505092915050565b600080fd5b600080fd5b6000601f19601f8301169050919050565b7f4e487b7100000000000000000000000000000000000000000000000000000000600052604160045260246000fd5b610d7482610d2b565b810181811067ffffffffffffffff82111715610d9357610d92610d3c565b5b80604052505050565b6000610da6610caa565b9050610db28282610d6b565b919050565b600067ffffffffffffffff821115610dd257610dd1610d3c565b5b610ddb82610d2b565b9050602081019050919050565b82818337600083830152505050565b6000610e0a610e0584610db7565b610d9c565b905082815260208101848484011115610e2657610e25610d26565b5b610e31848285610de8565b509392505050565b600082601f830112610e4e57610e4d610d21565b5b8135610e5e848260208601610df7565b91505092915050565b600080600080600060a08688031215610e8357610e82610cb4565b5b600086013567ffffffffffffffff811115610ea157610ea0610cb9565b5b610ead88828901610e39565b955050602086013567ffffffffffffffff811115610ece57610ecd610cb9565b5b610eda88828901610e39565b9450506040610eeb88828901610cdf565b9350506060610efc88828901610cdf565b9250506080610f0d88828901610cdf565b9150509295509295909350565b600073ffffffffffffffffffffffffffffffffffffffff82169050919050565b6000610f4582610f1a565b9050919050565b610f5581610f3a565b8114610f6057600080fd5b50565b600081359050610f7281610f4c565b92915050565b600060208284031215610f8e57610f8d610cb4565b5b6000610f9c84828501610f63565b91505092915050565b610fae81610cbe565b82525050565b6000602082019050610fc96000830184610fa5565b92915050565b60008115159050919050565b610fe481610fcf565b82525050565b6000602082019050610fff6000830184610fdb565b92915050565b600061101082610f1a565b9050919050565b61102081611005565b82525050565b600081519050919050565b600082825260208201905092915050565b60005b83811015611060578082015181840152602081019050611045565b60008484015250505050565b600061107782611026565b6110818185611031565b9350611091818560208601611042565b61109a81610d2b565b840191505092915050565b6110ae81610f3a565b82525050565b6000610140820190506110ca600083018d610fa5565b6110d7602083018c611017565b81810360408301526110e9818b61106c565b905081810360608301526110fd818a61106c565b905061110c6080830189610fa5565b61111960a0830188610fa5565b61112660c0830187610fa5565b61113360e08301866110a5565b611141610100830185610fa5565b61114f610120830184610fdb565b9b9a5050505050505050505050565b7f4e487b7100000000000000000000000000000000000000000000000000000000600052603260045260246000fd5b7f41756374696f6e20616c726561647920656e6465642e00000000000000000000600082015250565b60006111c3601683611031565b91506111ce8261118d565b602082019050919050565b600060208201905081810360008301526111f2816111b6565b9050919050565b7f4275796f7574207072696365206e6f74206d65742e0000000000000000000000600082015250565b600061122f601583611031565b915061123a826111f9565b602082019050919050565b6000602082019050818103600083015261125e81611222565b9050919050565b600060608201905061127a6000830186610fa5565b61128760208301856110a5565b6112946040830184610fa5565b949350505050565b7f4e487b7100000000000000000000000000000000000000000000000000000000600052601160045260246000fd5b60006112d682610cbe565b91506112e183610cbe565b92508282019050808211156112f9576112f861129c565b5b92915050565b7f4e487b7100000000000000000000000000000000000000000000000000000000600052602260045260246000fd5b6000600282049050600182168061134657607f821691505b602082108103611359576113586112ff565b5b50919050565b60008190508160005260206000209050919050565b60006020601f8301049050919050565b600082821b905092915050565b6000600883026113c17fffffffffffffffffffffffffffffffffffffffffffffffffffffffffffffffff82611384565b6113cb8683611384565b95508019841693508086168417925050509392505050565b6000819050919050565b60006114086114036113fe84610cbe565b6113e3565b610cbe565b9050919050565b6000819050919050565b611422836113ed565b61143661142e8261140f565b848454611391565b825550505050565b600090565b61144b61143e565b611456818484611419565b505050565b5b8181101561147a5761146f600082611443565b60018101905061145c565b5050565b601f8211156114bf576114908161135f565b61149984611374565b810160208510156114a8578190505b6114bc6114b485611374565b83018261145b565b50505b505050565b600082821c905092915050565b60006114e2600019846008026114c4565b1980831691505092915050565b60006114fb83836114d1565b9150826002028217905092915050565b61151482611026565b67ffffffffffffffff81111561152d5761152c610d3c565b5b611537825461132e565b61154282828561147e565b600060209050601f8311600181146115755760008415611563578287015190505b61156d85826114ef565b8655506115d5565b601f1984166115838661135f565b60005b828110156115ab57848901518255600182019150602085019450602081019050611586565b868310156115c857848901516115c4601f8916826114d1565b8355505b6001600288020188555050505b505050505050565b60006115e882610cbe565b91506115f383610cbe565b925082820390508181111561160b5761160a61129c565b5b92915050565b600060a0820190506116266000830188610fa5565b8181036020830152611638818761106c565b90506116476040830186610fa5565b6116546060830185610fa5565b6116616080830184610fa5565b9695505050505050565b7f546865726520616c7265616479206973206120686967686572206269642e0000600082015250565b60006116a1601e83611031565b91506116ac8261166b565b602082019050919050565b600060208201905081810360008301526116d081611694565b9050919050565b7f41756374696f6e206e6f742079657420656e6465642e00000000000000000000600082015250565b600061170d601683611031565b9150611718826116d7565b602082019050919050565b6000602082019050818103600083015261173c81611700565b9050919050565b7f41756374696f6e20656e642068617320616c7265616479206265656e2063616c60008201527f6c65642e00000000000000000000000000000000000000000000000000000000602082015250565b600061179f602483611031565b91506117aa82611743565b604082019050919050565b600060208201905081810360008301526117ce81611792565b905091905056fea2646970667358221220063656fef92fe7c7a0f8392489ba5ef7bc502748367c63db72564c4bc3ce545964736f6c6343000813003368747470733a2f2f6d756c7469776f6f642e636f6d2e706b2f63646e2f73686f702f70726f64756374732f506963736172745f32322d31302d32335f30332d35332d33332d3831325f3130303078313030302e6a70673f763d3136363634373937323668747470733a2f2f6969312e7065707065726672792e636f6d2f6d656469612f636174616c6f672f70726f647563742f672f6f2f343934783534342f676f6c642d62726173732d616e642d776f6f642d656d626f737365642d686f726e2d616e642d6772616d6f70686f6e652d62792d6578696d2d6465636f722d676f6c642d62726173732d616e642d776f6f642d656d626f737365642d686f726e2d616e642d666a697a74352e6a706768747470733a2f2f6d2e6d656469612d616d617a6f6e2e636f6d2f696d616765732f492f37317451432d323739754c2e6a7067",
  "immutableReferences": {},
  "source": "// SPDX-License-Identifier: MIT\r\npragma solidity ^0.8.0;\r\n\r\ncontract DecentralizedAuction {\r\n    struct Item {\r\n        uint id;\r\n        address payable seller;\r\n        string name;\r\n        string imageUrl;\r\n        uint minBid;\r\n        uint buyoutPrice;\r\n        uint auctionEndTime;\r\n        address highestBidder;\r\n        uint highestBid;\r\n        bool ended;\r\n    }\r\n\r\n    Item[] public items;\r\n    mapping(address => uint) public pendingReturns;\r\n\r\n    event AuctionCreated(uint itemId, string name, uint minBid, uint buyoutPrice, uint auctionEndTime);\r\n    event HighestBidIncreased(uint itemId, address bidder, uint amount);\r\n    event AuctionEnded(uint itemId, address winner, uint amount);\r\n    event ItemBoughtOut(uint itemId, address buyer, uint amount);\r\n\r\n    constructor() {\r\n        addItem(\"Vintage Phone\", \"https://m.media-amazon.com/images/I/71tQC-279uL.jpg\", 1 ether, 5 ether, 180 minutes);\r\n        addItem(\"Record Player\", \"https://ii1.pepperfry.com/media/catalog/product/g/o/494x544/gold-brass-and-wood-embossed-horn-and-gramophone-by-exim-decor-gold-brass-and-wood-embossed-horn-and-fjizt5.jpg\", 2 ether, 7 ether, 180 minutes);\r\n        addItem(\"Aladdin Movie Prop\", \"https://multiwood.com.pk/cdn/shop/products/Picsart_22-10-23_03-53-33-812_1000x1000.jpg?v=1666479726\", 3 ether, 10 ether, 180 minutes);\r\n    }\r\n\r\n    function addItem(string memory name, string memory imageUrl, uint minBid, uint buyoutPrice, uint biddingTime) public {\r\n        uint auctionEndTime = block.timestamp + biddingTime;\r\n        items.push(Item({\r\n            id: items.length,\r\n            seller: payable(msg.sender),\r\n            name: name,\r\n            imageUrl: imageUrl,\r\n            minBid: minBid,\r\n            buyoutPrice: buyoutPrice,\r\n            auctionEndTime: auctionEndTime,\r\n            highestBidder: address(0),\r\n            highestBid: 0,\r\n            ended: false\r\n        }));\r\n        emit AuctionCreated(items.length - 1, name, minBid, buyoutPrice, auctionEndTime);\r\n    }\r\n\r\n    function bid(uint itemId) public payable {\r\n        Item storage item = items[itemId];\r\n        require(block.timestamp < item.auctionEndTime, \"Auction already ended.\");\r\n        require(msg.value > item.highestBid, \"There already is a higher bid.\");\r\n        if (item.highestBidder != address(0)) {\r\n            pendingReturns[item.highestBidder] += item.highestBid;\r\n        }\r\n        item.highestBidder = msg.sender;\r\n        item.highestBid = msg.value;\r\n        emit HighestBidIncreased(itemId, msg.sender, msg.value);\r\n    }\r\n\r\n    function withdraw() public returns (bool) {\r\n        uint amount = pendingReturns[msg.sender];\r\n        if (amount > 0) {\r\n            pendingReturns[msg.sender] = 0;\r\n            if (!payable(msg.sender).send(amount)) {\r\n                pendingReturns[msg.sender] = amount;\r\n                return false;\r\n            }\r\n        }\r\n        return true;\r\n    }\r\n\r\n    function buyout(uint itemId) public payable {\r\n        Item storage item = items[itemId];\r\n        require(block.timestamp < item.auctionEndTime, \"Auction already ended.\");\r\n        require(msg.value >= item.buyoutPrice, \"Buyout price not met.\");\r\n        item.ended = true;\r\n        item.auctionEndTime = block.timestamp;\r\n        item.seller.transfer(msg.value);\r\n        emit ItemBoughtOut(itemId, msg.sender, msg.value);\r\n    }\r\n\r\n    function endAuction(uint itemId) public {\r\n        Item storage item = items[itemId];\r\n        require(block.timestamp >= item.auctionEndTime, \"Auction not yet ended.\");\r\n        require(!item.ended, \"Auction end has already been called.\");\r\n        item.ended = true;\r\n        if (item.highestBidder != address(0)) {\r\n            item.seller.transfer(item.highestBid);\r\n            emit AuctionEnded(itemId, item.highestBidder, item.highestBid);\r\n        }\r\n    }\r\n\r\n    function itemsCount() public view returns (uint) {\r\n        return items.length;\r\n    }\r\n\r\n}\r\n",
  "sourcePath": "D:\\Windows Drive\\FAST\\Semester 8\\Blockchain\\Decentralized-Auction\\contracts\\DecentralizedAuction.sol",
  "compiler": {
    "name": "solc",
    "version": "0.8.19+commit.7dd6d404.Emscripten.clang"
  },
  "schemaVersion": "3.4.16",
  "updatedAt": "2024-04-28T14:20:26.306Z",
  "networkType": "ethereum",
  "devdoc": {
    "kind": "dev",
    "methods": {},
    "version": 1
  },
  "userdoc": {
    "kind": "user",
    "methods": {},
    "version": 1
  }
}